S01A000064656D6F70726F675F73746D3332683734332E737265638F
S3150802000000000824110F0208290E02082B0E020806
S315080200102D0E02082F0E0208310E020800000000FB
S31508020020000000000000000000000000330E020875
S31508020030350E020800000000370E0208390E0208C3
S31508020040610F0208610F0208610F0208610F0208B8
S31508020050610F0208610F0208610F0208610F0208A8
S31508020060610F0208610F0208610F0208610F020898
S31508020070610F0208610F0208610F0208610F020888
S31508020080610F0208610F0208610F0208610F020878
S31508020090610F0208610F0208610F0208610F020868
S315080200A0610F0208610F0208610F0208610F020858
S315080200B0610F0208610F0208610F0208610F020848
S315080200C0610F0208610F0208610F0208610F020838
S315080200D0610F0208610F0208610F0208610F020828
S315080200E0610F0208610F020800000000610F020892
S315080200F0610F0208610F0208610F0208610F020808
S31508020100610F0208610F0208610F0208610F0208F7
S31508020110610F0208610F0208610F0208610F0208E7
S31508020120610F0208610F0208610F0208610F0208D7
S31508020130610F0208610F0208610F0208610F0208C7
S31508020140000000000000000000000000000000009F
S31508020150610F0208610F0208610F0208610F0208A7
S31508020160610F0208610F0208610F0208610F020897
S31508020170610F0208610F0208610F02080000000001
S31508020180610F0208610F0208610F0208610F020877
S31508020190610F0208610F0208610F0208610F020867
S315080201A0610F0208610F0208610F0208610F020857
S315080201B0610F0208610F0208610F0208610F020847
S315080201C0610F0208610F0208610F0208610F020837
S315080201D0610F0208610F0208610F0208610F020827
S315080201E0610F0208610F0208610F0208610F020817
S315080201F0610F0208610F0208610F0208610F020807
S31508020200610F0208610F0208610F0208610F0208F6
S31508020210610F0208610F0208610F0208610F0208E6
S31508020220610F0208610F0208610F02080000000050
S31508020230610F0208610F020800000000610F020840
S31508020240610F0208610F0208610F0208610F0208B6
S31508020250610F0208610F0208610F0208610F0208A6
S31508020260610F0208610F0208610F0208610F020896
S31508020270610F0208610F0208610F02080000000000
S31508020280610F0208610F0208610F020800000000F0
S3110802029000000000610F0208EE11AA55DA
S3150802029C10B5054C237833B9044B13B10448AFF3A4
S315080202AC00800123237010BD6400002400000000A6
S315080202BCFC6D020808B5034B1BB103490348AFF39F
S315080202CC008008BD0000000068000024FC6D0208CE
S315080202DC08B500F015FB00F05DF900F0E3FA00F042
S315080202EC89F900F025F90021084600F0F3FA08BD51
S315080202FC08B500F059F900F0DDF900F047F908BD28
S3150802030CBFF34F8F0549CA6802F4E062044B1343E4
S3150802031CCB60BFF34F8F00BFFDE700BF00ED00E0D7
S3150802032C0400FA052DE9F04F464B0344464CA3420A
S3150802033C00F28180131E18BF012300297ED0002BE0
S3150802034C7CD00D898F8905EB070C1FFA8CFC0CF1F6
S3150802035C010C1FFA8CFC4E89B1F80E8006EB080EBE
S3150802036C1FFA8EFE0EF1010E1FFA8EFE8B8804E022
S3150802037C0120D08060E001339BB2CC889C4258D3D2
S3150802038C0C6800FB0CF94C455AD3B4FBF3F903FB86
S3150802039C1949B9F1000FEED1B4FBF3F4B4FBF0F939
S315080203AC00FB1949B9F1000FE5D1B4FBF0F41FFAB9
S315080203BC84F9CC458CBF4FF0000A4FF0010ACE45A2
S315080203CC38BF4FF0000ABAF1000FD4D04C464FEAA8
S315080203DC490A0AF1090ADFF874B0ABFB0AAB4FEA11
S315080203ECDB0AA9EBDB091FFA89F909F1FF391FFAAE
S315080203FC89F94D45BFD84E45BDD35745BBD8D045CF
S3150802040CB9D34FF0640B09FB0BBBBBFBF4F4E4B298
S3150802041C413CE4B20F2CAED81380A2F80290A2F893
S3150802042C04A04FEA5A03D380BAF1010FA0D90120CE
S3150802043C02E0002000E00020BDE8F08F0020FBE778
S3150802044C0020F9E7F0D8FFFFF0EA7900CDCCCCCC46
S3150802045CF0B591B002AF002502950395314C324B9B
S3150802046C2360204600F07EFC4FF40040002104F085
S3150802047C5FFA04900126ADF814604FF40073ADF8D8
S3150802048C1630ADF818604FF48073ADF81A30ADF823
S3150802049C1C608023ADF81E303A4604A92348FFF7A0
S315080204AC41FF6563A560E56026746674A574BDF89C
S315080204BC08306361BDF80A30E361BDF80C3023627B
S315080204CCBDF80E30A3616662A662E6622663A6636F
S315080204DCE563266404236364A564E364256563659E
S315080204ECA565E56525666566A366204601F0CCFE1C
S315080204FC089509950A960B9640F267630C930D9329
S3150802050C0E9508A9204602F009F8009633460222EF
S3150802051C1146204602F047F8204602F05DF811B063
S3150802052CF0BD00BF8000002400A0004020A10700F7
S3150802053C08B5FFF78DFF08BD08B5FFF7E1FE000009
S3150802054C00B58DB04021104802F056F908B90DB025
S3150802055C00BD6B4602AA40210B4802F057F8002848
S3150802056CF5D1029A40F267639A42F0D1039B002BAB
S3150802057CEDD19DF814209DF80030FF2BE7D1022A05
S3150802058CE5D1FFF7D9FF00BF8000002408B5FFF7B5
S3150802059CD7FF08BD08B500228021024802F050FA9E
S315080205AC08BD00BF0004025810B500F0AAF90E4B9C
S315080205BC1B68C31AB3F5FA7F0CD304460B4B1B788C
S315080205CC4BB90122094B1A708021094802F038FAF4
S315080205DC054B1C6010BD0022044B1A70802104487E
S315080205EC02F02EFAF4E700BF2401002420010024AD
S315080205FC0004025810B582B004F090FE00F081F99E
S3150802060C00F5FA70154B186000F07BF942F210737C
S3150802061C0344134A136005F0AFFA0023ADF804300D
S3150802062CADF806300F4A138053800F4A1380538055
S3150802063C0E4A138053804EF6030005F0DDFA04F0D9
S3150802064CCFFE0B4C204604F0DFFE0621204605F0B1
S3150802065CABF805F0C7F802B010BD00BF3401002490
S3150802066C30010024E4080024DC080024E0080024F5
S3150802067C2801002408B50C4B1B7813F0400F09D13E
S3150802068C13F0020F06D0094B1B68094A12881B790C
S3150802069CFF2B00D008BD062AFCD10121002000F050
S315080206AC19F9FFF749FFF5E7D0020024DC0200240A
S315080206BCD402002410B504F0B7FEB0B900F021F943
S315080206CC3A4B1B68984209D303F5FA73374A1360F7
S315080206DC0024002C36D00024002C4AD000F011F944
S315080206EC334B1B68984259D210BD324A1080324B92
S315080206FC9C894FF4006005F097FA844213D02E4B6E
S3150802070C9C8940F6060005F08FFA8442D6D106F08B
S3150802071CF5F9284B1B88002BD0D004F0B7FE254BD5
S3150802072C00221A80CAE7012005F0B8FA214B1B8869
S3150802073C002BC3D006F052FA04F0A8FE1D4B002279
S3150802074C1A80BBE7C4EB04121C4B03EB42031C4A8C
S3150802075C1360022005F0A2FA164B1B880BB901345A
S3150802076CB7E706F03BFA04F091FE124B00221A8008
S3150802077CF5E7144B03EB8413134A1360052005F0B3
S3150802078C8DFA0C4B1B880BB90134A5E706F026FA31
S3150802079C04F07CFE074B00221A80F5E742F210722F
S315080207AC1A44034B1A6006F079F99DE734010024C2
S315080207BC30010024D4020024E0020024AC020024F6
S315080207CCCC02002464020024A40200240C4B1B68ED
S315080207DCC3F3072252FA83F2C3F3074010441B0EE3
S315080207EC13FA80F080B2002305E0054A1A441279FE
S315080207FC104480B20133372BF7D9404280B2704786
S3150802080C0000002408B5FFF7E1FF044B9B8F9842C2
S3150802081C01D0002008BD0120FCE700BF000000241F
S3150802082C08B5054B1A68054B9A4201D0002008BD3B
S3150802083CFFF7E8FFFBE700BF00000024A2E742CE61
S3150802084C84B0124A02F15C43B3F5002F10D222F09F
S3150802085C0703403222F00702D3E90001CDE902016F
S3150802086CDDE90201E3E802019A42F5D104B07047C8
S3150802087C22F00303403222F003021968019101990E
S3150802088C43F8041B9A42F8D1F0E700BF0000002493
S3150802089C08B5FFF79BFF024B9887FFF7D1FF08BDF8
S315080208AC0000002408B5FFF7BBFF68B9074B084AD6
S315080208BC1A60002304E0054A1A4400211171013317
S315080208CC372BF8D9FFF7E4FF08BD00BF0000002458
S315080208DCA2E742CE70B504460D46FFF7A1FF0646BF
S315080208EC10B1372C02D90026304670BD034B23446F
S315080208FC1D71FFF7A5FFFFF7CBFFF5E700000024F4
S3150802090C704708B500F08AFB08BD0000014A024B85
S3150802091C9A6070470000020800ED00E070B584B0DA
S3150802092C0024009401940294039400F0F3FB01262C
S3150802093C8DF800608DF8014001941F238DF808305C
S3150802094C87238DF809308DF80A408DF80B408DF8FF
S3150802095C0C608DF80D608DF80E408DF80F406846C8
S3150802096C00F0F6FB8DF80160114B01930E238DF8FE
S3150802097C08308DF8094003238DF80B308DF80F607B
S3150802098C684600F0E5FB02238DF801304FF0105350
S3150802099C019305238DF808308DF80A608DF80F40FF
S315080209AC684600F0D5FB042000F0C2FB04B070BD0B
S315080209BC0000043070B58CB007AD00240794089477
S315080209CC09940A940B94334BD3F8E02042F0800234
S315080209DCC3F8E020D3F8E02002F080020192019AD3
S315080209ECD3F8E02042F00402C3F8E020D3F8E02062
S315080209FC02F004020292029AD3F8E02042F00102B3
S31508020A0CC3F8E020D3F8E02002F001020392039A1D
S31508020A1CD3F8E02042F00202C3F8E020D3F8E02033
S31508020A2C02F002020492049AD3F8E02042F0080279
S31508020A3CC3F8E020D3F8E02002F008020592059AE2
S31508020A4CD3F8E02042F04002C3F8E020D3F8E030B5
S31508020A5C03F040030693069B0F4E2246802130462E
S31508020A6C01F0EEFF802307930123089309940A9455
S31508020A7C2946304601F0CEFE4FF4007307934FF425
S31508020A8C8813089309942946304601F0C3FE0CB024
S31508020A9C70BD00BF004402580004025830B59DB020
S31508020AAC4C22002109A806F068F92022002101A887
S31508020ABC06F063F9022001F0C9FF00230093224BCA
S31508020ACC9A6942F440429A619B6903F44043009343
S31508020ADC1E4BDA6A42F00102DA62DB6A03F00103A0
S31508020AEC0093009B184B9B6913F4005FFAD0012301
S31508020AFC09934FF4A0230A93022312931393042403
S31508020B0C14944FF4F0721592169317941893199429
S31508020B1C00251A951B9509A801F0C2FF3F230193DC
S31508020B2C0323029303950823049340230593069300
S31508020B3C4FF480620792089321460DEB040002F0EB
S31508020B4C03FC1DB030BD00BF004802580004005813
S31508020B5C08B5FFF7DBFEFFF7E1FE284B5B6913F4DA
S31508020B6C003F13D1BFF34F8FBFF36F8F234B002276
S31508020B7CC3F85022BFF34F8FBFF36F8F5A6942F4F3
S31508020B8C00325A61BFF34F8FBFF36F8F1B4B5B69F2
S31508020B9C13F4803F27D1194B0022C3F88420BFF3E4
S31508020BAC4F8FD3F880C0CCF34E3000E01846CCF306
S31508020BBCC90243F6E07303EA401343EA82730F4908
S31508020BCCC1F860321346013A002BF2D1431E0028B3
S31508020BDCECD1BFF34F8F4B6943F480334B61BFF3B0
S31508020BEC4F8FBFF36F8F00F0DFF9FFF757FFFFF751
S31508020BFCE1FEFFF76DFBFFF77BFBFCE700ED00E080
S31508020C0C7047000082B0074BD3F8F42042F0020278
S31508020C1CC3F8F420D3F8F43003F002030193019BD2
S31508020C2C02B0704700440258F0B58DB00023079302
S31508020C3C089309930A930B930268444B9A4201D080
S31508020C4C0DB0F0BD424BD3F8D82042F40042C3F89B
S31508020C5CD820D3F8D82002F400420092009AD3F88E
S31508020C6CD82042F48032C3F8D820D3F8D82002F41C
S31508020C7C80320192019AD3F8D82042F40032C3F892
S31508020C8CD820D3F8D82002F400320292029AD3F86A
S31508020C9CE02042F00402C3F8E020D3F8E02002F088
S31508020CAC04020392039AD3F8E02042F00102C3F835
S31508020CBCE020D3F8E02002F001020492049AD3F859
S31508020CCCE02042F00202C3F8E020D3F8E02002F05A
S31508020CDC02020592059AD3F8E02042F04002C3F8C4
S31508020CECE020D3F8E03003F040030693069B322348
S31508020CFC0793022408940A940B260B9607AD2946E9
S31508020D0C144801F087FD8623079308940027099750
S31508020D1C0A940B962946104801F07CFD4FF40053B1
S31508020D2C0793089409970A940B9629460B4801F0DF
S31508020D3C71FD4FF420530793089409970A940B965E
S31508020D4C2946074801F066FD7AE700BF0080024093
S31508020D5C00440258000802580000025800040258BF
S31508020D6C0018025810B5B8B00446002133913491D4
S31508020D7C359136913791C02202A805F0FEFF2268FA
S31508020D8C234B9A4201D038B010BD4FF400420023CF
S31508020D9CCDE9022301230493142305930223069314
S31508020DAC07930893C023099320230A934FF0005301
S31508020DBC1E9302A802F04EFD30BB164BD3F8EC205C
S31508020DCC42F48072C3F8EC20D3F8EC2002F4807259
S31508020DDC0092009AD3F8E02042F00802C3F8E02009
S31508020DECD3F8E03003F008030193019B03233393F2
S31508020DFC022334930023359336930923379333A965
S31508020E0C054801F007FDBEE7FFF7FAFED5E700BF76
S31508020E1C00A0004000440258000C02587047FEE736
S31508020E2CFEE7FEE7FEE770477047704708B500F025
S31508020E3CE9F808BD294AD2F8883043F47003C2F897
S31508020E4C8830274B1B6803F00F03062B06D8244A57
S31508020E5C136823F00F0343F007031360214B1A6838
S31508020E6C42F001021A6000221A6119681E4A0A40E7
S31508020E7C1A601B4B1B6813F0080F06D0184A136826
S31508020E8C23F00F0343F007031360164B00229A61F3
S31508020E9CDA611A62154999621549D96215491963B3
S31508020EAC5A639963DA6319645A64196821F48021BE
S31508020EBC19601A66104B1B686FF30F03B3F1005FC8
S31508020ECC03D20E4B0122C3F808210D4B43F2D20270
S31508020EDC1A60024B4FF000629A60704700ED00E010
S31508020EEC00200052004402587FEDF6EA0002020284
S31508020EFC0000FF01800201010010005C0080005115
S31508020F0C00400052DFF834D0FFF794FF002103E0CB
S31508020F1C0B4B5B58435004310A480B4B42189A4206
S31508020F2CF6D30A4A02E0002342F8043B084B9A42DB
S31508020F3CF9D305F02BFFFFF70BFE704700000824C8
S31508020F4CA46E0208400000246400002464000024F5
S31508020F5C50090024FEE70000104B1B780BB9012040
S31508020F6C704710B504460E4A10684FF47A72B2FBF3
S31508020F7CF3F3B0FBF3F000F0B9F868B90F2C01D90A
S31508020F8C01200AE0002221464FF0FF3000F09EF8BD
S31508020F9C044B1C60002000E0012010BD4800002410
S31508020FAC440000244C00002410B5032000F07CF801
S31508020FBC02F0CEF80F498B69C3F303230E4AD35CAE
S31508020FCC03F01F03D8408B6903F00F03D35C03F0BD
S31508020FDC1F0320FA03F3094A1360094B1860002011
S31508020FECFFF7BAFF10B10124204610BD0446FFF7DD
S31508020FFC09FEF9E700440258606E02084000002414
S3150802100C44000024034B1B78034A11680B441360F3
S3150802101C704700BF48000024E8010024014B1868F9
S3150802102C704700BFE8010024014B1868000C704792
S3150802103C0010005C034A536823F4600303435360AD
S3150802104C704700BF00040058002804DB0901C9B226
S3150802105C044B1954704700F00F000901C9B2024B30
S3150802106C1954704700E400E014ED00E000B500F0F6
S3150802107C0700C0F1070CBCF1040F28BF4FF0040C93
S3150802108C031D062B0ED9C31E4FF0FF3E0EFA0CF0AB
S3150802109C21EA000199400EFA03FE22EA0E0241EAFF
S315080210AC020000BD0023EFE70649CB6823F4E06390
S315080210BC1B041B0C000200F4E0600343024A1A43A9
S315080210CCCA60704700ED00E00000FA0510B5044648
S315080210DC054BD868C0F30220FFF7C8FF0146204625
S315080210ECFFF7B2FF10BD00BF00ED00E00138B0F10A
S315080210FC807F0BD24FF0E0235861054AF02182F823
S3150802110C23100020986107221A6170470120704744
S3150802111C00ED00E0BFF35F8F044B5A6A22F480326B
S3150802112C5A620022C3F89420704700BF00ED00E013
S3150802113C40F00100054BC3F894005A6A42F4803217
S3150802114C5A62BFF34F8FBFF36F8F704700ED00E003
S3150802115C4378144AC2F89830D2F8A03023F0010327
S3150802116CC2F8A0304368C2F89C30017BC37A1B06CE
S3150802117C43EA0173817A43EAC143417B43EA8143D9
S3150802118C817B43EA4143C17B43EA0143417A43EA01
S3150802119C0123017A43EA410301780B43C2F8A030D2
S315080211AC704700BF00ED00E02DE9F04182B007461A
S315080211BC00230193D0F8688008F1120350F82340F3
S315080211CCC56E012613E001A804F094F9019B13B12C
S315080211DC2361236011E000260FE04FF00143E36020
S315080211EC13E003F1120257F82240013D98469DB1CD
S315080211FC96B12369002BE6D02360002EF7D0BB6D7F
S3150802120C002BEAD04FF04143E36008F10103032BAC
S3150802121CE7D9A8F10303E4E7FB6EAB4212D008F157
S3150802122C030303F00303BFF35F8F3A6903EB43032C
S3150802123C02EBC3023B6803F58053C3F82821C7F8AF
S3150802124C6880FD6602B0BDE8F081000030B48B6898
S3150802125C0A6813430A7943EAC2630A7B43EAC2530E
S3150802126C4A7B43EA82538A7B43EA4253CA7B43EA62
S3150802127C02530A7C002A40F0B0804FF40022134332
S3150802128C4A7C002A40F0AB804FF4003213438A7C26
S3150802129C43EA02434A6913438A6913430A7F43EAB8
S315080212AC02334A7F43EAC2238A7F002A40F0998096
S315080212BC4FF480621343CA7F43EA422391F82020F3
S315080212CC002A40F090804FF4807213434A6A134303
S315080212DC91F8282043EA0213CA6A1343046822685F
S315080212EC22F07F4222F47B0222F4FE4222F07C0296
S315080212FC13432360CA6B91F838301B0643EA4263E0
S3150802130C91F8302043EA824391F8312043EA42436A
S3150802131C91F83220002A68D14FF4803213434A6B73
S3150802132C13430468626822F07C5222F4EF2222F4F8
S3150802133CFF6222F007021343636091F840204B6C5C
S3150802134C43EA02220468E5682B4B2B401343E360FD
S3150802135C91F854200B6D43EA420391F84C20002A6B
S3150802136C45D1802213438A6C43EA02430468226FEE
S3150802137C22F0F2021204120C1343236791F8562038
S3150802138C91F8553042EA43020468D4F8903023F0B7
S3150802139C03031343C4F890300268D2F8003D23F0D5
S315080213AC72038C6D2343C2F8003DCB6D91F8602015
S315080213BCFAB94022134391F8612043EA021391F8D1
S315080213CC622043EAC2030168D1F8302D22F07B026F
S315080213DC1343C1F8303D30BC704700224FE7002258
S315080213EC54E7002266E700226FE7002296E70022FE
S315080213FCB8E70022DEE700BFF0FEFFFF10B4026872
S3150802140C02F580521468234B23400C68234313605D
S3150802141C0A798B6843EA02330A7B43EAC2320368C7
S3150802142C03F5805CDCF804401B4B23401343CCF8D1
S3150802143C04304A7B0B6A43EA024C026802F5805274
S3150802144CD2F80041154B234043EA0C03C2F800318B
S3150802145C0B690A7D43EA02134A7F43EA023203689E
S3150802146C03F5805CDCF804410D4B23401343CCF89E
S3150802147C04310B7F896941EAC371026802F580520D
S3150802148CD2F80801074B03400B43C2F808315DF842
S3150802149C044B7047FD87FFFFFE2FFFFF00C0FEFFC0
S315080214ACEFEFC0FFFFFFC07F70B5A2B0064601255D
S315080214BC8DF83350002412948DF841408DF8434030
S315080214CC8DF828508DF856508DF832508DF84C40C0
S315080214DC8DF884504FF400530F938DF85C40189492
S315080214EC8DF885408DF886404FF4C36316938DF8B4
S315080214FC30400B948DF835508DF836408DF84040B7
S3150802150C1D941B9414948DF864408DF87A408DF8CA
S3150802151C4250202320938DF844508DF855404FF0B5
S3150802152C405309934FF480430E938DF831400223AE
S3150802153C1F938DF878408DF879408DF854408DF8C4
S3150802154C34501A948DF8705009A9FFF77FFE8DF85E
S3150802155C0450029500948DF81C408DF80D408DF8B8
S3150802156C0C404FF4001306938DF8144004938DF82F
S3150802157C1D404FF40673089369463046FFF73EFF43
S3150802158C22B070BD10B4002210E0C46802EB42030C
S3150802159C4FEAC30C04EBC303002144F80C10596040
S315080215AC9960D960911D40F821300132032AECD991
S315080215BC00238362036803F580530322C3F82C21A4
S315080215CCC268036803F58053C3F81421C26803681A
S315080215DC03F58053C3F820215DF8044B704710B409
S315080215EC002113E0046901EB41034FEAC30C04EB37
S315080215FCC303002244F80C205A609A60DA601A6116
S3150802160C5A6101F1120240F8223001310329E9D953
S3150802161C0023C36503668366C3668365036803F59D
S3150802162C80530322C3F830210269036803F58053F9
S3150802163CC3F81C21036903F14802036803F58053B6
S3150802164CC3F828215DF8044B704700002DE9F041D8
S3150802165C9046846A00EB84039B69D1F808C0DA6861
S3150802166C002AC0F29281221D00EB8202D269002A5C
S3150802167C40F08D810A6812F0040F2CD0DA686FF3E9
S3150802168C0F024D6A2A43DA60DA6842F48032DA606B
S3150802169C05682A6E42F480122A660A6812F0080F46
S315080216AC19D09A6892B2CD6A42EA05429A60DA6809
S315080216BC42F40032DA60DA6822F440220D6B2A43CD
S315080216CCDA6005686A6E42F480126A6605682A6DE3
S315080216DC42F080622A650A6812F0100F09D09A68DD
S315080216EC6FF30D028D692A439A60DA6842F08062BA
S315080216FCDA600A6812F0140220D0DA6842F08042E4
S3150802170CDA60BFF35F8FDA6842F00042DA60661C71
S3150802171C032E00D9E61E00EB86039B69DA68002ABB
S3150802172C01DB01220BE000EB8404A269BFF35F8F95
S3150802173CD36823F00043D360022029E1264602F13E
S3150802174C010EDCF800201A609A686FF30D02DCF8B9
S3150802175C04502A439A60DCF80820002A48D01568F7
S3150802176C5D609D68DFF82CC205EA0C0C55684CEADC
S3150802177C05459D600D6815F0100F41D0DD6825F4FE
S3150802178CF00C0D6A4CEAC545DD60DD68DFF808C267
S3150802179C05EA0C0CCD694CEA0505DD60DD6845F4F5
S315080217AC8025DD600D6815F0040F06D09D6825F4BA
S315080217BC404C8D6A4CEA05059D60DD6845F000557E
S315080217CCDD60DD6825F08045DD60BFF35F8FDD687F
S315080217DC45F00045DD600D6815F0020F06D0DD6890
S315080217EC25F0607CCD684CEA0505DD60002564E0D1
S315080217FC00225A609A686FF31D429A606246B9E7EC
S3150802180CDD68DFF898C105EA0C0C4D684CEA05054B
S3150802181CDD600D6815F0010F06D0DD6825F4403C35
S3150802182C4D694CEA0505DD600D6815F0200FB9D037
S3150802183CDD6825F0406C0D694CEA0505DD60B1E7FB
S3150802184C00EB84039969002204E000EB83018969A1
S3150802185C01321C4672450AD2BFF35F8FCB6823F05E
S3150802186C0043CB60631C032BEFD9E31EEDE7022082
S3150802187C8EE000225A609A686FF31D429A603A46C5
S3150802188C51E0DE686FF30E064F683E43DE600E6863
S3150802189C16F0010F05D0DE6826F440364F693E4332
S315080218ACDE600135BFF35F8FDE6846F00046DE6008
S315080218BCDE6826F08046DE6066469768002F41D0C1
S315080218CCDF6827F08057DF6006F1010CBCF1030FC5
S315080218DC01D9A6F1030C00EB8C039B69DE6826F092
S315080218EC0056DE60DE68002EAADB0CF1040600EB5D
S315080218FC8606F669002EA3D10EF1010E97683A6890
S3150802190C1A609E686FF30D067A6832439A60BA6853
S3150802191C002AAED016685E609E686FF31D4657683D
S3150802192C46EA07469E600E6816F0100FA9D0DE68C6
S3150802193C6FF31106CF693E43DE60DE6846F48026F5
S3150802194CDE60AEE7B8F1000F1AD09A6842F0004290
S3150802195C9A60DA6842F08052DA60C26B331D00EB89
S3150802196C8303DA618662EFF31082012383F310880C
S3150802197C036C2B440133036482F31088002007E0BE
S3150802198C9A6822F000429A60E3E7022000E00220FD
S3150802199CBDE8F081FFFF00C00000FCFF0080FFFFDE
S315080219ACD0F88430102B01D00120704710B50446AC
S315080219BC2023C0F884300423C366FFF7F5FB22689C
S315080219CC136843F0020313602268136843F0010399
S315080219DC13602268D2F8003D43F00103C2F8003DB9
S315080219EC236803F58053D3F8042142F00102C3F8A5
S315080219FC0421236803F58053D3F8082142F0010227
S31508021A0CC3F80821236803F58053D3F8602142F4FE
S31508021A1C8172C3F860214023C4F88430002010BDBB
S31508021A2CF8B5044631B11546D4F88430402B09D0A2
S31508021A3C0120F8BDD0F8883043F00103C0F888308D
S31508021A4C0120F6E700222046FFF700FE002837D1D0
S31508021A5CBFF34F8FA36A9A1D54F822605A1CA262CE
S31508021A6C032A01D9033BA362A26A2368063254F8F5
S31508021A7C222003F58053C3F82021FFF7CFFA074635
S31508021A8CF368002B32DA236803F58052D2F8602108
S31508021A9C12F4805F1CD1B5F1FF3FF1D0FFF7BEFA05
S31508021AACC01BA84201D8002DEAD1D4F8883043F0DD
S31508021ABC0403C4F888304FF04053F3600120B8E7AA
S31508021ACCD4F8883043F00203C4F888300120B0E712
S31508021ADCD4F8882042F00802C4F8882003F580530B
S31508021AECD3F86031C4F88C300120A2E70020A0E7B5
S31508021AFC2DE9F84F044691B18B46D0F88430402B29
S31508021B0C40F08580D0F85C8008F1120350F8235017
S31508021B1CC36EC3F1040A4FF000094F4625E0D0F80C
S31508021B2C883043F00103C0F88830012070E04FF08A
S31508021B3C0109B3B22A6904F1800104F17C0003F0AD
S31508021B4CDFFC236E01332366636E3344636600231C
S31508021B5C2B6108F10103032B01D9A8F1030303F145
S31508021B6C120254F8225001379846EB68002B39DBDF
S31508021B7C89F00103574535D2002B33D0EB6813F0A5
S31508021B8C005F02D1E36F002BE3D0EB6813F0005F22
S31508021B9C02D0002323666366EE68C6F30E06636EEE
S31508021BACF61AEB6813F0805FC3D0EB6823676B6891
S31508021BBC13F4804FBBD008F10103032B01D9A8F10A
S31508021BCC0303123354F82330DA6812F0804F06D026
S31508021BDC5A68A2671B6863674FF00109A9E74FF0B9
S31508021BEC0109A6E7E36E3B44E36633B9C4F85C80A5
S31508021BFCB9F1000F05D101200AE02046FFF7D4FA05
S31508021C0CF4E7E36FCBF800300020E06700E0012030
S31508021C1CBDE8F88F70B504461D460068D0F8003248
S31508021C2C13F0010F01D0012070BDD0F8003223F059
S31508021C3C787343EA415121F4F81343EA024242F01B
S31508021C4C0D02C0F80022FFF7E9F906462268D2F817
S31508021C5C001211F0010F07D0FFF7E0F9821BB2F55B
S31508021C6C7A7FF3D90120DFE7D2F804329BB22B60D4
S31508021C7C0020D9E738B504460068D0F8005215F0AA
S31508021C8C010F01D0012038BDD0F8000220F078707F
S31508021C9C40EA415121F4F81141EA024222F00C02BF
S31508021CAC42F005029BB20C49C1F80432C1F8002273
S31508021CBCFFF7B4F905462368D3F8003213F0010F7F
S31508021CCC07D0FFF7ABF9431BB3F57A7FF3D901209B
S31508021CDCD9E70020D7E700BF00800240002900F0B0
S31508021CECEE800268126802F00C02CA620268126876
S31508021CFCC2F3001281F828200268126802F0600208
S31508021D0C4A620268126802F48072B2FA82F25209C4
S31508021D1C81F8202002681268C2F34022CA77026848
S31508021D2C126802F48062B2FA82F252098A7702685F
S31508021D3C1268C2F3C0224A7702681268C2F30032EA
S31508021D4C0A770268126802F400528A6102681268FB
S31508021D5C02F480424A6102681268C2F300428A742B
S31508021D6C0268126802F40032B2FA82F252094A7412
S31508021D7C0268126802F40022B2FA82F252090A7452
S31508021D8C02681268C2F30052CA7302681268C2F376
S31508021D9C40528A7302681268C2F380524A73026806
S31508021DAC1268C2F3C0520A730268126802F0E06241
S31508021DBC8A6002681268C2F3C0620A710268126803
S31508021DCC02F0E0420A6002685268C2F30D024A63E4
S31508021DDC0268526802F48032B2FA82F2520981F827
S31508021DEC322002685268C2F3404281F831200268F6
S31508021DFC5268C2F3804281F8302002685268C2F3F4
S31508021E0C006281F8382002685268C2F34462CA63D7
S31508021E1C0268D268C2F3002281F840200268D268AE
S31508021E2C02F00F024A640268126FC2F3400281F88A
S31508021E3C54200268126F02F08002B2FA82F2520938
S31508021E4C81F84C200268126F02F070020A65026869
S31508021E5C126F120C8A640268D2F8902002F0010200
S31508021E6C81F856200268D2F89020C2F3400281F813
S31508021E7C55200268D2F8002D02F072028A650268B1
S31508021E8CD2F8302D02F02302CA650268D2F8302D38
S31508021E9CC2F3C00281F862200268D2F8302DC2F36E
S31508021EAC001281F861200268D2F8302D02F0400245
S31508021EBCB2FA82F2520981F860200020704701209A
S31508021ECC704751B108B5D0F88430102B01D00120D7
S31508021EDC08BDFFF7BBF90020FAE70120704700009E
S31508021EEC38B505460368D3F8004224F4706401F049
S31508021EFC75FB104B984205D844F400742B68C3F84A
S31508021F0C004238BD0C4B984202D244F44074F5E7B1
S31508021F1C0A4B9842F2D90A4B984202D844F4807476
S31508021F2CECE7084B984202D844F48064E6E744F49A
S31508021F3CA064E3E7BF0E160200879303FFE0F505DC
S31508021F4C7FD1F0087FB2E60E002800F0A78030B5E4
S31508021F5C83B00446D0F884309BB3514BD3F8F420A3
S31508021F6C42F00202C3F8F420D3F8F43003F0020369
S31508021F7C0193019B237A53BB0020FFF75BF8494B6D
S31508021F8C5B68236803F580531A6842F001021A60EB
S31508021F9CFFF744F80546236803F580531B6813F0CC
S31508021FAC010F19D0FFF73AF8401BB0F5FA7FF2D9B0
S31508021FBC0423C4F88830E023C4F88430012003B023
S31508021FCC30BD2023C0F88430FEF72EFEC5E74FF449
S31508021FDC0000FFF72FF8D2E72046FFF781FF01F042
S31508021FECFDFA314BA3FB00239B0C2268013BC2F87A
S31508021FFCDC302046FFF758FA226802F58052D2F8EE
S3150802200C003123F4E01343F40023C2F80031626969
S3150802201C12F0030F06D00120C4F88800E023C4F896
S3150802202C8430CCE7216801F58051D1F808316FF379
S3150802203C4E0343EA4203C1F808312046FFF7A2FAD7
S3150802204C2046FFF7CCFA636859791B79226843EA6A
S3150802205C0123C2F800336268D17893781B0443EAE9
S3150802206C0163517843EA0123117822680B43C2F8BB
S3150802207C04332268D2F80C170C4B0B43C2F80C37F4
S3150802208C2268D2F810170A4B0B43C2F810370020F5
S3150802209CC4F888001023C4F8843090E701207047EE
S315080220AC004402580004005883DE1B436000020CED
S315080220BC00C0200C30B4416B0468D4F884306F4AE3
S315080220CC134043EA8103C4F884300468D4F8843094
S315080220DC23F47F03856B43EA0543C4F88430836B88
S315080220EC0B440468D4F88810114041EA8301C4F8F9
S315080220FC88100468D4F8881021F4FE01C56B41EAED
S3150802210C0541C4F88810C16B03EB41030468D4F883
S3150802211CA010114041EA8301C4F8A0100468D4F84F
S3150802212CA01021F4FE01056C41EA0541C4F8A01081
S3150802213C016C446C04FB01330468D4F8B0101140EA
S3150802214C41EA8301C4F8B0100468D4F8B01021F43B
S3150802215CFE01856C41EA0541C4F8B010816CC46C69
S3150802216C04FB01330468D4F8AC10114041EA83012C
S3150802217CC4F8AC10016D446D04FB01330468D4F841
S3150802218CF010114041EA8301C4F8F0100468D4F83F
S3150802219CF01021F47C11856D41EA0541C4F8F01062
S315080221AC816D03EB41030468D4F8C0100A4042EA75
S315080221BC8303C4F8C0300268D2F8C03023F47C1307
S315080221CCC16D43EA0143C2F8C0300268D2F8C03086
S315080221DC23F07C53016E43EA0163C2F8C030436BA9
S315080221EC274A1A449200C266836B02EB830303677F
S315080221FCC16B03EBC1034367016C446C04FB01F12D
S3150802220C03EB81038367816CC46C04FB01F103EB5A
S3150802221C8103C367016D446D04FB01F103EB810372
S3150802222CC0F88030816D03EBC103C0F88430816E2F
S3150802223CC46D01FB04FC03EB8C03C0F88830046EF6
S3150802224C04FB01F103EB8103C0F890300D498B4274
S3150802225C0DD9D0F89C3043F02003C0F89C300323E8
S3150802226C80F89830012007E0002342F8043BD0F8A6
S3150802227C90309342F8D8002030BC70470300FFFF19
S3150802228C002B0010FCD3004030B595B004464C2206
S3150802229CA04901A804F09EFD002C00F038812368A1
S315080222AC9D4A934220D094F898300BB322689369CE
S315080222BC23F010039361FEF7B1FE054623689A696B
S315080222CC12F0080F1AD0FEF7A9FE431B0A2BF5D9F2
S315080222DCD4F89C3043F00103C4F89C30032384F8E9
S315080222EC9830012015B030BD03F580736360DAE7C8
S315080222FC84F899302046FEF735FDD7E79A6942F0FD
S3150802230C01029A61FEF78AFE054623689A6912F05B
S3150802231C010F0FD1FEF782FE401B0A28F5D9D4F815
S3150802232C9C3043F00103C4F89C30032384F898309C
S3150802233C0120D7E79A6942F002029A61237C012BA3
S3150802234C40D02268936943F040039361637C012B66
S3150802235C3ED02268936923F480439361A37C012BB4
S3150802236C3CD02268936943F480539361226893693B
S3150802237C23F44073A1680B4393612268936923F093
S3150802238CA40393612268136923F010031361E368AB
S3150802239C012B29D0002B2CD0022B00F09B80226813
S315080223AC936943F0800393612268136943F010031F
S315080223BC1361E368032B1CD12268936943F020034B
S315080223CC936116E02268936923F040039361BDE793
S315080223DC2268936943F480439361BFE72268936941
S315080223EC23F480539361C1E72268936943F004038B
S315080223FC9361A3695A1EE369013B1B0243EA4263D2
S3150802240C226A013A13436269013A216843EA024392
S3150802241CCB61A368B3F5407F62D0236E33B12268D1
S3150802242CD2F8C030616E0B43C2F8C030E36D226E2F
S3150802243CD3420DD02168D1F8C83023F00703A26E17
S3150802244C14A800EB820252F84C2C1343C1F8C8307C
S3150802245C236C6BB12168D1F8BC3023F00703626C8C
S3150802246C14A800EB820252F84C2C1343C1F8BC3068
S3150802247CA36C73B12168D1F8BC3023F07003E26CFB
S3150802248C14A800EB820252F84C2C43EA0213C1F848
S3150802249CBC30236D73B12168D1F8BC3023F4E063E8
S315080224AC626D14A800EB820252F84C2C43EA022302
S315080224BCC1F8BC302268184B9A4222D00023C4F8C1
S315080224CC9430C4F89C30012384F898302046FFF7E0
S315080224DCF1FD07E72268936943F02003936188E7C5
S315080224ECA36A013BE26A013A43EA0223226B013AE6
S315080224FC43EA0213626A013A216843EA0243CB6051
S3150802250C8BE76268936823F003039360D6E701208E
S3150802251CE8E600BF146E020800A0004090F8983056
S3150802252C013BDBB2012B07D9D0F89C3043F00203EE
S3150802253CC0F89C30012070470B68DBB9CB68072BB7
S3150802254C0ED08A68DB0643EA82730A6943EA0243B7
S3150802255C4A691343C26E496842F821300020704713
S3150802256C0A69CB691B0243EA02438A69134343F09D
S3150802257C6053EFE710B4CA680B6943EA4273072A39
S3150802258C0FD04A698C6842EA8472006F496800EB7C
S3150802259CC10C40F83130CCF8042000205DF8044B0D
S315080225AC70478A69F1E790F898C0BCF1010F07D019
S315080225BCD0F89C3043F00403C0F89C3001207047D5
S315080225CC920042EA011242EA43030168009A1A434C
S315080225DCC1F880200020704790F89830012B07D05C
S315080225ECD0F89C3043F00403C0F89C3001207047A5
S315080225FC022380F898300268936923F001039361E9
S3150802260C0023C0F89C3018467047000070B590F845
S3150802261C9840022C40F0E68040290CD0412941D042
S3150802262C046D8C4275D8D0F89C3043F02003C0F860
S3150802263C9C300120DDE00468D4F8A05015F4FE0F96
S3150802264C0CD0D4F8A45015F07F0F0FD1D0F89C30CB
S3150802265C43F48073C0F89C300120CAE0D0F89C3051
S3150802266C43F02003C0F89C300120C2E0D4F8A450F1
S3150802267CC5F30525D4F8A46016F0807F03D0D4F8E8
S3150802268CA060002E06DB446C05FB04F4466F06EBD1
S3150802269C840E45E00135D4F8A04005EA144505F048
S315080226AC7F05F0E70468D4F8B05015F4FE0F0CD089
S315080226BCD4F8B45015F07F0F0FD1D0F89C3043F4F0
S315080226CC8073C0F89C30012093E0D0F89C3043F01C
S315080226DC2003C0F89C3001208BE0D4F8B450C5F323
S315080226EC0525D4F8B46016F0807F03D0D4F8B06010
S315080226FC002E06DB866FC46C05FB04F406EB840E0F
S3150802270C0EE00135D4F8B04005EA144505F07F050C
S3150802271CF0E7C56F446D01FB04F405EB840E002546
S3150802272CDEF8004004F08044546064BBDEF80040D6
S3150802273CC4F38A441460DEF8004004F00054946032
S3150802274CDEF8004004F000441461BEF80440D4617B
S3150802275CBEF8064004F00F04D460DEF8044004F414
S3150802276C80145461DEF8044004F4001494619EF853
S3150802277C074004F07F041462DEF80440E40F546246
S3150802278C4FF0000C0CE0DEF8004024F060441460B4
S3150802279CD1E70EEB0C04247A03F80C400CF1010C6D
S315080227AC144CD668A45D6445F3D8402909D041294E
S315080227BC0CD01F290ED8026801238B40C2F8983018
S315080227CC02E00368C3F8A850002012E00368C3F8B5
S315080227DCB850F9E701F01F01026801238B40C2F8D1
S315080227EC9C30F1E7D0F89C3043F00803C0F89C30D3
S315080227FC012070BD706E0208402905D00368D3F813
S3150802280CB40000F07F0070470368D3F8A40000F008
S3150802281C7F007047F0B583B000236FE085685E00D1
S3150802282C0324B44025EA0405CC68B4402C438460DE
S3150802283C456825EA0C054C68C4F300149C402C43E5
S3150802284C44606EE08C68012C70D17EE0DD08083598
S3150802285C50F8254003F0070C4FEA8C0C4FF00F0E7C
S3150802286C0EFA0CFE24EA0E0E0C6904FA0CF444EA6F
S3150802287C0E0440F825406EE0092400E0002404FA10
S3150802288C0EF42C430CF1020C6A4D45F82C404FF011
S3150802289CB0442568D44325EA02064F6817F4801F0C
S315080228AC01D042EA05064FF0B0452E606D6804EA7F
S315080228BC05064F6817F4001F01D042EA05064FF0C9
S315080228CCB0456E60D5F8845004EA05064F6817F4CD
S315080228DC003F01D042EA05064FF0B045C5F88460C0
S315080228ECD5F880502C404E6816F4803F01D042EA47
S315080228FC05044FF0B042C2F8804001330A6832FA36
S3150802290C03F400F095804FF0010C0CFA03FC1CEA58
S3150802291C0202F2D04C6804F00304013C012C7FF647
S3150802292C7DAF4C6804F00304032C8BD0C4684FEAC1
S3150802293C430E4FF0030C0CFA0EFC24EA0C0C8C68B2
S3150802294C04FA0EF444EA0C04C4604C6804F003045A
S3150802295C022C3FF47BAF04684FEA430E4FF0030C8C
S3150802296C0CFA0EFC24EA0C0C4C6804F0030404FA68
S3150802297C0EF444EA0C0404604C6814F4403FBCD0D0
S3150802298C2D4CD4F8F45045F00205C4F8F450D4F89A
S3150802299CF44004F002040194019C4FEA930C0CF1E6
S315080229AC0205244C54F8255003F0030E4FEA8E0EFA
S315080229BC0F2404FA0EF425EA0405204CA0423FF42F
S315080229CC5DAF04F58064A04222D004F58064A0426F
S315080229DC20D004F58064A0421ED004F58064A0427F
S315080229EC1CD004F58064A0421AD004F58064A04277
S315080229FC18D004F58064A04216D004F58064A0426F
S31508022A0C14D004F58064A0423FF436AF0A2436E7A4
S31508022A1C012434E7022432E7032430E704242EE7A0
S31508022A2C05242CE706242AE7072428E7082426E7A0
S31508022A3C03B0F0BD000400580044025800000258C6
S31508022A4C0AB181617047090481617047134BDB68CF
S31508022A5C13F0040F07D1114BDB6803F0070383420B
S31508022A6C1AD00120704710B50C4AD36823F0070315
S31508022A7C0343D360FEF7D2FA0446084B5B6813F499
S31508022A8C005F07D1FEF7CAFA001BB0F57A7FF4D9B4
S31508022A9C012000E0002010BD0020704700480258B3
S31508022AAC002800F0398338B50446036813F0010F81
S31508022ABC25D0944A136903F03803926A102B15D061
S31508022ACC182B0FD06368B3F5803F3FD0002B53D138
S31508022ADC8C4B1A6822F480321A601A6822F4802205
S31508022AEC1A6038E002F00302022AEBD1854B1B6806
S31508022AFC13F4003F03D06368002B00F00F8323689E
S31508022B0C13F0020F00F0A1807E4A1369926A13F041
S31508022B1C38035AD0182B55D0E368002B00F0DE8008
S31508022B2C78490A6822F0190213430B60FEF776FA03
S31508022B3C0546744B1B6813F0040F40F0AD80FEF784
S31508022B4C6DFA401B0228F4D90320EEE26D4A13688B
S31508022B5C43F48033136063682BB3FEF75FFA0546BA
S31508022B6C684B1B6813F4003FC9D1FEF757FA401B92
S31508022B7C6428F5D90320D8E2B3F5A02F09D0614B06
S31508022B8C1A6822F480321A601A6822F480221A60B1
S31508022B9CE1E75C4B1A6842F480221A601A6842F41E
S31508022BAC80321A60D7E7FEF739FA0546554B1B6889
S31508022BBC13F4003FA3D0FEF731FA401B6428F5D96B
S31508022BCC0320B2E212F0030FA6D14E4B1B6813F088
S31508022BDC040F03D0E368002B00F0A282494A13685B
S31508022BEC23F01903E1680B431360FEF717FA05463F
S31508022BFC444B1B6813F0040F06D1FEF70FFA401B61
S31508022C0C0228F5D9032090E2FEF70EFA41F20303E5
S31508022C1C984212D82269402A07D03A494B6823F4BB
S31508022C2C7C3343EA02334B600FE0364A536823F48B
S31508022C3C7C3343F40033536007E0324A536823F07B
S31508022C4CFE43216943EA01635360236813F0100FAC
S31508022C5C00F088802B4A136903F03803926A082B12
S31508022C6C56D0182B50D0E369002B00F0B880254AB1
S31508022C7C136843F080031360FEF7D0F90546214B1F
S31508022C8C1B6813F4807F40F08880FEF7C7F9401B57
S31508022C9C0228F4D9032048E2FEF7C6F941F20303E7
S31508022CAC984212D82269402A07D016494B6823F44F
S31508022CBC7C3343EA02334B60C7E7124A536823F460
S31508022CCC7C3343F400335360BFE70E4A536823F050
S31508022CDCFE43216943EA01635360B6E7094A13685E
S31508022CEC23F001031360FEF799F90546054B1B6899
S31508022CFC13F0040FA9D0FEF791F9401B0228F5D957
S31508022D0C032012E20044025802F00302012AAAD155
S31508022D1CA14B1B6813F4807F03D0E369802B40F028
S31508022D2C0182FEF781F941F20303984212D8226A0C
S31508022D3C202A07D098494B6823F0F84343EA826362
S31508022D4C4B600FE0944A536823F0F84343F08043F0
S31508022D5C536007E0904AD36823F07C53216A43EA0E
S31508022D6C0163D360236813F0080F60D06369002BE4
S31508022D7C49D0894A536F43F001035367FEF74EF95C
S31508022D8C0546854B5B6F13F0020F50D1FEF746F9D9
S31508022D9C401B0228F5D90320C7E1FEF745F941F293
S31508022DAC0303984212D8226A202A07D07A494B681A
S31508022DBC23F0F84343EA82634B60D3E7764A5368B7
S31508022DCC23F0F84343F080435360CBE7724AD36847
S31508022DDC23F07C53216A43EA0163D360C2E76E4A45
S31508022DEC136823F080031360FEF718F905466A4B3D
S31508022DFC1B6813F4807FB5D0FEF710F9401B022826
S31508022E0CF5D9032091E1644A536F23F00103536702
S31508022E1CFEF704F90546604B5B6F13F0020F06D0FA
S31508022E2CFEF7FCF8401B0228F5D903207DE123683E
S31508022E3C13F0200F29D0A3699BB1574A136843F4A0
S31508022E4C80531360FEF7EAF80546534B1B6813F4D6
S31508022E5C005F1AD1FEF7E2F8401B0228F5D90320C7
S31508022E6C63E14D4A136823F480531360FEF7D6F8D0
S31508022E7C0546494B1B6813F4005F06D0FEF7CEF8DD
S31508022E8C401B0228F5D903204FE1236813F0040FDF
S31508022E9C21D1636A002B00F047813F4A126902F07E
S31508022EAC3802182A00F0EE80022B79D03A4A1368B7
S31508022EBC23F080731360FEF7B1F80446364B1B6891
S31508022ECC13F0007F00F0DC80FEF7A8F8001B02283E
S31508022EDCF4D9032029E1314A136843F48073136049
S31508022EECFEF79CF805462D4B1B6813F4807F06D11A
S31508022EFCFEF794F8401B6428F5D9032015E1A3685C
S31508022F0C012B0AD00BBB244B1A6F22F001021A674B
S31508022F1C1A6F22F004021A6704E01F4A136F43F071
S31508022F2C01031367A36833B3FEF778F805461A4B01
S31508022F3C1B6F13F0020FACD1FEF770F8401B41F26F
S31508022F4C88339842F3D90320EFE0052B09D0124BAC
S31508022F5C1A6F22F001021A671A6F22F004021A6714
S31508022F6CE0E70D4B1A6F42F004021A671A6F42F029
S31508022F7C01021A67D6E7FEF751F80546064B1B6F90
S31508022F8C13F0020F85D0FEF749F8401B41F288333D
S31508022F9C9842F3D90320C8E0004402580048025864
S31508022FAC694A136823F080731360FEF737F80546EF
S31508022FBC654B1B6813F0007F06D0FEF72FF8401BF3
S31508022FCC0228F5D90320B0E05F4B996A5F4A0A409A
S31508022FDCA16AE06A41EA00110A439A62226B013A33
S31508022FECC2F30802616B0139490289B20A43A16B21
S31508022FFC0139090401F4FE010A43E16B0139090698
S3150802300C01F0FE410A431A63DA6A22F00102DA6215
S3150802301C5A6B6FF3CF02A16C42EAC1025A63DA6A9F
S3150802302C22F00C02216C0A43DA62DA6A22F00202F4
S3150802303C616C0A43DA62DA6A42F48032DA62DA6A72
S3150802304C42F40032DA62DA6A42F48022DA62DA6A24
S3150802305C42F00102DA621A6842F080721A60FDF7CF
S3150802306CDDFF0446384B1B6813F0007F06D1FDF7CB
S3150802307CD5FF001B0228F5D9032056E0002054E0A0
S3150802308C002052E0304A916A106B012B4ED001F0A7
S3150802309C0303A26A93424BD1C1F30511E36A99421F
S315080230AC48D1C0F30802236B013B9A4244D1C0F3C0
S315080230BC4622636B013B9A4240D1C0F30642A36B8C
S315080230CC013B9A423CD1C0F30660E36B013B984242
S315080230DC38D11D4B5B6BC3F3CC03A26C9A4201D15C
S315080230EC002022E0184AD36A23F00103D362FDF7C3
S315080230FC95FF0546FDF792FFA842FBD0124A536B81
S3150802310C6FF3CF03A16C43EAC1035363D36A43F04B
S3150802311C0103D362002008E001207047012004E075
S3150802312C012002E0012000E0002038BD0120FCE766
S3150802313C0120FAE70120F8E70120F6E70120F4E777
S3150802314C0120F2E70120F0E7004402580CFCFFFFCD
S3150802315C754B1B6903F03803102B00F0DE80182B15
S3150802316C0FD0002B40F0DB806F4B1B6813F0200F3F
S3150802317C00F0D7806C4B1B68C3F3C1036B48D8406D
S3150802318C704710B4684B9A6A02F003029C6AC4F33D
S3150802319C0510D96A01F001015B6BC3F3CC0301FB81
S315080231AC03F307EE903AF8EE677A14F47C7F77D03D
S315080231BC012A4AD0022A76D0002A40F091805A4B2C
S315080231CC1B6813F0200F23D057490A68C2F3C102B1
S315080231DC564BD34007EE103AF8EE476A07EE100A3A
S315080231ECB8EE476A86EE867A0B6BC3F3080306EECD
S315080231FC903AF8EE666A9FED4E6A67EE867A76EE36
S3150802320CA77AF7EE006A77EEA67A27EE277A38E0DF
S3150802321C07EE100AF8EE476A9FED466A86EE267A9C
S3150802322C414B1B6BC3F3080306EE903AF8EE666A3B
S3150802323C9FED3F6A67EE867A76EEA77AF7EE006A14
S3150802324C77EEA67A27EE277A1BE007EE100AF8EE37
S3150802325C476A9FED396A86EE267A334B1B6BC3F3A4
S3150802326C080306EE903AF8EE666A9FED316A67EE47
S3150802327C867A76EEA77AF7EE006A77EEA67A27EEC4
S3150802328C277A294B1B6BC3F34623013307EE903A75
S3150802329CF8EE677AC7EE276AFCEEE67A17EE900A1C
S315080232AC5DF8044B704707EE100AF8EE476A9FED75
S315080232BC236A86EE267A1C4B1B6BC3F3080306EEAF
S315080232CC903AF8EE666A9FED1A6A67EE867A76EE99
S315080232DCA77AF7EE006A77EEA67A27EE277AD0E770
S315080232EC07EE100AF8EE476A9FED136A86EE267AFF
S315080232FC0D4B1B6BC3F3080306EE903AF8EE666A9F
S3150802330C9FED0B6A67EE867A76EEA77AF7EE006A77
S3150802331C77EEA67A27EE277AB3E709487047094863
S3150802332C70470248704700BF004402580090D00309
S3150802333C000000390024744C0024744A0024F44A10
S3150802334C00127A0000093D00002800F0328170B59F
S3150802335C0D4604469B4B1B6803F00F038B420BD29C
S3150802336C984A136823F00F030B431360136803F090
S3150802337C0F038B4240F01F81236813F0040F0CD005
S3150802338C2269914B9B6903F070039A4205D98E49BF
S3150802339C8B6923F070031A438A61236813F0080FAA
S315080233AC0CD06269884BDB6903F070039A4205D923
S315080233BC8549CB6923F070031A43CA61236813F053
S315080233CC100F0CD0A269804BDB6903F4E0639A42B6
S315080233DC05D97D49CB6923F4E0631A43CA6123688C
S315080233EC13F0200F0CD0E269774B1B6A03F07003BB
S315080233FC9A4205D974490B6A23F070031A430A6276
S3150802340C236813F0020F0CD0E2686F4B9B6903F02A
S3150802341C0F039A4205D96C498B6923F00F031A4399
S3150802342C8A61236813F0010F41D0674A936923F422
S3150802343C7063A1680B4393616368022B0AD0032B52
S3150802344C27D0012B2CD0604A126812F0040F06D131
S3150802345C0120ADE0126812F4003F00F0AE805A4922
S3150802346C0A6922F0070213430B61FDF7D7FD0646DC
S3150802347C554B1B6903F038036268B3EBC20F16D0BF
S3150802348CFDF7CCFD801B41F288339842F0D9032014
S3150802349C8EE04D4A126812F0007FE0D1012087E0D7
S315080234AC494A126812F4807FD9D1012080E0236838
S315080234BC13F0020F0CD0E268434B9B6903F00F031F
S315080234CC9A4205D240498B6923F00F031A438A6143
S315080234DC3C4B1B6803F00F03AB420AD9394A1368F3
S315080234EC23F00F032B431360136803F00F03AB424D
S315080234FC65D1236813F0040F0CD02269324B9B69F1
S3150802350C03F070039A4205D22F498B6923F0700394
S3150802351C1A438A61236813F0080F0CD062692A4B86
S3150802352CDB6903F070039A4205D22749CB6923F06B
S3150802353C70031A43CA61236813F0100F0CD0A269E0
S3150802354C214BDB6903F4E0639A4205D21E49CB6927
S3150802355C23F4E0631A43CA61236813F0200F0CD0D4
S3150802356CE269194B1B6A03F070039A4205D2164993
S3150802357C0B6A23F070031A430A62FFF7E9FD124934
S3150802358C8B69C3F30323114AD35C03F01F03D84098
S3150802359C8B6903F00F03D35C03F01F0320FA03F3C2
S315080235AC0B4A13600B4B18600B4B1868FDF7D4FCCF
S315080235BC70BD012070470120FAE70120F8E70120C7
S315080235CCF6E700BF0020005200440258606E02085B
S315080235DC40000024440000244C00002408B5FFF7E0
S315080235ECB7FD0B4A9369C3F303230A49CB5C03F071
S315080235FC1F0320FA03F3926902F00F02885C00F0AB
S3150802360C1F0023FA00F0044A1060044A136008BD2E
S3150802361C00440258606E020840000024440000244C
S3150802362C08B5FFF7DBFF054BDB69C3F30213044A44
S3150802363CD35C03F01F03D84008BD00BF00440258F0
S3150802364C606E0208404B9B6A03F00303032B79D086
S3150802365C70B505460E463C4A136823F08063136020
S3150802366CFDF7DCFC0446384B1B6813F0006F06D0DA
S3150802367CFDF7D4FC031B022BF5D9032070BD324B84
S3150802368C9A6A22F47C32296842EA01329A626A6898
S3150802369C013AC2F30802A9680139490289B20A43F6
S315080236ACE9680139090401F4FE010A432969013959
S315080236BC090601F0FE410A439A63DA6A22F0C0024D
S315080236CC69690A43DA62DA6A22F02002A9690A43AC
S315080236DCDA62DA6A22F01002DA62DA6B6FF3CF0276
S315080236ECE96942EAC102DA63DA6A42F01002DA627C
S315080236FCC6B91A46DB6A43F40023D362124A136824
S3150802370C43F080631360FDF789FC04460E4B1B6875
S3150802371C13F0006F14D1FDF781FC001B0228F5D9B2
S3150802372C0320ABE7012E05D0074AD36A43F40013EC
S3150802373CD362E3E7044AD36A43F48013D362DDE720
S3150802374C00209BE70120704700440258404B9B6AB5
S3150802375C03F00303032B79D070B505460E463C4A93
S3150802376C136823F080531360FDF758FC0446384B54
S3150802377C1B6813F0005F06D0FDF750FC031B022BE7
S3150802378CF5D9032070BD324B9A6A22F07C722968ED
S3150802379C42EA01529A626A68013AC2F30802A968B5
S315080237AC0139490289B20A43E9680139090401F463
S315080237BCFE010A4329690139090601F0FE410A4349
S315080237CC1A64DA6A22F4406269690A43DA62DA6AC4
S315080237DC22F40072A9690A43DA62DA6A22F480725E
S315080237ECDA625A6C6FF3CF02E96942EAC1025A6489
S315080237FCDA6A42F48072DA62C6B91A46DB6A43F4AA
S3150802380C8003D362124A136843F080531360FDF7A0
S3150802381C05FC04460E4B1B6813F0005F14D1FDF72A
S3150802382CFDFB001B0228F5D90320ABE7012E05D0B8
S3150802383C074AD36A43F08073D362E3E7044AD36A2E
S3150802384C43F40003D362DDE700209BE701207047AF
S3150802385C00440258F8B50446036813F0006F30D0DA
S3150802386C836EB3F5001F26D00ED8ABB1B3F5801F05
S3150802387C07D102210830FFF7E5FE054695B12E461B
S3150802388C21E0012635461EE0B3F5401F01D100257D
S3150802389C08E00126354616E09A4AD36A43F4003301
S315080238ACD3620025974A136D23F44013A16E0B437A
S315080238BC1365002607E002212830FFF747FF054665
S315080238CCDCE700263546236813F4807F14D0A36DF3
S315080238DC042B31D8DFE803F0032229080800894AA9
S315080238ECD36A43F40033D3624DBB864A136D23F075
S315080238FC0703A16D0B431365236813F4007F3FD0AE
S3150802390CE36D802B2ED01FD833B3402B19D100214F
S3150802391C04F10800FFF796FE054629E0002104F19A
S3150802392C0800FFF78FFE0546DEE7002104F12800A2
S3150802393CFFF70CFF0546D7E701263546DCE72E4688
S3150802394CDAE7012635461BE0C02B11D0B3F5807F8A
S3150802395C0ED00126354613E06A4AD36A43F400337D
S3150802396CD36205E0002104F12800FFF7EFFE0546B5
S3150802397CDDB9644A136D23F4E073E16D0B431365E9
S3150802398C236813F4806F33D0D4F8A830B3F5800FBC
S3150802399C1FD00FD8BBB1B3F5001F08D1002104F113
S315080239AC0800FFF74FFE054619E02E46E8E7012602
S315080239BC35461DE0B3F5C00F11D0B3F5000F0ED086
S315080239CC0126354614E04F4AD36A43F40033D362D0
S315080239DC05E0002104F12800FFF7B8FE0546E5B913
S315080239EC484A936D23F46003D4F8A8100B439365E5
S315080239FC236813F4006F34D0D4F8AC30B3F1007FDB
S31508023A0C1FD00FD8BBB1B3F1807F08D1002104F1C6
S31508023A1C0800FFF717FE054619E02E46E8E70126C9
S31508023A2C35461EE0B3F1407F11D0B3F1806F0ED04C
S31508023A3C0126354615E0334AD36A43F40033D3627A
S31508023A4C05E0002104F12800FFF780FE0546002D4B
S31508023A5C33D12C4A936D23F0E063D4F8AC100B43A4
S31508023A6C9365236813F0007F13D0E36C202B2ED0BA
S31508023A7C28D833B1102B22D1224AD36A43F4003305
S31508023A8CD3625DBB1F4AD36C23F03003E16C0B4344
S31508023A9CD364236813F4805F46D0236EB3F5005FB4
S31508023AAC32D020D843B3B3F5805F19D1002104F183
S31508023ABC0800FFF7C7FD05462CE02E46D1E701267E
S31508023ACC3546E6E7302BDCD001263546E1E70221FE
S31508023ADC04F10800FFF7B6FD0546D2E72E46D8E7ED
S31508023AEC0126354620E0B3F5405F13D0B3F5804F77
S31508023AFC10D00126354617E0024AD36A43F400333E
S31508023B0CD36207E000440258002104F12800FFF7AB
S31508023B1C1DFE05463DB9704A136D23F4E043216E2A
S31508023B2C0B43136500E02E46236813F4005F17D087
S31508023B3C636EB3F5003F4FD042D843B1B3F5803F1D
S31508023B4C3BD1012104F10800FFF77CFD0546002D47
S31508023B5C49D1614A136D23F4E023616E0B43136555
S31508023B6C236813F4804F19D0D4F8B030B3F1005F40
S31508023B7C4AD03DD843B1B3F1805F36D1012104F165
S31508023B8C0800FFF75FFD0546002D44D1524A936D96
S31508023B9C23F0E043D4F8B0100B439365236813F46F
S31508023BAC004F47D0236FB3F1805F36D0B3F1005F75
S31508023BBC4BD0BBB3012635463CE001263546CFE74A
S31508023BCCB3F5802FC3D0B3F5A02FC0D0B3F5403FC1
S31508023BDCBDD001263546C3E7012104F12800FFF7BB
S31508023BECB5FD0546B3E72E46BAE701263546D5E7AF
S31508023BFCB3F1804FC8D0B3F1A04FC5D0B3F1405F33
S31508023C0CC2D001263546C9E7012104F12800FFF77F
S31508023C1C9DFD0546B8E72E46C0E72F4AD36A43F4FC
S31508023C2C0033D362C5B92C4A136D23F04053216F66
S31508023C3C0B431365236813F0807F1CD0A36C032BEC
S31508023C4C44D8DFE803F0100B3C10012104F10800FC
S31508023C5CFFF7F8FC0546E5E72E46EBE71E4AD36A5C
S31508023C6C43F40033D362A5BB1B4AD36C23F003037C
S31508023C7CA16C0B43D364236813F4800F2ED12368EB
S31508023C8C13F0010F00F0A680E36F282B00F2A08038
S31508023C9CDFE803F08E9E9E9E9E9E9E9E889E9E9E0C
S31508023CAC9E9E9E9E979E9E9E9E9E9E9E8E9E9E9E2F
S31508023CBC9E9E9E9E8E9E9E9E9E9E9E9E8E000221DF
S31508023CCC04F10800FFF7BEFC0546CCE7012635468B
S31508023CDCD1E72E46CFE700BF004402585A4A13686A
S31508023CEC43F480731360FDF799F90746564B1B6824
S31508023CFC13F4807F05D1FDF791F9C01B6428F5D919
S31508023D0C0325002D4AD1514B1B6FD4F8B4205340CE
S31508023D1C13F4407F0CD04D4B1A6F22F44072196F74
S31508023D2C41F480311967196F21F4803119671A67C2
S31508023D3CD4F8B430B3F5807F15D08DBBD4F8B43033
S31508023D4C03F44072B2F5407F1ED0404A136923F43D
S31508023D5C7C5313613D490B6FD4F8B420C2F30B02A2
S31508023D6C13430B678BE7FDF759F90746374B1B6F5E
S31508023D7C13F0020FE1D1FDF751F9C01B41F288335A
S31508023D8C9842F3D90325D8E73048026922F47C52C3
S31508023D9C2F4901EA131313430361DBE72E466EE739
S31508023DAC2E466CE7012104F10800FFF74BFC054689
S31508023DBCE5B9264A536D23F03803E16F0B43536575
S31508023DCC08E0012104F12800FFF7C0FC0546EFE7DD
S31508023DDC01263546236813F0020F17D0A36F052B5D
S31508023DEC2CD8DFE803F00B05240B0B0B2E46F1E758
S31508023DFC012104F10800FFF725FC05460DBB134A01
S31508023E0C536D23F00703A16F0B435365236813F015
S31508023E1C040F30D0D4F89430052B00F20F81DFE86A
S31508023E2C13F01F00190006011F001F001F000121B5
S31508023E3C04F12800FFF78AFC0546DFE7012635461A
S31508023E4CE4E72E46E2E700BF00480258004402584F
S31508023E5CCFFFFF00012104F10800FFF7F3FB05462B
S31508023E6C002D40F0EE80B64A936D23F00703D4F882
S31508023E7C94100B439365236813F0200F1DD0D4F8C6
S31508023E8C9030B3F1005F00F0F08000F2DF804BB1A6
S31508023E9CB3F1805F40F0D780002104F10800FFF7E8
S31508023EACD1FB0546002D40F0E780A54A536D23F059
S31508023EBCE043D4F890100B435365236813F0400F74
S31508023ECC1DD0D4F89C30B3F5006F00F0E98000F2EF
S31508023EDCD8804BB1B3F5806F40F0D080002104F145
S31508023EEC0800FFF7AFFB0546002D40F0E080944A28
S31508023EFC936D23F4E053D4F89C100B439365236813
S31508023F0C13F0800F1DD0D4F8A030B3F5804F00F013
S31508023F1CE28000F2D1804BB1B3F5005F40F0C98064
S31508023F2C002104F10800FFF78DFB0546002D40F031
S31508023F3CD980834A936D23F46043D4F8A0100B43BB
S31508023F4C9365236813F0080F0DD0D4F88430B3F5B3
S31508023F5C805F00F0C9807A4A536D23F44053D4F833
S31508023F6C84100B435365236813F0100F0DD0D4F845
S31508023F7C9830B3F5807F00F0C180714A936D23F4B3
S31508023F8C4073D4F898100B439365236813F4002FE7
S31508023F9C1CD0D4F8A430B3F5803F00F0B980B3F541
S31508023FAC003F08D0002B40F0BA80002104F108002B
S31508023FBCFFF748FB0546002D40F0B480604A936D26
S31508023FCC23F44033D4F8A4100B439365236813F4F3
S31508023FDC802F1CD0D4F88830B3F5001F00F0A480CB
S31508023FECB3F5401F08D0B3F5801F40F0A480544A9D
S31508023FFCD36A43F40033D362002D40F09F80504AB3
S3150802400C536D23F44013D4F888100B435365236875
S3150802401C13F4803F00F0AC80236D002B00F09280E5
S3150802402CB3F5803F00F09C8001263546A0E00121BD
S3150802403C04F12800FFF78AFB054611E701263546E7
S3150802404C19E72E4617E70126354636E7B3F1804FB0
S3150802405C3FF428AFB3F1A04F3FF424AFB3F1405F5E
S3150802406C3FF420AF0126354627E7022104F1280042
S3150802407CFFF76CFB054615E72E461EE70126354665
S3150802408C3DE7B3F5805F3FF42FAFB3F5A05F3FF47E
S3150802409C2BAFB3F5406F3FF427AF012635462EE713
S315080240AC022104F12800FFF751FB05461CE72E46B0
S315080240BC25E70126354644E7B3F5004F3FF436AFFC
S315080240CCB3F5204F3FF432AFB3F5C04F3FF42EAFE2
S315080240DC0126354635E7022104F12800FFF736FB9F
S315080240EC054623E72E462CE7022104F12800FFF7A2
S315080240FC2DFB00283FF42FAF01262CE7022104F1F1
S3150802410C2800FFF723FB00283FF437AF012634E7D4
S3150802411C022104F12800FFF719FB05464BE7012695
S3150802412C354653E72E4651E7012104F12800FFF7DD
S3150802413C0DFB054660E70126354668E72E4666E717
S3150802414C00440258704AD36A43F40033D36275B9F1
S3150802415C6D4AD36C23F48033216D0B43D36407E089
S3150802416C022104F10800FFF76DFA0546EFE72E4621
S3150802417C236813F0005F11D1236813F4003F28D08B
S3150802418CD4F88030B3F5807F14D010D9B3F5007FFC
S3150802419C15D0B3F5407F12D001261AE0022104F19C
S315080241AC2800FFF7D3FA0028E6D00126E4E733B154
S315080241BC01260EE0544AD36A43F40033D362002D27
S315080241CC69D1514A536D23F44073D4F880100B43CA
S315080241DC5365236813F4801F06D04B4A136D23F0DC
S315080241EC0043616F0B431365236813F0805F07D096
S315080241FC454A136923F48043D4F8B8100B43136168
S3150802420C236813F4001F06D03F4A136D23F08073FC
S3150802421CE16E0B431365236813F0804F09D03A4BB2
S3150802422C1A6922F400421A611A69D4F8BC100A43B4
S3150802423C1A612368002B06DA334AD36C23F04053EF
S3150802424C616D0B43D364236813F4000F07D02E4A0F
S3150802425C536D23F44003D4F88C100B4353656368EF
S3150802426C13F0010F19D1636813F0020F1ED163689C
S3150802427C13F0040F23D1636813F0080F28D163686F
S3150802428C13F0100F2DD1636813F0200F32D106B13B
S3150802429C01263046F8BD2E469BE7002104F108009C
S315080242ACFFF7D0F90028DED00646DCE7012104F137
S315080242BC0800FFF7C7F90028D9D00646D7E7022126
S315080242CC04F10800FFF7BEF90028D4D00646D2E757
S315080242DC002104F12800FFF739FA0028CFD0064648
S315080242ECCDE7012104F12800FFF730FA0028CAD0DD
S315080242FC0646C8E7022104F12800FFF727FA002828
S3150802430CC5D00126C5E700BF0044025808B5FFF719
S3150802431C65F9054B1B6AC3F30213044AD35C03F013
S3150802432C1F03D84008BD00BF00440258606E02083D
S3150802433C10B4794B9A6A9C6AC4F3053CD96AC1F3E0
S3150802434C0011DB6BC3F3CC0301FB03F314F47C3FC0
S3150802435C00F0DD8002F0030207EE903AF8EE677A77
S3150802436C012A4BD0022A00F09880002A40F0B2802B
S3150802437C694B1B6813F0200F23D067490A68C2F3EE
S3150802438CC102664BD34007EE103AF8EE476A07EEBF
S3150802439C10CAB8EE476A86EE867A8B6BC3F30803A5
S315080243AC06EE903AF8EE666A9FED5D6A67EE867AD5
S315080243BC76EEA77AF7EE006A77EEA67A27EE277AD2
S315080243CC38E007EE10CAF8EE476A9FED566A86EE93
S315080243DC267A514B9B6BC3F3080306EE903AF8EE1A
S315080243EC666A9FED4F6A67EE867A76EEA77AF7EEDD
S315080243FC006A77EEA67A27EE277A1BE007EE10CA32
S3150802440CF8EE476A9FED486A86EE267A424B9B6B14
S3150802441CC3F3080306EE903AF8EE666A9FED406A15
S3150802442C67EE867A76EEA77AF7EE006A77EEA67AC2
S3150802443C27EE277A384A936BC3F3462307EE903A4C
S3150802444CF8EE677AF7EE006A77EEA67A87EE276AAF
S3150802445CBCEEC66A80ED006A936BC3F3064307EE9D
S3150802446C903AF8EE677A77EEA67A87EE276ABCEE6A
S3150802447CC66A80ED016A936BC3F3066307EE903A3C
S3150802448CF8EE677A77EEA67AC7EE276AFCEEE66A44
S3150802449CC0ED026A5DF8044B704707EE10CAF8EED7
S315080244AC476A9FED226A86EE267A1B4B9B6BC3F3F1
S315080244BC080306EE903AF8EE666A9FED196A67EEFD
S315080244CC867A76EEA77AF7EE006A77EEA67A27EE62
S315080244DC277AAFE707EE10CAF8EE476A9FED126A1B
S315080244EC86EE267A0C4B9B6BC3F3080306EE903AC0
S315080244FCF8EE666A9FED0A6A67EE867A76EEA77A10
S3150802450CF7EE006A77EEA67A27EE277A92E7002369
S3150802451C036043608360BDE7004402580090D003F1
S3150802452C000000390024744C0024744A0024F44A0E
S3150802453C10B4794B9A6A9C6AC4F3055CD96AC1F3BE
S3150802454C00215B6CC3F3CC0301FB03F314F07C7FF1
S3150802455C00F0DD8002F0030207EE903AF8EE677A75
S3150802456C012A4BD0022A00F09880002A40F0B28029
S3150802457C694B1B6813F0200F23D067490A68C2F3EC
S3150802458CC102664BD34007EE103AF8EE476A07EEBD
S3150802459C10CAB8EE476A86EE867A0B6CC3F3080322
S315080245AC06EE903AF8EE666A9FED5D6A67EE867AD3
S315080245BC76EEA77AF7EE006A77EEA67A27EE277AD0
S315080245CC38E007EE10CAF8EE476A9FED566A86EE91
S315080245DC267A514B1B6CC3F3080306EE903AF8EE97
S315080245EC666A9FED4F6A67EE867A76EEA77AF7EEDB
S315080245FC006A77EEA67A27EE277A1BE007EE10CA30
S3150802460CF8EE476A9FED486A86EE267A424B1B6C91
S3150802461CC3F3080306EE903AF8EE666A9FED406A13
S3150802462C67EE867A76EEA77AF7EE006A77EEA67AC0
S3150802463C27EE277A384A136CC3F3462307EE903AC9
S3150802464CF8EE677AF7EE006A77EEA67A87EE276AAD
S3150802465CBCEEC66A80ED006A136CC3F3064307EE1A
S3150802466C903AF8EE677A77EEA67A87EE276ABCEE68
S3150802467CC66A80ED016A136CC3F3066307EE903AB9
S3150802468CF8EE677A77EEA67AC7EE276AFCEEE66A42
S3150802469CC0ED026A5DF8044B704707EE10CAF8EED5
S315080246AC476A9FED226A86EE267A1B4B1B6CC3F36E
S315080246BC080306EE903AF8EE666A9FED196A67EEFB
S315080246CC867A76EEA77AF7EE006A77EEA67A27EE60
S315080246DC277AAFE707EE10CAF8EE476A9FED126A19
S315080246EC86EE267A0C4B1B6CC3F3080306EE903A3D
S315080246FCF8EE666A9FED0A6A67EE867A76EEA77A0E
S3150802470CF7EE006A77EEA67A27EE277A92E7002367
S3150802471C036043608360BDE7004402580090D003EF
S3150802472C000000390024744C0024744A0024F44A0C
S3150802473C10B4794B9A6A9C6AC4F3051CD96A01F0BF
S3150802474C01015B6BC3F3CC0301FB03F314F47C7F0B
S3150802475C00F0DD8002F0030207EE903AF8EE677A73
S3150802476C012A4BD0022A00F09880002A40F0B28027
S3150802477C694B1B6813F0200F23D067490A68C2F3EA
S3150802478CC102664BD34007EE103AF8EE476A07EEBB
S3150802479C10CAB8EE476A86EE867A0B6BC3F3080321
S315080247AC06EE903AF8EE666A9FED5D6A67EE867AD1
S315080247BC76EEA77AF7EE006A77EEA67A27EE277ACE
S315080247CC38E007EE10CAF8EE476A9FED566A86EE8F
S315080247DC267A514B1B6BC3F3080306EE903AF8EE96
S315080247EC666A9FED4F6A67EE867A76EEA77AF7EED9
S315080247FC006A77EEA67A27EE277A1BE007EE10CA2E
S3150802480CF8EE476A9FED486A86EE267A424B1B6B90
S3150802481CC3F3080306EE903AF8EE666A9FED406A11
S3150802482C67EE867A76EEA77AF7EE006A77EEA67ABE
S3150802483C27EE277A384A136BC3F3462307EE903AC8
S3150802484CF8EE677AF7EE006A77EEA67A87EE276AAB
S3150802485CBCEEC66A80ED006A136BC3F3064307EE19
S3150802486C903AF8EE677A77EEA67A87EE276ABCEE66
S3150802487CC66A80ED016A136BC3F3066307EE903AB8
S3150802488CF8EE677A77EEA67AC7EE276AFCEEE66A40
S3150802489CC0ED026A5DF8044B704707EE10CAF8EED3
S315080248AC476A9FED226A86EE267A1B4B1B6BC3F36D
S315080248BC080306EE903AF8EE666A9FED196A67EEF9
S315080248CC867A76EEA77AF7EE006A77EEA67A27EE5E
S315080248DC277AAFE707EE10CAF8EE476A9FED116A18
S315080248EC86EE267A0C4B1B6BC3F3080306EE903A3C
S315080248FCF8EE666A9FED0A6A67EE867A76EEA77A0C
S3150802490CF7EE006A77EEA67A27EE277A92E7002365
S3150802491C036043608360BDE7004402580090D003ED
S3150802492C000000390024744C0024744A0024F44A0A
S3150802493C00B58BB0A0F580730B432DD0A0F5007390
S3150802494C0B437BD0A0F580630B4300F0CF80A0F518
S3150802495C00630B4300F02781A0F580530B4300F04C
S3150802496C8781A0F500530B4300F0DF81A0F50023E5
S3150802497C0B4300F02882A0F580330B4300F06B82C0
S3150802498CA0F580430B4300F08D82A0F50040084346
S3150802499C00F0D68200200CE0934B1B6D03F0070344
S315080249AC042B00F2F782DFE803F006101A03240040
S315080249BC8E480BB000BD8C4B186810F00070F8D0FE
S315080249CC07A8FFF7B5FE0898F3E7874B186810F0A7
S315080249DC0060EED004A8FFF7ABFC0498E9E7824B1B
S315080249EC186810F00050E4D001A8FFF7A1FD019851
S315080249FCDFE77D4AD36C03F04053126812F0040FBA
S31508024A0C07D033B9784B1B68C3F3C1037848D8402F
S31508024A1CCFE7754A126812F4807F03D0B3F1805F30
S31508024A2C00F0BA82704A126812F4003F00F0B6829D
S31508024A3CB3F1005F00F0B4820020BAE76A4B1B6D33
S31508024A4C03F4E073802B31D015D9C02B00F0AA825F
S31508024A5CB3F5807F1ED1644AD36C03F040531268B7
S31508024A6C12F0040F2DD063BB5F4B1B68C3F3C10353
S31508024A7C5F48D8409DE77BB1402B09D15A4B186841
S31508024A8C10F0006095D004A8FFF752FC049890E742
S31508024A9C00208EE700208CE7534B186810F0007044
S31508024AAC87D007A8FFF744FE089882E74E4B18688A
S31508024ABC10F000503FF47DAF01A8FFF739FD0198BD
S31508024ACC77E7494A126812F4807F03D0B3F1805F04
S31508024ADC00F06A82444A126812F4003F00F06682B9
S31508024AECB3F1005F00F06482002062E73E4B9B6DD7
S31508024AFC03F46003B3F5800F35D016D9B3F5C00F9E
S31508024B0C00F05882B3F5000F20D1374AD36C03F064
S31508024B1C4053126812F0040F30D07BBB324B1B6821
S31508024B2CC3F3C1033248D84043E78BB1B3F5001F30
S31508024B3C0AD12D4B186810F000603FF43AAF04A85E
S31508024B4CFFF7F6FB049834E7002032E7002030E73B
S31508024B5C254B186810F000703FF42BAF07A8FFF727
S31508024B6CE7FD089825E7204B186810F000503FF42B
S31508024B7C20AF01A8FFF7DCFC01981AE71A4A12685B
S31508024B8C12F4807F03D0B3F1805F00F01582164AC7
S31508024B9C126812F4003F00F01182B3F1005F00F0C4
S31508024BAC0F82002005E7104B9B6D03F0E063B3F10F
S31508024BBC007F3DD01ED9B3F1407F00F00382B3F1DA
S31508024BCC806F28D1084AD36C03F04053126812F04E
S31508024BDC040F38D0002B36D1034B1B68C3F3C10321
S31508024BEC0348D840E5E600BF004402580080BB00E3
S31508024BFC0090D0038BB1B3F1807F0AD19A4B186817
S31508024C0C10F000603FF4D5AE04A8FFF791FB0498A8
S31508024C1CCFE60020CDE60020CBE6934B186810F0C1
S31508024C2C00703FF4C6AE07A8FFF782FD0898C0E6E7
S31508024C3C8D4B186810F000503FF4BBAE01A8FFF775
S31508024C4C77FC0198B5E6884A126812F4807F03D07D
S31508024C5CB3F1805F00F0B881834A126812F4003F00
S31508024C6C00F0B481B3F1005F00F0B2810020A0E637
S31508024C7C7D4B1B6D03F4E043B3F5005F35D016D9B3
S31508024C8CB3F5405F00F0A681B3F5804F20D1764A82
S31508024C9CD36C03F04053126812F0040F30D07BBB6E
S31508024CAC714B1B68C3F3C1037048D84081E68BB1BC
S31508024CBCB3F5805F0AD16C4B186810F000603FF4AC
S31508024CCC78AE04A8FFF734FB049872E6002070E667
S31508024CDC00206EE6644B186810F000703FF469AE5B
S31508024CEC07A8FFF725FD089863E65F4B186810F0CE
S31508024CFC00503FF45EAE01A8FFF71AFC019858E67D
S31508024D0C594A126812F4807F03D0B3F1805F00F01F
S31508024D1C6381554A126812F4003F00F05F81B3F1C1
S31508024D2C005F00F05D81002043E64F4B1B6D03F4D8
S31508024D3CE023B3F5403F32D00BD8B3F5803F18D0F9
S31508024D4CB3F5003F20D013B9FEF76AFC31E6002012
S31508024D5C2FE6B3F5802F2ED0B3F5A02F07D1424BF1
S31508024D6C186810F400303FF424AE414821E60020BE
S31508024D7C1FE63D4B186810F000603FF41AAE04A803
S31508024D8CFFF7D6FA059814E6374B186810F0005058
S31508024D9C3FF40FAE01A8FFF7CBFB029809E6324B9C
S31508024DAC186810F004003FF404AE1B68C3F3C10381
S31508024DBC2E48D840FDE52C4B186810F480703FF449
S31508024DCCF8AD2C48F5E5284B9B6D03F44033B3F547
S31508024DDC803F10D0B3F5003F18D0002B40F002816B
S31508024DEC214B186810F000603FF4E3AD04A8FFF7F6
S31508024DFC9FFA0498DDE51C4B186810F000503FF436
S31508024E0CD8AD01A8FFF794FB0398D2E5164AD36CE2
S31508024E1C03F04053126812F0040F07D033B9124B41
S31508024E2C1B68C3F3C1031148D840C2E50E4A12687F
S31508024E3C12F4807F03D0B3F1805F00F0D5800A4A62
S31508024E4C126812F4003F00F0D180B3F1005F00F053
S31508024E5CCF800020ADE5044BDB6C13F480330BD00A
S31508024E6CABB90020A5E500BF004402580090D00358
S31508024E7C00127A0000093D005F4B186810F00070AA
S31508024E8C3FF497AD07A8FFF753FC089891E55A4BE0
S31508024E9C186810F000603FF48CAD04A8FFF748FAC6
S31508024EAC069886E5544B9B6D03F0E043B3F1405FDD
S31508024EBC32D00BD8B3F1805F18D0B3F1005F20D093
S31508024ECC13B9FFF723FA74E5002072E5B3F1804FA4
S31508024EDC2ED0B3F1A04F07D1474B186810F4003007
S31508024EEC3FF467AD454864E5002062E5424B186815
S31508024EFC10F000603FF45DAD04A8FFF719FA0598A7
S31508024F0C57E53D4B186810F000503FF452AD01A816
S31508024F1CFFF70EFB02984CE5374B186810F00400A5
S31508024F2C3FF447AD1B68C3F3C1033548D84040E587
S31508024F3C314B186810F480703FF43BAD314838E5B4
S31508024F4C2D4B1B6D03F04053B3F1805F0CD0B3F1BC
S31508024F5C005F14D0002B4DD1274B186810F4003083
S31508024F6C3FF427AD254824E5234B186810F000704A
S31508024F7C3FF41FAD07A8FFF7DBFB089819E51E4B94
S31508024F8C186810F000603FF414AD04A8FFF7D0F9C6
S31508024F9C05980EE500200CE51A480AE5002008E5F6
S31508024FAC164806E5184804E5164802E5002000E509
S31508024FBC1248FEE41448FCE41248FAE40020F8E429
S31508024FCC0E48F6E41048F4E40E48F2E40020F0E445
S31508024FDC0A48EEE40C48ECE40A48EAE40020E8E461
S31508024FEC0648E6E40020E4E40648E2E40020E0E4AD
S31508024FFC0248DEE40020DCE40044025800127A007F
S3150802500C0090D00300093D000080BB0008B5FBF7F1
S3150802501C78FC08BD88B1CA6892B18A689AB10A69DD
S3150802502CA2B10A6882604A68C260CA6842618A6822
S3150802503C02610A698261002070474FF0FF3070479F
S3150802504C4FF0FF3070474FF0FF3070474FF0FF308C
S3150802505C704770B582B00546002301934468002C4C
S3150802506C4AD1836803B1984720232B60002602E0B5
S3150802507C6FF0040601341F2C0DD86B6901AA122194
S3150802508C204698470028F3DB019B03F01F03A34233
S3150802509CF0D12C60002628681F2826D8002E37D176
S315080250AC2B694FF4004200219847002833DB6B69C1
S315080250BC01AA00212868984700282FDBAB69984774
S315080250CC0446019B13F4004F11D0AB699847001B99
S315080250DCB0F5FA7F0DD86B6901AA002128689847A2
S315080250EC0028EEDA6FF0040601E06FF002067EB9CC
S315080250FC03E06FF00106FAE70026AB699847044607
S3150802510CAB699847031BB3F5FA6FF9D901236B60A0
S3150802511C304602B070BD6FF00306F9E76FF004066D
S3150802512CF6E710B582B0044600230193436901AA37
S3150802513C012100689847002839DB636901AA012115
S3150802514C20689847002835DB019B13F0040F34D0EE
S3150802515C636901AA002120689847002830DB019B65
S3150802516C13F4805F0CD103F40452B2F5045F2AD00F
S3150802517C13F4005F29D113F4807F28D004201DE094
S3150802518C636901AA1F2120689847002821DB019B25
S3150802519C13F4805F20D003F01C03182B1ED0082BA7
S315080251AC1ED0142B01D0052008E0042006E06FF06F
S315080251BC040003E06FF0040000E0012002B010BD09
S315080251CC6FF00400FAE70220F8E70320F6E7052059
S315080251DCF4E76FF00400F1E70620EFE70220EDE7AB
S315080251EC0320EBE70023072B13D801229A400A491E
S315080251FC09680A4202D00133DBB2F4E70A430649CC
S3150802520C0A604FF4C46202FB03F02030034B1844C5
S3150802521C70470020704700BFF001002400020430DA
S3150802522C0022072A14D84FF4C46302FB03F3203373
S3150802523C08490B44834202D00132D2B2F1E7012368
S3150802524C03FA02F204490B6823EA02030B6070475D
S3150802525C704700BF00020430F00100240023012B22
S3150802526C11D801229A40094909680A4202D0013327
S3150802527CDBB2F4E70A4305490A6003EB4303580217
S3150802528C034B184470470020704700BFEC010024FA
S3150802529C004204300023012B11D803EB4301084AC0
S315080252AC02EB4122824202D00133DBB2F3E701223E
S315080252BC9A4004490B6823EA02030B60704770474D
S315080252CC00420430EC0100240020704708B5FBF7B5
S315080252DCA5FE08BD08B513460A4601460348FCF75F
S315080252EC99FC00B908BD4FF0FF30FBE738010024E2
S315080252FC08B513460A4601460348FCF7BBFC00B937
S3150802530C08BD4FF0FF30FBE73801002408B5024808
S3150802531CFCF7E6FD002008BD38010024F0B59BB069
S3150802532C6422002101A801F028FD264B08221A70D6
S3150802533C00225A7027229A706922DA705B221A7135
S3150802534C45225A712048214A02604360012303729E
S3150802535C1F4BC3601F4B03614FF4C0634361FCF7D9
S3150802536CF3FD1D4C1D492046FFF754FE2046FFF758
S3150802537C70FE2046FFF7D5FE042807D0052809D06B
S3150802538C03281AD14FF48046002705E000264FF46D
S3150802539C005701E00026374601AD0B4C294620463C
S315080253ACFCF79CFC0797069629462046FCF789FDCE
S315080253BC2046FCF7F5FA1BB0F0BD4FF480464FF4C5
S315080253CC0057E9E714020024380100240080024041
S315080253DC0001043000000430F401002450000024BB
S315080253EC074A1178074B1970517859709178997048
S315080253FCD178D9701179197152795A71704700BFDF
S3150802540C14020024D4080024064B1A7802705A781F
S3150802541C42709A788270DA78C2701A7902715B795C
S3150802542C437170471402002430B583B000230193EC
S3150802543C01A91448FCF75CFBF8B9019C0CB10025D0
S3150802544C06E000251AE004F12000FFF7E9FE2468BD
S3150802545CA4B1A288002AF6D0E388002BF3D09A428C
S3150802546CF1D8B3F5BE6FEED804F1200106482844EC
S3150802547C01F0B0FCA3881D44E5E70025284603B0D5
S3150802548C30BD00BF38010024E002002430B593B0C9
S3150802549C3822002104A801F070FC00230193029320
S315080254AC0393FFF7DBFEE0B104460F4D2A880F493A
S315080254BC01F090FC01942B8802930022039221217D
S315080254CC04914FF4403109910892059301AB069366
S315080254DC1194FA2204A90648FCF7A2FA2046FFF709
S315080254ECD9FE13B030BD00BFD4020024E00200245A
