S014000047656E657269635F436F64652E7372656379
S3150802000000000824F50B0208E1080208E9080208BC
S31508020010F1080208F90802080109020800000000AE
S3150802002000000000000000000000000009090208A4
S315080200301709020800000000250902083309020808
S31508020040490C0208490C0208490C0208490C020824
S31508020050490C0208490C0208490C0208490C020814
S31508020060490C0208490C0208490C0208490C020804
S31508020070490C0208490C0208490C0208490C0208F4
S31508020080490C0208490C0208490C0208490C0208E4
S31508020090490C0208490C0208490C0208490C0208D4
S315080200A0490C0208490C0208490C0208490C0208C4
S315080200B0490C0208490C0208490C0208490C0208B4
S315080200C0490C0208490C0208490C0208490C0208A4
S315080200D0490C0208490C0208490C0208490C020894
S315080200E03F090208490C020800000000490C0208F0
S315080200F0490C0208490C0208490C0208490C020874
S31508020100490C0208490C0208490C0208490C020863
S31508020110490C0208490C0208490C0208490C020853
S31508020120490C0208490C0208490C0208490C020843
S31508020130490C0208490C0208490C0208490C020833
S31508020140000000000000000000000000000000009F
S31508020150490C0208490C0208490C0208490C020813
S31508020160490C0208490C0208490C0208490C020803
S31508020170490C0208490C0208490C0208490C0208F3
S31508020180490C0208490C0208490C0208490C0208E3
S31508020190490C0208490C0208490C0208490C0208D3
S315080201A0490C0208490C0208490C0208490C0208C3
S315080201B0490C0208490C0208490C0208490C0208B3
S315080201C0490C0208490C0208490C0208490C0208A3
S315080201D0490C0208490C0208490C0208490C020893
S315080201E0490C0208490C0208490C0208490C020883
S315080201F0490C0208490C0208490C0208490C020873
S31508020200490C0208490C0208490C0208490C020862
S31508020210490C0208490C0208490C0208490C020852
S31508020220490C0208490C0208490C020800000000A1
S31508020230490C0208490C020800000000490C020891
S31508020240490C0208490C0208490C0208490C020822
S31508020250490C0208490C0208490C0208490C020812
S31508020260490C0208490C0208490C0208490C020802
S31508020270490C0208490C0208490C02080000000051
S31508020280490C0208490C0208490C02080000000041
S30D0802029000000000490C0208F7
S315080202A010B5054C237833B9044B13B10448AFF3A0
S315080202B000800123237010BD88000024000000007E
S315080202C0AC4D020808B5034B1BB103490348AFF30B
S315080202D0008008BD000000008C000024AC4D020816
S315080202E001F0FF01102A2BDB10F0070F08D010F8D7
S315080202F0013B013A8B422DD010F0070F42B3F6D1DB
S31508020300F0B441EA012141EA014122F007047FF0F3
S3150802031000070023F0E80256083C85EA010586EA4A
S31508020320010685FA47F5A3FA87F586FA47F6A5FA86
S3150802033087F68EB9EED1F0BC01F0FF0102F0070292
S3150802034032B110F8013B013A83EA010313B1F8D13D
S315080203500020704701387047002D06BF354603381E
S31508020360073815F0010F07D1013015F4807F02BF57
S31508020370013015F4C03F0130F0BC0138704700BFA8
S3150802038053B94AB9002908BF00281CBF4FF0FF31EC
S315080203904FF0FF3000F088B9ADF1080C6DE904CED4
S315080203A000F006F8DDF804E0DDE9022304B0704740
S315080203B02DE9F047089D0F4604468C46002B48D186
S315080203C08A42164661D9B2FA82F34BB1C3F12002C8
S315080203D001FA03FC20FA02F29E4042EA0C0C9C4007
S315080203E04FEA164EB7B2BCFBFEF1220C0EFB11CC3D
S315080203F042EA0C4201FB07F0904209D9B21801F110
S31508020400FF3C80F0EE80904240F2EB8002393244A3
S31508020410121AA4B2B2FBFEF00EFB102244EA024400
S3150802042000FB07F7A74209D9341900F1FF3280F019
S31508020430DA80A74240F2D7803444023840EA0140C3
S31508020440E41B00211DB1DC400023C5E90043BDE8D9
S31508020450F0878B4206D90DB1C5E90001002108468D
S31508020460BDE8F087B3FA83F1002948D1BB4202D32B
S31508020470824200F20781841A67EB0302012094463E
S31508020480002DE4D0C5E9004CE1E7002A00F092808D
S31508020490B2FA82F3002B40F0A8808A1A4FEA164E67
S315080204A01FFA86FC0121200CB2FBFEF70EFB17226F
S315080204B040EA02420CFB07F0904207D9B21807F14C
S315080204C0FF3802D2904200F2E2804746121AA4B2DC
S315080204D0B2FBFEF00EFB102244EA02440CFB00FCBF
S315080204E0A44507D9341900F1FF3202D2A44500F215
S315080204F0CB801046A4EB0C0440EA0740A2E7C1F100
S3150802050020068B4022FA06FC4CEA030C07FA01F491
S3150802051020FA06F3F7404FEA1C49234300FA01F88A
S315080205201FFA8CFEB7FBF9F01C0C09FB107744EA9C
S31508020530074400FB0EF7A74202FA01F20AD91CEB9E
S31508020540040400F1FF3A80F09B80A74240F29880AB
S3150802055002386444E41B9FB2B4FBF9F309FB134463
S3150802056047EA044403FB0EFEA64509D91CEB04041C
S3150802057003F1FF3780F08280A6457FD9023B6444A7
S3150802058043EA0040A4EB0E04A0FB02E7BC42734612
S31508020590B94663D360D05DB1B8EB030264EB0904D4
S315080205A004FA06F622FA01F31E43CC40C5E90064B2
S315080205B000214CE76208480842EAC1710B0C43EA7B
S315080205C000438AB242EA0342B3FBF6F1E407B446B1
S315080205D03746B6461F23B0FBF6F0D21B41EA004166
S315080205E061E7614614E7104628E7C3F1200120FABD
S315080205F001F29E4027FA01F19F403A434FEA164E0E
S315080206001FFA86FCB1FBFEF70EFB1710110C41EA26
S31508020610004107FB0CF8884504FA03F43AD9711825
S3150802062007F1FF3001D288451FD8A1EB0801B1FBBB
S31508020630FEF808FB0CF70EFB181192B242EA0142C9
S31508020640BA422FD2B21808F1FF31C6D2BA42C4D280
S31508020650A8F102013244C0E7F0459CD2BEEB020380
S3150802066067EB0C070138B94695E7A6EB080841443B
S31508020670B81EB1FBFEF808FB0CF7DCE73B467FE742
S31508020680504667E70846FBE63444023832E7023F3B
S3150802069032441BE7A1EB08013846B1FBFEF808FB1A
S315080206A00CF7C8E7414698E7704700BF80B500AF28
S315080206B000F0F8FC00F04CF800F0B4F8002000F066
S315080206C0C5FA012000F0C2FA022000F0BFFA0121A1
S315080206D0002000F085FB1B4B4FF4E1321A60194BE0
S315080206E000225A60174B00221A81164B00225A81A1
S315080206F0144B00229A811349002000F0F5FB0346A9
S31508020700002B01D000F0CCF80F4803F0E7FC0020DC
S3150802071000F012FB012000F00FFB022000F00CFB98
S315080207200A4B1B68012BFBD1084B00221A600020DA
S3150802073000F02CFB012000F029FB022000F026FB2A
S31508020740EEE700BFA4000024C44D0208B40000244A
S3150802075080B59CB000AF07F124034C22002118464D
S3150802076003F012FD3B1D20220021184603F00CFD62
S31508020770022001F095F800233B60284BDB6A274AE2
S3150802078023F00103D362254BDB6A03F001033B60C6
S31508020790234B9B6923F44043214A43F40043936164
S315080207A01F4B9B6903F440433B603B6800BF1C4BED
S315080207B09B6903F40053B3F5005FF8D102237B6209
S315080207C001233B6340237B630023BB6407F12403B5
S315080207D0184601F09FF80346002B01D000F060F896
S315080207E03F237B600023BB600023FB6000233B6141
S315080207F000237B610023BB610023FB6100233B626C
S315080208003B1D0121184601F0DFFC0346002B01D0EF
S3150802081000F046F800BF7037BD4680BD0004005898
S315080208200048025880B483B000AF124BD3F8E030C8
S31508020830104A43F00403C2F8E0300E4BD3F8E03016
S3150802084003F004037B607B680A4BD3F8E030094A5D
S3150802085043F08003C2F8E030064BD3F8E03003F0E9
S3150802086080033B603B6800BF0C37BD465DF8047BDE
S31508020870704700BF0044025880B483B000AF0346F5
S31508020880FB71FB79002B02D1044B01221A6000BFCF
S315080208900C37BD465DF8047B704700BFB4000024E0
S315080208A080B400AF72B600BF00BFFDE780B483B064
S315080208B000AF0A4BD3F8F430084A43F00203C2F8F1
S315080208C0F430064BD3F8F43003F002037B607B68FE
S315080208D000BF0C37BD465DF8047B704700440258DA
S315080208E080B400AF00BFFDE780B400AF00BFFDE7EC
S315080208F080B400AF00BFFDE780B400AF00BFFDE7DC
S3150802090080B400AF00BFFDE780B400AF00BFBD46AC
S315080209105DF8047B704780B400AF00BFBD465DF842
S31508020920047B704780B400AF00BFBD465DF8047B08
S31508020930704780B500AF00F027FC00BF80BD80B5C8
S3150802094000AF002000F0BEFA00BF80BD80B586B0B9
S3150802095000AFF860B9607A6000237B610AE0AFF302
S3150802096000800146BB685A1CBA60CAB21A707B6913
S3150802097001337B617A697B689A42F0DB7B681846A9
S315080209801837BD4680BD80B586B000AFF860B9603D
S315080209907A6000237B6109E0BB685A1CBA601B783F
S315080209A0184600F003FB7B6901337B617A697B6831
S315080209B09A42F1DB7B6818461837BD4680BD80B47B
S315080209C083B000AF78604FF0FF3318460C37BD4648
S315080209D05DF8047B704780B483B000AF78603960F5
S315080209E03B684FF400525A60002318460C37BD463E
S315080209F05DF8047B704780B483B000AF786001234A
S31508020A0018460C37BD465DF8047B704780B485B03E
S31508020A1000AFF860B9607A60002318461437BD46FD
S31508020A205DF8047B7047000080B586B000AF786039
S31508020A30144A154BD31A7B617B693B61134B1B68BE
S31508020A40002B02D1114B124A1A60104B1A687B68A6
S31508020A5013443A699A4207D203F0E4FB03460C228E
S31508020A601A604FF0FF3309E0084B1B68FB60074B1F
S31508020A701A687B681344054A1360FB6818461837D8
S31508020A80BD4680BD0000082400040000B80000240A
S31508020A90B002002480B400AF444BD3F88830434AEE
S31508020AA043F47003C2F88830414B1B6803F00F0306
S31508020AB0062B07D83E4B1B6823F00F033C4A43F02C
S31508020AC0070313603B4B1B683A4A43F00103136062
S31508020AD0384B00221A61374B1A683649364B13408F
S31508020AE00B60334B1B6803F00803002B07D0304B0F
S31508020AF01B6823F00F032E4A43F0070313602D4B9E
S31508020B0000229A612B4B0022DA612A4B00221A62D2
S31508020B10284B2A4A9A62274B294ADA62254B294ADE
S31508020B201A63244B00225A63224B264A9A63214BA4
S31508020B300022DA631F4B234A1A641E4B00225A64A8
S31508020B401C4B1B681B4A23F480231360194B002293
S31508020B501A661D4B1A681D4B1340B3F1005F02D289
S31508020B601B4B01221A60134BD3F8D43003F480537B
S31508020B70002B13D10F4BD3F8D4300E4A43F48053CB
S31508020B80C2F8D430134B43F2D2021A60094BD3F897
S31508020B90D430084A23F48053C2F8D430034B0E4AA1
S31508020BA09A6000BFBD465DF8047B704700ED00E021
S31508020BB000200052004402587FEDF6EA00020202C3
S31508020BC00000FF01800201010010005C0000FFFF27
S31508020BD0088100510040005200000208044BDA68FE
S31508020BE042F00202DA605A689204FCD5704700BFE6
S31508020BF000480258DFF838D0FFF7F0FFFFF74AFF40
S31508020C000C480D490D4A002302E0D458C450043357
S31508020C10C4188C42F9D30A4A0A4C002301E013602D
S31508020C200432A242FBD303F003FBFFF73FFDFEE7C4
S31508020C30000008240000002488000024584E0208F8
S31508020C4088000024AC020024FEE7000080B58CB0C0
S31508020C5000AF0346FB710023FB62FB79002B09D028
S31508020C60FB79012B06D0FB79022B03D06FF0010327
S31508020C70FB6255E0FB79002B0FD12C4BD3F8E03001
S31508020C802A4A43F00203C2F8E030284BD3F8E03090
S31508020C9003F002037B617B6921E0FB79012B0FD10B
S31508020CA0224BD3F8E030214A43F01003C2F8E03071
S31508020CB01E4BD3F8E03003F010033B613B690EE0AC
S31508020CC01A4BD3F8E030194A43F00203C2F8E0306F
S31508020CD0164BD3F8E03003F00203FB60FB68FB799E
S31508020CE0134A32F81330BB610123FB6100233B62CE
S31508020CF003237B62FB790F4A52F8233007F1180265
S31508020D001146184600F0DEFBFB790A4A52F8230020
S31508020D10FB79074A32F813300022194600F08CFD97
S31508020D20FB6A18463037BD4680BD00BF00440258EC
S31508020D30F04D02080C00002480B584B000AF0346CB
S31508020D40FB710023FB60FB79002B09D0FB79012B91
S31508020D5006D0FB79022B03D06FF00103FB600BE090
S31508020D60FB79084A52F82300FB79074A32F813300E
S31508020D700122194600F060FDFB6818461037BD4689
S31508020D8080BD00BF0C000024F04D020880B584B077
S31508020D9000AF0346FB710023FB60FB79002B09D0E9
S31508020DA0FB79012B06D0FB79022B03D06FF00103E6
S31508020DB0FB600BE0FB79084A52F82320FB790749C6
S31508020DC031F813301946104600F04FFDFB681846F5
S31508020DD01037BD4680BD00BF0C000024F04D020846
S31508020DE080B588B000AF03460A46FB711346BB714D
S31508020DF02E4BD3F8E0302D4A43F00403C2F8E03014
S31508020E002A4BD3F8E03003F00403BB60BB684FF407
S31508020E100053FB6002237B610223BB61BB79002B73
S31508020E200CD100233B61FB79214A52F8233007F1A2
S31508020E300C021146184600F045FB31E04FF48813C0
S31508020E403B61FB791A4A52F8233007F10C02114624
S31508020E50184600F037FBFB79DB00164A1A44FB7981
S31508020E60154951F823301946104600F0E7FAFB797E
S31508020E70DB00104A9818FB79104A52F823301A46B2
S31508020E80002100F0BCFA2820FB790D4A52F82330DB
S31508020E900022194600F07FFA2823184600F095FA30
S31508020EA0002318462037BD4680BD00BF00440258BD
S31508020EB018000024BC000024F84D02081C00002477
S31508020EC02000002480B582B000AF0346FB71FB798F
S31508020ED0DB00044A1344184600F0C4FA00BF083778
S31508020EE0BD4680BDBC00002480B584B000AF034671
S31508020EF03960FB710023FB60FB79002B03D06FF08E
S31508020F000103FB6018E0FB79942202FB03F30D4A06
S31508020F101344184600F06EF8FB79942202FB03F399
S31508020F20084A13443968184600F00EF80346002B9F
S31508020F3002D06FF00303FB60FB6818461037BD4604
S31508020F4080BD00BFC400002480B582B000AF7860BF
S31508020F503960154B1A687B681A603B681A687B68A1
S31508020F605A607B680C225A613B685B891A467B6821
S31508020F701A613B685A687B689A603B681B891A46FD
S31508020F807B68DA603B689B891A467B689A617B684C
S31508020F904FF40042DA61786801F060FF03461846AA
S31508020FA00837BD4680BD00BF0800002480B582B060
S31508020FB000AF7860094B1B781A46942302FB03F3A9
S31508020FC0074A9818391D4FF47A73012201F0A0FFD7
S31508020FD07B6818460837BD4680BD00BF5801002405
S31508020FE0C400002480B500AF0020FFF745FC00BF0F
S31508020FF080BD000080B58AB000AF7860274BD3F871
S31508021000E030264A43F00803C2F8E030234BD3F80F
S31508021010E03003F008033B613B69204BD3F8E0302C
S315080210201E4A43F00803C2F8E0301C4BD3F8E030FE
S3150802103003F00803FB60FB68184BD3F8E830174A3D
S3150802104043F48023C2F8E830144BD3F8E83003F4AB
S315080210508023BB60BB684FF480737B610223BB614C
S3150802106002233B620123FB6107237B6207F1140318
S3150802107019460B4800F026FA4FF400737B610223E7
S31508021080BB6107237B6207F114031946044800F083
S3150802109019FA00BF2837BD4680BD00BF0044025872
S315080210A0000C025880B582B000AF032000F068F940
S315080210B001F040FA0246154B9B691B0A03F00F031F
S315080210C01349CB5C03F01F0322FA03F37B600F4B31
S315080210D09B6903F00F030E4AD35C03F01F037A6879
S315080210E022FA03F30B4A13600B4A7B68136000204B
S315080210F000F014F80346002B01D0012302E0FFF7A3
S31508021100D5FB002318460837BD4680BD0044025861
S31508021110E04D0208040000240000002480B582B0D5
S3150802112000AF7860154B1B78002B01D1012321E013
S31508021130134B1A68114B1B7819464FF47A73B3FB93
S31508021140F1F3B2FBF3F3184600F04DF90346002B10
S3150802115001D001230EE07B680F2B0AD8002279689A
S315080211604FF0FF3000F017F9064A7B681360002338
S3150802117000E0012318460837BD4680BD2800002432
S31508021180000000242400002480B400AF064B1B781C
S315080211901A46064B1B681344044A136000BFBD4631
S315080211A05DF8047B704700BF280000245C01002418
S315080211B080B400AF034B1B681846BD465DF8047B36
S315080211C0704700BF5C01002480B400AF034B1B6864
S315080211D01B0C1846BD465DF8047B70470010005C80
S315080211E080B485B000AF78607B6803F00703FB60C4
S315080211F00B4BDB68BB60BA684FF6FF031340BB6054
S31508021200FB681A02BB681A43064B1343BB60044ABF
S31508021210BB68D36000BF1437BD465DF8047B7047D0
S3150802122000ED00E00000FA0580B400AF044BDB686D
S315080212301B0A03F007031846BD465DF8047B704790
S3150802124000ED00E080B483B000AF0346FB80B7F937
S315080212500630002B0BDBFB8803F01F020749B7F9A0
S3150802126006305B09012000FA02F241F8232000BF8A
S315080212700C37BD465DF8047B704700BF00E100E00D
S3150802128080B483B000AF03463960FB80B7F90630F5
S31508021290002B0ADB3B68DAB20C49B7F906301201B1
S315080212A0D2B20B4483F800230AE03B68DAB2084953
S315080212B0FB8803F00F03043B1201D2B20B441A76E1
S315080212C000BF0C37BD465DF8047B704700E100E0BD
S315080212D000ED00E080B489B000AFF860B9607A60CA
S315080212E0FB6803F00703FB61FB69C3F10703042BE1
S315080212F028BF0423BB61FB690433062B02D9FB69A9
S31508021300033B00E000237B614FF0FF32BB6902FA20
S3150802131003F3DA43BB681A407B699A404FF0FF3100
S315080213207B6901FA03F3D9437B680B4013431846DA
S315080213302437BD465DF8047B7047000080B582B04D
S3150802134000AF78607B68013BB3F1807F01D301234C
S315080213500FE00A4A7B68013B53600F214FF0FF30CA
S31508021360FFF78EFF054B00229A60044B07221A608C
S31508021370002318460837BD4680BD00BF10E000E0CE
S3150802138080B582B000AF78607868FFF729FF00BFA2
S315080213900837BD4680BD80B586B000AF0346B96042
S315080213A07A60FB81FFF740FF78617A68B9687869E5
S315080213B0FFF790FF0246B7F90E3011461846FFF7B7
S315080213C05FFF00BF1837BD4680BD80B582B000AF4B
S315080213D00346FB80B7F906301846FFF733FF00BF0E
S315080213E00837BD4680BD80B582B000AF78607868A0
S315080213F0FFF7A4FF034618460837BD4680BD80B4EA
S3150802140087B000AFF8600B467A60FB720023FB7563
S31508021410FB68002B01D101230AE0FB7A002B03D1DA
S31508021420FB687A685A6002E00123FB7500BFFB7D00
S3150802143018461C37BD465DF8047B704780B483B0F6
S3150802144000AF786039607B68002B01D1012303E085
S315080214507B683A681A60002318460C37BD465DF861
S31508021460047B704780B586B000AF78607B681B68DE
S315080214701B0C03F003037B617B681B6803F01F03E5
S31508021480012202FA03F33B617B691A010C4B1344EE
S31508021490FB60FB681B683A691340BB60BB68002B9C
S315080214A009D0FB683A691A607B685B68002B02D030
S315080214B07B685B68984700BF1837BD4680BD00BF8A
S315080214C08800005880B489B000AF7860396000237C
S315080214D0FB618E4B7B619EE13B681A680121FB69C1
S315080214E001FA03F313403B613B69002B00F090813C
S315080214F03B685B6803F00303012B05D03B685B6816
S3150802150003F00303022B30D17B689B68BB61FB693E
S315080215105B00032202FA03F3DB43BA691340BB6199
S315080215203B68DA68FB695B0002FA03F3BA6913439C
S31508021530BB617B68BA699A607B685B68BB6101229A
S31508021540FB6902FA03F3DB43BA691340BB613B68E2
S315080215505B681B0903F00102FB6902FA03F3BA6925
S315080215601343BB617B68BA695A603B685B6803F0E0
S315080215700303032B09D13B685B6803F00303032BC0
S315080215801BD13B689B68012B17D07B68DB68BB6164
S31508021590FB695B00032202FA03F3DB43BA691340D1
S315080215A0BB613B689A68FB695B0002FA03F3BA6996
S315080215B01343BB617B68BA69DA603B685B6803F010
S315080215C00303022B23D1FB69DA087B68083253F836
S315080215D02230BB61FB6903F007039B000F2202FA64
S315080215E003F3DB43BA691340BB613B681A69FB69BB
S315080215F003F007039B0002FA03F3BA691343BB61BC
S31508021600FB69DA087B680832B96943F822107B68F5
S315080216101B68BB61FB695B00032202FA03F3DB4327
S31508021620BA691340BB613B685B6803F00302FB6956
S315080216305B0002FA03F3BA691343BB617B68BA69B2
S315080216401A603B685B6803F44033002B00F0E080C5
S315080216502F4BD3F8F4302E4A43F00203C2F8F43083
S315080216602B4BD3F8F43003F00203FB60FB68294ADC
S31508021670FB699B08023352F82330BB61FB6903F00E
S3150802168003039B000F2202FA03F3DB43BA691340F2
S31508021690BB617B68204A934252D07B681F4A9342B9
S315080216A031D07B681E4A93422BD07B681D4A9342EF
S315080216B025D07B681C4A93421FD07B681B4A9342FB
S315080216C019D07B681A4A934213D07B68194A934207
S315080216D00DD07B68184A934207D07B68174A934213
S315080216E001D109232DE00A232BE0082329E0072349
S315080216F027E0062325E0052323E0042321E003232C
S315080217001FE002231DE001231BE000BF80000058F2
S315080217100044025800040058000002580004025807
S3150802172000080258000C0258001002580014025809
S3150802173000180258001C02580020025800240258B9
S315080217400023FA6902F0030292009340BA6913432E
S31508021750BB613849FB699B080233BA6941F8232001
S315080217604FF0B0431B68BB613B69DB43BA69134060
S31508021770BB613B685B6803F48013002B03D0BA692C
S315080217803B691343BB614FF0B042BB6913604FF02C
S31508021790B0435B68BB613B69DB43BA691340BB6113
S315080217A03B685B6803F40013002B03D0BA693B69F4
S315080217B01343BB614FF0B042BB6953607B695B68F8
S315080217C0BB613B69DB43BA691340BB613B685B6833
S315080217D003F40033002B03D0BA693B691343BB6198
S315080217E07B69BA695A607B691B68BB613B69DB43E3
S315080217F0BA691340BB613B685B6803F48033002B0C
S3150802180003D0BA693B691343BB617B69BA691A603B
S31508021810FB690133FB613B681A68FB6922FA03F329
S31508021820002B7FF459AE00BF00BF2437BD465DF8D2
S31508021830047B70470004005880B483B000AF786018
S315080218400B467B8013467B707B78002B03D07A8805
S315080218507B689A6103E07B881A047B689A6100BFF9
S315080218600C37BD465DF8047B704780B485B000AF7F
S3150802187078600B467B807B685B69FB607A88FB68CD
S3150802188013401A04FB68D9437B880B401A437B68CA
S315080218909A6100BF1437BD465DF8047B70470000A5
S315080218A080B584B000AF7860194BDB6803F0040397
S315080218B0042B0AD0164BDB6803F007037A689A42B0
S315080218C001D001231FE000231DE0114BDB6823F042
S315080218D007020F497B681343CB60FFF769FCF86080
S315080218E009E0FFF765FC0246FB68D31AB3F57A7F6F
S315080218F001D9012307E0064B5B6803F40053B3F5ED
S31508021900005FEED1002318461037BD4680BD00BFE2
S315080219100048025880B58CB000AF78607B68002B0F
S3150802192002D1012300F048BC7B681B6803F001035F
S31508021930002B00F08880994B1B6903F03803FB6281
S31508021940964B9B6ABB62FB6A102B07D0FB6A182B65
S3150802195011D1BB6A03F00303022B0CD18F4B1B6810
S3150802196003F40033002B6DD07B685B68002B69D1CA
S31508021970012300F021BC7B685B68B3F5803F06D182
S31508021980864B1B68854A43F4803313602EE07B68D6
S315080219905B68002B0CD1814B1B68804A23F4803389
S315080219A013607E4B1B687D4A23F4802313601DE077
S315080219B07B685B68B3F5A02F0CD1784B1B68774A16
S315080219C043F480231360754B1B68744A43F48033CF
S315080219D013600BE0714B1B68704A23F48033136063
S315080219E06E4B1B686D4A23F4802313607B685B6821
S315080219F0002B13D0FFF7DCFB786208E0FFF7D8FB71
S31508021A0002467B6AD31A642B01D90323D4E3634BB8
S31508021A101B6803F40033002BF0D014E0FFF7C8FB71
S31508021A20786208E0FFF7C4FB02467B6AD31A642B86
S31508021A3001D90323C0E3594B1B6803F40033002B77
S31508021A40F0D100E000BF7B681B6803F00203002B9D
S31508021A5000F0CA80514B1B6903F038033B624F4BB7
S31508021A609B6AFB613B6A002B07D03B6A182B56D14F
S31508021A70FB6903F00303002B51D1484B1B6803F0A3
S31508021A800403002B05D07B68DB68002B01D10123F8
S31508021A9092E3424B1B6823F019027B68DB683F49D5
S31508021AA013430B60FFF784FB786208E0FFF780FBBD
S31508021AB002467B6AD31A022B01D903237CE3374BEE
S31508021AC01B6803F00403002BF0D0FFF77DFB0346E7
S31508021AD041F20302934217D87B681B69402B08D14F
S31508021AE02E4B5B6823F47C332C4A43F40033536051
S31508021AF07AE02A4B5B6823F47C327B681B691B03FA
S31508021B00264913434B606FE0244B5B6823F0FE4281
S31508021B107B681B691B06214913434B6064E07B689B
S31508021B20DB68002B47D01D4B1B6823F019027B6824
S31508021B30DB681A4913430B60FFF73AFB786208E041
S31508021B40FFF736FB02467B6AD31A022B01D9032317
S31508021B5032E3124B1B6803F00403002BF0D0FFF7A5
S31508021B6033FB034641F20302934219D87B681B6989
S31508021B70402B08D1094B5B6823F47C33074A43F4AC
S31508021B800033536030E0054B5B6823F47C327B6894
S31508021B901B691B03014913434B6025E000440258A5
S31508021BA09A4B5B6823F0FE427B681B691B069749C2
S31508021BB013434B6018E0954B1B68944A23F00103C4
S31508021BC01360FFF7F5FA786208E0FFF7F1FA0246C2
S31508021BD07B6AD31A022B01D90323EDE28B4B1B68CE
S31508021BE003F00403002BF0D17B681B6803F0100393
S31508021BF0002B00F0A980854B1B6903F03803BB61F3
S31508021C00824B9B6A7B61BB69082B07D0BB69182B81
S31508021C103AD17B6903F00303012B35D17B4B1B6851
S31508021C2003F48073002B05D07B68DB69802B01D017
S31508021C300123C1E2FFF7C8FA034641F203029342BF
S31508021C4017D87B681B6A202B08D1704B5B6823F078
S31508021C50F8436E4A43F08043536075E06B4B5B680A
S31508021C6023F0F8427B681B6A9B06684913434B605C
S31508021C706AE0664BDB6823F07C527B681B6A1B06AC
S31508021C8062491343CB605FE07B68DB69002B42D075
S31508021C905E4B1B685D4A43F080031360FFF788FAC0
S31508021CA0786208E0FFF784FA02467B6AD31A022BA7
S31508021CB001D9032380E2554B1B6803F48073002B7A
S31508021CC0F0D0FFF781FA034641F20302934217D88E
S31508021CD07B681B6A202B08D14C4B5B6823F0F843C0
S31508021CE04A4A43F0804353602EE0484B5B6823F030
S31508021CF0F8427B681B6A9B06444913434B6023E000
S31508021D00424BDB6823F07C527B681B6A1B063F4901
S31508021D101343CB6018E03D4B1B683C4A23F0800313
S31508021D201360FFF745FA786208E0FFF741FA0246C0
S31508021D307B6AD31A022B01D903233DE2334B1B6874
S31508021D4003F48073002BF0D17B681B6803F0080349
S31508021D50002B36D07B685B69002B19D02B4B5B6F47
S31508021D602A4A43F001035367FFF722FA786208E02A
S31508021D70FFF71EFA02467B6AD31A022B01D90323FE
S31508021D801AE2224B5B6F03F00203002BF0D018E035
S31508021D901E4B5B6F1D4A23F001035367FFF708FAD0
S31508021DA0786208E0FFF704FA02467B6AD31A022B26
S31508021DB001D9032300E2154B5B6F03F00203002BE4
S31508021DC0F0D17B681B6803F02003002B39D07B68AF
S31508021DD09B69002B1CD00D4B1B680C4A43F480539D
S31508021DE01360FFF7E5F9786208E0FFF7E1F90246C2
S31508021DF07B6AD31A022B01D90323DDE1034B1B6845
S31508021E0003F40053002BF0D01BE000BF0044025835
S31508021E109B4B1B689A4A23F480531360FFF7C8F951
S31508021E20786208E0FFF7C4F902467B6AD31A022BE6
S31508021E3001D90323C0E1924B1B6803F40053002B1C
S31508021E40F0D17B681B6803F00403002B00F0818045
S31508021E508C4B1B688B4A43F480731360FFF7A8F90F
S31508021E60786208E0FFF7A4F902467B6AD31A642B64
S31508021E7001D90323A0E1834B1B6803F48073002B6B
S31508021E80F0D07B689B68012B06D17D4B1B6F7C4A81
S31508021E9043F0010313672DE07B689B68002B0CD186
S31508021EA0774B1B6F764A23F001031367744B1B6F3C
S31508021EB0734A23F0040313671CE07B689B68052BAF
S31508021EC00CD16F4B1B6F6E4A43F0040313676C4BBE
S31508021ED01B6F6B4A43F0010313670BE0684B1B6FDA
S31508021EE0674A23F001031367654B1B6F644A23F0A5
S31508021EF0040313677B689B68002B15D0FFF758F914
S31508021F0078620AE0FFF754F902467B6AD31A41F26D
S31508021F108832934201D903234EE1594B1B6F03F0D2
S31508021F200203002BEED014E0FFF742F978620AE0CA
S31508021F30FFF73EF902467B6AD31A41F28832934288
S31508021F4001D9032338E14E4B1B6F03F00203002B22
S31508021F50EED17B685B6A002B00F02D81484B1B692A
S31508021F6003F03803182B00F0BD807B685B6A022BEE
S31508021F7040F09E80424B1B68414A23F080731360EF
S31508021F80FFF716F9786208E0FFF712F902467B6A4C
S31508021F90D31A022B01D903230EE1394B1B6803F02E
S31508021FA00073002BF0D1364B9A6A374B13407A6886
S31508021FB0916A7A68D26A12010A43314913438B62DB
S31508021FC07B681B6B013BC3F308027B685B6B013BB7
S31508021FD05B029BB21A437B689B6B013B1B0403F4AF
S31508021FE0FE031A437B68DB6B013B1B0603F0FE43C9
S31508021FF0234913430B63224BDB6A214A23F001036D
S31508022000D3621F4B5A6B214B13407A68926CD200EB
S315080220101B4913434B631A4BDB6A23F00C027B689A
S315080220201B6C17491343CB62154BDB6A23F002027A
S315080220307B685B6C12491343CB62114BDB6A104A0D
S3150802204043F48033D3620E4BDB6A0D4A43F4003302
S31508022050D3620B4BDB6A0A4A43F48023D362084BEA
S31508022060DB6A074A43F00103D362054B1B68044A3D
S3150802207043F080731360FFF79BF8786211E000BFA4
S3150802208000440258004802580CFCFFFF0700FFFFF5
S31508022090FFF78EF802467B6AD31A022B01D903236D
S315080220A08AE0474B1B6803F00073002BF0D082E0EE
S315080220B0434B1B68424A23F080731360FFF778F894
S315080220C0786208E0FFF774F802467B6AD31A022B95
S315080220D001D9032370E03A4B1B6803F00073002B07
S315080220E0F0D168E0364B9B6A3B61354B1B6BFB6054
S315080220F07B685B6A012B31D03B6903F003027B687C
S315080221009B6A9A422AD13B691B0903F03F027B6804
S31508022110DB6A9A4222D1FB68C3F308027B681B6B0F
S31508022120013B9A421AD1FB685B0A03F07F027B687D
S315080221305B6B013B9A4211D1FB681B0C03F07F02D1
S315080221407B689B6B013B9A4208D1FB681B0E03F026
S315080221507F027B68DB6B013B9A4201D001232BE0AD
S31508022160174B5B6BDB08C3F30C033B617B689B6C09
S315080221703A699A421FD0124BDB6A114A23F00103CD
S31508022180D362FFF715F8786200BFFFF711F8024627
S315080221907B6A9342F9D00A4B5A6B0A4B13407A6808
S315080221A0926CD200064913434B63054BDB6A044A19
S315080221B043F00103D362002318463037BD4680BD7B
S315080221C0004402580700FFFF80B586B000AF78606A
S315080221D039607B68002B01D101239CE18A4B1B687D
S315080221E003F00F033A689A4210D9874B1B6823F00B
S315080221F00F0285493B6813430B60834B1B6803F048
S315080222000F033A689A4201D0012384E17B681B686E
S3150802221003F00403002B10D07B681A697B4B9B6979
S3150802222003F070039A4208D9784B9B6923F070022F
S315080222307B681B69754913438B617B681B6803F0CE
S315080222400803002B10D07B685A69704BDB6903F0D0
S3150802225070039A4208D96D4BDB6923F070027B68DA
S315080222605B696A491343CB617B681B6803F01003F9
S31508022270002B10D07B689A69644BDB6903F4E06330
S315080222809A4208D9614BDB6923F4E0627B689B6951
S315080222905E491343CB617B681B6803F02003002B5E
S315080222A010D07B68DA69594B1B6A03F070039A42AD
S315080222B008D9564B1B6A23F070027B68DB695349BF
S315080222C013430B627B681B6803F00203002B10D0D2
S315080222D07B68DA684D4B9B6903F00F039A4208D96B
S315080222E04A4B9B6923F00F027B68DB684749134315
S315080222F08B617B681B6803F00103002B55D0434BA7
S315080223009B6923F470627B689B68404913438B611F
S315080223107B685B68022B07D13C4B1B6803F40033CE
S31508022320002B21D10123F6E07B685B68032B07D1DA
S31508022330364B1B6803F00073002B15D10123EAE024
S315080223407B685B68012B07D1304B1B6803F48073EB
S31508022350002B09D10123DEE02C4B1B6803F0040392
S31508022360002B01D10123D6E0284B1B6923F0070273
S315080223707B685B68254913430B61FEF719FF786191
S315080223800AE0FEF715FF02467B69D31A41F2883244
S31508022390934201D90323BEE01C4B1B6903F03802A2
S315080223A07B685B68DB009A42EBD17B681B6803F0AB
S315080223B00203002B10D07B68DA68144B9B6903F082
S315080223C00F039A4208D2114B9B6923F00F027B68CE
S315080223D0DB680E4913438B610B4B1B6803F00F0333
S315080223E03A689A4214D2084B1B6823F00F02064930
S315080223F03B6813430B60044B1B6803F00F033A68F0
S315080224009A4205D0012386E0002000520044025871
S315080224107B681B6803F00403002B10D07B681A69DB
S315080224203F4B9B6903F070039A4208D23C4B9B6967
S3150802243023F070027B681B69394913438B617B68F9
S315080224401B6803F00803002B10D07B685A69344BCB
S31508022450DB6903F070039A4208D2314BDB6923F039
S3150802246070027B685B692E491343CB617B681B68E4
S3150802247003F01003002B10D07B689A69284BDB699E
S3150802248003F4E0639A4208D2254BDB6923F4E0623F
S315080224907B689B6922491343CB617B681B6803F0FF
S315080224A02003002B10D07B68DA691D4B1B6A03F0E8
S315080224B070039A4208D21A4B1B6A23F070027B6891
S315080224C0DB69174913430B6200F034F80246144BD2
S315080224D09B691B0A03F00F031249CB5C03F01F0327
S315080224E022FA03F33B610E4B9B6903F00F030D4A75
S315080224F0D35C03F01F033A6922FA03F30A4A13600C
S315080225000A4A3B6913600A4B1B681846FEF706FE21
S315080225100346FB73FB7B18461837BD4680BD00BFD2
S3150802252000440258E04D020804000024000000247A
S315080225302400002480B489B000AFB34B1B6903F0B2
S315080225403803182B00F2558101A252F823F000BF76
S31508022550B5250208F3270208F3270208F32702081B
S31508022560F3270208F3270208F3270208F3270208CB
S31508022570DB250208F3270208F3270208F3270208D5
S31508022580F3270208F3270208F3270208F3270208AB
S31508022590E1250208F3270208F3270208F3270208AF
S315080225A0F3270208F3270208F3270208F32702088B
S315080225B0E7250208944B1B6803F02003002B09D079
S315080225C0914B1B68DB0803F00303904A22FA03F3D4
S315080225D0BB6111E18D4BBB610EE18D4BBB610BE11A
S315080225E08C4BBB6108E1884B9B6A03F003037B6152
S315080225F0854B9B6A1B0903F03F033B61824BDB6AEF
S3150802260003F00103FB60804B5B6BDB08C3F30C032F
S31508022610FA6802FB03F307EE903AF8EE677AC7ED1B
S31508022620027A3B69002B00F0E1807B69022B00F0FD
S3150802263083807B69022B00F2A1807B69002B03D081
S315080226407B69012B56D099E06F4B1B6803F0200378
S31508022650002B2DD06C4B1B68DB0803F003036B4A77
S3150802266022FA03F37B607B6807EE903AF8EE676A14
S315080226703B6907EE903AF8EE677A86EEA77A624BDE
S315080226801B6BC3F3080307EE903AF8EE676A97EDF9
S31508022690026ADFED615AC6EE257A76EEA77AF7EE7A
S315080226A0006A77EEA67A67EE277AC7ED077A87E099
S315080226B03B6907EE903AF8EE677ADFED586A86EEDE
S315080226C0A77A514B1B6BC3F3080307EE903AF8EE51
S315080226D0676A97ED026ADFED505AC6EE257A76EEFC
S315080226E0A77AF7EE006A77EEA67A67EE277AC7ED3B
S315080226F0077A65E03B6907EE903AF8EE677ADFED0E
S31508022700486A86EEA77A404B1B6BC3F3080307EEAB
S31508022710903AF8EE676A97ED026ADFED3F5AC6EE1F
S31508022720257A76EEA77AF7EE006A77EEA67A67EE4C
S31508022730277AC7ED077A43E03B6907EE903AF8EE47
S31508022740677ADFED386A86EEA77A2F4B1B6BC3F3DF
S31508022750080307EE903AF8EE676A97ED026ADFED2C
S315080227602E5AC6EE257A76EEA77AF7EE006A77EE45
S31508022770A67A67EE277AC7ED077A21E03B6907EE64
S31508022780903AF8EE677ADFED266A86EEA77A1E4B4E
S315080227901B6BC3F3080307EE903AF8EE676A97EDE8
S315080227A0026ADFED1D5AC6EE257A76EEA77AF7EEAD
S315080227B0006A77EEA67A67EE277AC7ED077A00BF30
S315080227C0114B1B6B5B0A03F07F0301333B603B68CB
S315080227D007EE903AB8EE677AD7ED076AC6EE877AB9
S315080227E0FCEEE77A17EE903ABB6105E00023BB617F
S315080227F002E0074BBB6100BFBB6918462437BD46DA
S315080228005DF8047B704700BF004402580090D0036D
S3150802281000093D0000127A00000000460024744CAC
S315080228200024744A0024F44A80B582B000AFFFF748
S3150802283081FE0246104B9B691B0A03F00F030F49E0
S31508022840CB5C03F01F0322FA03F37B600A4B9B69F6
S3150802285003F00F03094AD35C03F01F037A6822FACE
S3150802286003F3074A1360074A7B681360044B1B6825
S3150802287018460837BD4680BD00440258E04D020896
S31508022880040000240000002480B500AFFFF7CCFF47
S315080228900246064BDB691B0903F007030449CB5CB6
S315080228A003F01F0322FA03F3184680BD00440258B8
S315080228B0E04D020880B500AFFFF7B6FF0246064BA9
S315080228C0DB691B0A03F007030449CB5C03F01F0309
S315080228D022FA03F3184680BD00440258E04D020866
S315080228E080B500AFFFF7A0FF0246064B1B6A1B091D
S315080228F003F007030449CB5C03F01F0322FA03F330
S31508022900184680BD00440258E04D020880B489B0DA
S3150802291000AF7860A14B9B6A03F00303BB619F4B30
S315080229209B6A1B0B03F03F037B619C4BDB6A1B090B
S3150802293003F001033B61994BDB6BDB08C3F30C0322
S315080229403A6902FB03F307EE903AF8EE677AC7EDA7
S31508022950037A7B69002B00F01181BB69022B00F018
S315080229608380BB69022B00F2A180BB69002B03D0CE
S31508022970BB69012B56D099E0884B1B6803F02003EC
S31508022980002B2DD0854B1B68DB0803F00303844A12
S3150802299022FA03F3BB60BB6807EE903AF8EE676A61
S315080229A07B6907EE903AF8EE677A86EEA77A7B4B52
S315080229B09B6BC3F3080307EE903AF8EE676A97ED46
S315080229C0036ADFED785AC6EE257A76EEA77AF7EE2F
S315080229D0006A77EEA67A67EE277AC7ED077A87E066
S315080229E07B6907EE903AF8EE677ADFED6F6A86EE54
S315080229F0A77A6A4B9B6BC3F3080307EE903AF8EE85
S31508022A00676A97ED036ADFED675AC6EE257A76EEB0
S31508022A10A77AF7EE006A77EEA67A67EE277AC7ED07
S31508022A20077A65E07B6907EE903AF8EE677ADFED9A
S31508022A305F6A86EEA77A594B9B6BC3F3080307EEC8
S31508022A40903AF8EE676A97ED036ADFED565AC6EED4
S31508022A50257A76EEA77AF7EE006A77EEA67A67EE19
S31508022A60277AC7ED077A43E07B6907EE903AF8EED4
S31508022A70677ADFED4F6A86EEA77A484B9B6BC3F3FC
S31508022A80080307EE903AF8EE676A97ED036ADFEDF8
S31508022A90455AC6EE257A76EEA77AF7EE006A77EEFB
S31508022AA0A67A67EE277AC7ED077A21E07B6907EEF1
S31508022AB0903AF8EE677ADFED3D6A86EEA77A374BEB
S31508022AC09B6BC3F3080307EE903AF8EE676A97ED35
S31508022AD0036ADFED345AC6EE257A76EEA77AF7EE62
S31508022AE0006A77EEA67A67EE277AC7ED077A00BFFD
S31508022AF02A4B9B6B5B0A03F07F0307EE903AF8EECC
S31508022B00677AB7EE007A37EE877AD7ED076AC6EEA6
S31508022B10877AFCEEE77A17EE902A7B681A601F4BD3
S31508022B209B6B1B0C03F07F0307EE903AF8EE677A6D
S31508022B30B7EE007A37EE877AD7ED076AC6EE877A56
S31508022B40FCEEE77A17EE902A7B685A60134B9B6B6A
S31508022B501B0E03F07F0307EE903AF8EE677AB7EE9C
S31508022B60007A37EE877AD7ED076AC6EE877AFCEEE1
S31508022B70E77A17EE902A7B689A6008E07B6800225B
S31508022B801A607B6800225A607B6800229A6000BF3E
S31508022B902437BD465DF8047B704700BF00440258DF
S31508022BA00090D003000000460024744C0024744AA6
S31508022BB00024F44A80B489B000AF7860A14B9B6ABE
S31508022BC003F00303BB619F4B9B6A1B0D03F03F0394
S31508022BD07B619C4BDB6A1B0A03F001033B61994B41
S31508022BE05B6CDB08C3F30C033A6902FB03F307EEDB
S31508022BF0903AF8EE677AC7ED037A7B69002B00F004
S31508022C001181BB69022B00F08380BB69022B00F29B
S31508022C10A180BB69002B03D0BB69012B56D099E072
S31508022C20884B1B6803F02003002B2DD0854B1B68AD
S31508022C30DB0803F00303844A22FA03F3BB60BB688A
S31508022C4007EE903AF8EE676A7B6907EE903AF8EE75
S31508022C50677A86EEA77A7B4B1B6CC3F3080307EEEB
S31508022C60903AF8EE676A97ED036ADFED785AC6EE90
S31508022C70257A76EEA77AF7EE006A77EEA67A67EEF7
S31508022C80277AC7ED077A87E07B6907EE903AF8EE6E
S31508022C90677ADFED6F6A86EEA77A6A4B1B6CC3F317
S31508022CA0080307EE903AF8EE676A97ED036ADFEDD6
S31508022CB0675AC6EE257A76EEA77AF7EE006A77EEB7
S31508022CC0A67A67EE277AC7ED077A65E07B6907EE8B
S31508022CD0903AF8EE677ADFED5F6A86EEA77A594B85
S31508022CE01B6CC3F3080307EE903AF8EE676A97ED92
S31508022CF0036ADFED565AC6EE257A76EEA77AF7EE1E
S31508022D00006A77EEA67A67EE277AC7ED077A43E076
S31508022D107B6907EE903AF8EE677ADFED4F6A86EE40
S31508022D20A77A484B1B6CC3F3080307EE903AF8EEF2
S31508022D30676A97ED036ADFED455AC6EE257A76EE9F
S31508022D40A77AF7EE006A77EEA67A67EE277AC7EDD4
S31508022D50077A21E07B6907EE903AF8EE677ADFEDAB
S31508022D603D6A86EEA77A374B1B6CC3F3080307EE58
S31508022D70903AF8EE676A97ED036ADFED345AC6EEC3
S31508022D80257A76EEA77AF7EE006A77EEA67A67EEE6
S31508022D90277AC7ED077A00BF2A4B1B6C5B0A03F03A
S31508022DA07F0307EE903AF8EE677AB7EE007A37EEC7
S31508022DB0877AD7ED076AC6EE877AFCEEE77A17EEC8
S31508022DC0902A7B681A601F4B1B6C1B0C03F07F034F
S31508022DD007EE903AF8EE677AB7EE007A37EE877A18
S31508022DE0D7ED076AC6EE877AFCEEE77A17EE902ADF
S31508022DF07B685A60134B1B6C1B0E03F07F0307EEAE
S31508022E00903AF8EE677AB7EE007A37EE877AD7ED18
S31508022E10076AC6EE877AFCEEE77A17EE902A7B688F
S31508022E209A6008E07B6800221A607B6800225A6072
S31508022E307B6800229A6000BF2437BD465DF8047B92
S31508022E40704700BF004402580090D00300000046B5
S31508022E500024744C0024744A0024F44A80B582B0D3
S31508022E6000AF78607B68002B01D1012342E07B68C2
S31508022E70D3F88830002B06D17B68002283F8842099
S31508022E80786800F03BF87B682422C3F888207B68C0
S31508022E901B681A687B681B6822F001021A607B6845
S31508022EA09B6A002B02D0786800F034FE786800F03E
S31508022EB0C9F80346012B01D101231BE07B681B6875
S31508022EC05A687B681B6822F490425A607B681B68C2
S31508022ED09A687B681B6822F02A029A607B681B68DC
S31508022EE01A687B681B6842F001021A60786800F06B
S31508022EF0B3FE034618460837BD4680BD80B483B084
S31508022F0000AF786000BF0C37BD465DF8047B70479A
S31508022F1080B58AB002AFF860B9603B601346FB80A1
S31508022F20FB68D3F88830202B40F08680BB68002BDC
S31508022F3002D0FB88002B01D101237EE0FB68002228
S31508022F40C3F89020FB682122C3F88820FEF730F9DF
S31508022F507861FB68FA88A3F85420FB68FA88A3F814
S31508022F605620FB689B68B3F5805F08D1FB681B692E
S31508022F70002B04D10023FB61BB68BB6103E0BB687D
S31508022F80FB610023BB613AE03B6800937B69002240
S31508022F908021F86800F00AFF0346002B05D0FB687B
S31508022FA02022C3F88820032347E0FB69002B0BD1B4
S31508022FB0BB691B881A46FB681B68C2F308029A6239
S31508022FC0BB690233BB6107E0FB691A78FB681B68B9
S31508022FD09A62FB690133FB61FB68D3F8883003F018
S31508022FE02103212B09D1FB68B3F856309BB2013B6A
S31508022FF09AB2FB68A3F8562001E001231DE0FB689C
S31508023000B3F856309BB2002BBED13B6800937B695E
S3150802301000224021F86800F0C9FE0346002B05D0BD
S31508023020FB682022C3F88820032306E0FB682022D7
S31508023030C3F88820002300E0022318462037BD463D
S3150802304080BD00002DE9B04F92B000AF7861002331
S3150802305087F842307B699A687B691B691A437B69E0
S315080230605B691A437B69DB6913437B647B691B686B
S315080230701A68BE4B13407A691268796C0B4313605F
S315080230807B691B685B6823F440517B69DA687B6954
S315080230901B680A435A607B699B697B647B691B6868
S315080230A0B34A934204D07B691B6A7A6C13437B64E6
S315080230B07B691B689A68AF4B13407A691268796C08
S315080230C00B4393607B691B68DB6A23F00F017B69FC
S315080230D05A6A7B691B680A43DA627B691B68A64AD5
S315080230E0934277D1A54B5B6D03F03803282B6DD835
S315080230F001A252F823F000BF9D310208CD31020821
S31508023100CD310208CD310208CD310208CD3102088F
S31508023110CD310208CD310208A5310208CD310208A7
S31508023120CD310208CD310208CD310208CD3102086F
S31508023130CD310208CD310208AD310208CD3102087F
S31508023140CD310208CD310208CD310208CD3102084F
S31508023150CD310208CD310208B5310208CD31020857
S31508023160CD310208CD310208CD310208CD3102082F
S31508023170CD310208CD310208BD310208CD3102082F
S31508023180CD310208CD310208CD310208CD3102080F
S31508023190CD310208CD310208C5310208012387F86C
S315080231A0433022E2042387F843301EE2082387F8D5
S315080231B043301AE2102387F8433016E2202387F8B1
S315080231C0433012E2402387F843300EE2802387F821
S315080231D043300AE27B691B68694A934230D1674BDE
S315080231E05B6D03F00703052B26D801A252F823F0DC
S315080231F0093202081132020819320208213202087B
S315080232002932020831320208002387F84330ECE1FA
S31508023210042387F84330E8E1082387F84330E4E1DA
S31508023220102387F84330E0E1202387F84330DCE1B6
S31508023230402387F84330D8E1802387F84330D4E126
S315080232407B691B684F4A934230D14C4B5B6D03F046
S315080232500703052B26D801A252F823F07532020875
S315080232607D320208853202088D320208953202083A
S315080232709D320208002387F84330B6E1042387F813
S315080232804330B2E1082387F84330AEE1102387F8CA
S315080232904330AAE1202387F84330A6E1402387F882
S315080232A04330A2E1802387F843309EE17B691B689D
S315080232B0354A934230D1314B5B6D03F00703052B38
S315080232C026D801A252F823F0E1320208E9320208AE
S315080232D0F1320208F93202080133020809330208F8
S315080232E0002387F8433080E1042387F843307CE1E2
S315080232F0082387F8433078E1102387F8433074E1CE
S31508023300202387F8433070E1402387F843306CE185
S31508023310802387F8433068E17B691B681B4A93421E
S3150802332042D1164B5B6D03F00703052B38D801A271
S3150802333052F823F04D330208553302085D3302086A
S31508023340653302089133020899330208002387F885
S3150802335043304AE1042387F8433046E1082387F8D5
S31508023360433042E1102387F843303EE1F369FFCF49
S31508023370000C0058FFF4FF110010014000440258E7
S315080233800044004000480040004C00400050004005
S31508023390202387F8433028E1402387F8433024E185
S315080233A0802387F8433020E17B691B68CB4A934226
S315080233B076D1CB4B5B6D03F03803282B6CD801A270
S315080233C052F823F06934020899340208993402083B
S315080233D09934020899340208993402089934020881
S315080233E09934020871340208993402089934020899
S315080233F09934020899340208993402089934020861
S315080234009934020879340208993402089934020870
S315080234109934020899340208993402089934020840
S315080234209934020881340208993402089934020848
S315080234309934020899340208993402089934020820
S315080234409934020889340208993402089934020820
S315080234509934020899340208993402089934020800
S315080234609934020891340208012387F84330BCE0F4
S31508023470042387F84330B8E0082387F84330B4E0DA
S31508023480102387F84330B0E0202387F84330ACE0B6
S31508023490402387F84330A8E0802387F84330A4E026
S315080234A07B691B688F4A934230D18D4B5B6D03F063
S315080234B00703052B26D801A252F823F0D5340208B1
S315080234C0DD340208E5340208ED340208F534020850
S315080234D0FD340208002387F8433086E0042387F880
S315080234E0433082E0082387F843307EE0102387F8CA
S315080234F043307AE0202387F8433076E0402387F882
S31508023500433072E0802387F843306EE07B691B689C
S31508023510754A934230D1724B5B6D03F00703052B54
S3150802352026D801A252F823F0413502084935020885
S31508023530513502085935020861350208693502080B
S31508023540002387F8433050E0042387F843304CE0E1
S31508023550082387F8433048E0102387F8433044E0CD
S31508023560202387F8433040E0402387F843303CE085
S31508023570802387F8433038E07B691B685B4A9342AD
S3150802358030D1574B9B6D03F00703052B26D801A2B2
S3150802359052F823F0AD350208B5350208BD350208E2
S315080235A0C5350208CD350208D5350208022387F843
S315080235B043301AE0042387F8433016E0082387F8D5
S315080235C0433012E0102387F843300EE0202387F8B1
S315080235D043300AE0402387F8433006E0802387F821
S315080235E0433002E0802387F843307B691B683F4AF1
S315080235F0934240F0F88097F84330202B46DC022BA2
S31508023600C0F28280023B1E2B7ED801A252F823F01A
S3150802361093360208093702089B3602080937020858
S315080236200937020809370208AB36020809370208C1
S315080236300937020809370208093702080937020852
S315080236400937020809370208BB3602080937020891
S315080236500937020809370208093702080937020832
S315080236600937020809370208093702080937020822
S315080236700937020809370208093702080937020812
S315080236800937020809370208FB360208402B37D0E9
S315080236903AE0FFF725F9F8633CE007F124031846F8
S315080236A0FFF734F9BB6AFB6334E007F118031846DF
S315080236B0FFF780FAFB69FB632CE0094B1B6803F0F2
S315080236C02003002B16D0064B1B68DB0803F0030306
S315080236D0074A22FA03F3FB631CE000BF0014014009
S315080236E00044025800780040007C0040000C005854
S315080236F00090D0039D4BFB630CE09D4BFB6309E0F6
S315080237004FF40043FB6305E00023FB63012387F8BC
S31508023710423000BFFB6B002B00F0DE817B695B6ADF
S31508023720944A32F813301A46FB6BB3FBF2F33B6347
S315080237307B695A6813465B0013443A6B9A4205D36F
S315080237407B695B681B033A6B9A4203D9012387F8A4
S315080237504230C1E1FB6B0022BB60FA607B695B6A9F
S31508023760844A32F813309BB200223B607A60D7E96A
S315080237700023D7E90201FCF703FE02460B46104670
S3150802378019464FF000024FF000030B0243EA10639A
S31508023790020279694968490800200C46054612EB77
S315080237A0040843EB05097B695B6800229A4693463F
S315080237B052465B4640464946FCF7E2FD02460B4640
S315080237C01346BB63BB6BB3F5407F08D3BB6BB3F53C
S315080237D0801F04D27B691B68BA6BDA607CE101231D
S315080237E087F8423078E17B69DB69B3F5004F40F030
S315080237F0C58097F84330202B48DC002B7BDB202B37
S3150802380079D801A252F823F0933802089B380208A5
S31508023810F7380208F7380208A3380208F738020808
S31508023820F7380208F7380208B3380208F7380208E8
S31508023830F7380208F7380208F7380208F738020894
S31508023840F7380208F7380208C3380208F7380208B8
S31508023850F7380208F7380208F7380208F738020874
S31508023860F7380208F7380208F7380208F738020864
S31508023870F7380208F7380208F7380208F738020854
S31508023880F7380208F7380208E9380208402B2ED022
S3150802389031E0FEF7F9FFF86333E0FFF70BF8F86358
S315080238A02FE007F124031846FFF730F8BB6AFB63DB
S315080238B027E007F118031846FFF77CF9FB69FB6353
S315080238C01FE02D4B1B6803F02003002B09D02A4B5F
S315080238D01B68DB0803F00303244A22FA03F3FB639B
S315080238E00FE0224BFB630CE0214BFB6309E04FF42C
S315080238F00043FB6305E00023FB63012387F842309C
S3150802390000BFFB6B002B00F0E7807B695B6A194AF4
S3150802391032F813301A46FB6BB3FBF2F35A007B6993
S315080239205B685B081A447B695B68B2FBF3F3BB63AB
S31508023930BB6B0F2B16D9BB6BB3F5803F12D2BB6B91
S315080239409BB223F00F03FB86BB6B5B089BB203F0AB
S3150802395007039AB2FB8E1343FB867B691B68FA8EB2
S31508023960DA60B9E0012387F84230B5E00090D00367
S3150802397000093D00FC4D02080044025897F84330FE
S31508023980202B49DC002B7CDB202B7AD801A252F8AB
S3150802399023F000BF1F3A0208273A0208833A0208B0
S315080239A0833A02082F3A0208833A0208833A02083F
S315080239B0833A02083F3A0208833A0208833A02081F
S315080239C0833A0208833A0208833A0208833A0208CB
S315080239D0833A02084F3A0208833A0208833A0208EF
S315080239E0833A0208833A0208833A0208833A0208AB
S315080239F0833A0208833A0208833A0208833A02089B
S31508023A00833A0208833A0208833A0208833A02088A
S31508023A10833A0208753A0208402B2ED031E0FEF7A7
S31508023A2033FFF86333E0FEF745FFF8632FE007F14B
S31508023A3024031846FEF76AFFBB6AFB6327E007F111
S31508023A4018031846FFF7B6F8FB69FB631FE02D4B10
S31508023A501B6803F02003002B09D02A4B1B68DB08DE
S31508023A6003F00303284A22FA03F3FB630FE0264B0B
S31508023A70FB630CE0254BFB6309E04FF40043FB6351
S31508023A8005E00023FB63012387F8423000BFFB6B86
S31508023A90002B21D07B695B6A1D4A32F813301A461D
S31508023AA0FB6BB3FBF2F27B695B685B081A447B69C2
S31508023AB05B68B2FBF3F3BB63BB6B0F2B09D9BB6B1A
S31508023AC0B3F5803F05D2BB6B9AB27B691B68DA6095
S31508023AD002E0012387F842307B690122A3F86A20B3
S31508023AE07B690122A3F868207B6900225A677B69F1
S31508023AF000229A6797F8423018464837BD46BDE80D
S31508023B00B08F00BF004402580090D00300093D0060
S31508023B10FC4D020880B483B000AF78607B689B6A6C
S31508023B2003F00803002B0AD07B681B685B6823F442
S31508023B3000417B689A6B7B681B680A435A607B68FC
S31508023B409B6A03F00103002B0AD07B681B685B683B
S31508023B5023F400317B68DA6A7B681B680A435A6079
S31508023B607B689B6A03F00203002B0AD07B681B68FA
S31508023B705B6823F480317B681A6B7B681B680A438F
S31508023B805A607B689B6A03F00403002B0AD07B68A1
S31508023B901B685B6823F480217B685A6B7B681B6809
S31508023BA00A435A607B689B6A03F01003002B0AD00B
S31508023BB07B681B689B6823F480517B68DA6B7B6899
S31508023BC01B680A439A607B689B6A03F02003002BF2
S31508023BD00AD07B681B689B6823F400517B681A6CC1
S31508023BE07B681B680A439A607B689B6A03F04003FA
S31508023BF0002B1AD07B681B685B6823F480117B68EC
S31508023C005A6C7B681B680A435A607B685B6CB3F51F
S31508023C10801F0AD17B681B685B6823F4C0017B6836
S31508023C209A6C7B681B680A435A607B689B6A03F036
S31508023C308003002B0AD07B681B685B6823F400218B
S31508023C407B68DA6C7B681B680A435A6000BF0C37CC
S31508023C50BD465DF8047B704780B598B002AF7860C0
S31508023C607B680022C3F89020FDF7A2FA78657B6884
S31508023C701B681B6803F00803082B2FD16FF07E43DD
S31508023C8000937B6D00224FF40011786800F08EF8DD
S31508023C900346002B22D07B681B68BB63BB6B53E8C9
S31508023CA0003F7B637B6B23F080033B657B681B6865
S31508023CB01A463B6D7B643A64396C7A6C41E8002398
S31508023CC0FB63FB6B002BE6D17B682022C3F88820B6
S31508023CD07B68002283F88420032363E07B681B68E1
S31508023CE01B6803F00403042B49D16FF07E4300934B
S31508023CF07B6D00224FF48001786800F057F803467E
S31508023D00002B3CD07B681B687B627B6A53E8003FCA
S31508023D103B623B6A23F49073FB647B681B681A4612
S31508023D20FB6C3B63FA62F96A3A6B41E80023BB62B1
S31508023D30BB6A002BE6D17B681B6808333B613B698B
S31508023D4053E8003FFB60FB6823F00103BB647B6812
S31508023D501B680833BA6CFA61BB61B969FA6941E84A
S31508023D6000237B617B69002BE5D17B682022C3F89F
S31508023D708C207B68002283F88420032312E07B6868
S31508023D802022C3F888207B682022C3F88C207B680F
S31508023D900022DA667B6800221A677B68002283F8AB
S31508023DA08420002318465837BD4680BD80B584B0A6
S31508023DB000AFF860B9603B601346FB714FE0BB6920
S31508023DC0B3F1FF3F4BD0FDF7F3F902463B68D31A2E
S31508023DD0BA699A4202D3BB69002B01D103234EE08A
S31508023DE0FB681B681B6803F00403002B37D0BB680B
S31508023DF0802B34D0BB68402B31D0FB681B68DB694B
S31508023E0003F00803082B10D1FB681B6808221A6204
S31508023E10F86800F039F8FB680822C3F89020FB68B6
S31508023E20002283F88420012329E0FB681B68DB69EA
S31508023E3003F40063B3F5006F11D1FB681B684FF4F6
S31508023E4000621A62F86800F01FF8FB682022C3F8BD
S31508023E509020FB68002283F8842003230FE0FB6886
S31508023E601B68DA69BB681340BA689A420CBF012319
S31508023E700023DBB21A46FB799A42A0D000231846E1
S31508023E801037BD4680BD000080B495B000AF78609B
S31508023E907B681B687B637B6B53E8003F3B633B6B2A
S31508023EA023F49073FB647B681B681A46FB6C3B64BD
S31508023EB0FA63F96B3A6C41E80023BB63BB6B002BD0
S31508023EC0E6D17B681B6808333B623B6A53E8003FCE
S31508023ED0FB61FA691E4B1340BB647B681B68083397
S31508023EE0BA6CFA62BB62B96AFA6A41E800237B6273
S31508023EF07B6A002BE5D17B68DB6E012B18D17B68C8
S31508023F001B68FB60FB6853E8003FBB60BB6823F095
S31508023F1010037B647B681B681A467B6CBB617A61FB
S31508023F207969BA6941E800233B613B69002BE6D10E
S31508023F307B682022C3F88C207B680022DA667B68BD
S31508023F4000225A6700BF5437BD465DF8047B7047A6
S31508023F50FEFFFFEF002310B50446C0E90033C0E9AF
S31508023F600433836081814366C281836119460822CC
S31508023F705C3000F009F90D4B63620D4BA3620D4BE1
S31508023F80E3620D4B23630D4B24629C4206D003F178
S31508023F906802944202D0D0339C4205D104F15800FB
S31508023FA0BDE8104000F068B910BD00BF0141020823
S31508023FB0234102085B41020881410208600100248C
S31508023FC0024A0349034800F06BB800BF2C000024DC
S31508023FD0194B02083C00002441680C4B994210B563
S31508023FE0044601D000F098FDA168094B994202D017
S31508023FF0204600F091FDE168064B994204D020461E
S31508024000BDE8104000F088BD10BD00BF6001002465
S31508024010C8010024300200240C4B0D4A0D4810B585
S3150802402004211A600022FFF795FF0A4B01221C465B
S31508024030092103F16800FFF78DFF04F1D00002227F
S31508024040BDE810401221FFF785BF00BF9802002481
S31508024050C13F020860010024014800F00EB900BF02
S31508024060A1020024014800F009B900BFA1020024F8
S3150802407010B50446FFF7F0FF236A1BB1BDE81040EE
S31508024080FFF7F0BF044B2362044B1B68002BF5D1E4
S31508024090FFF7C2FFF2E700BFD93F020898020024E1
S315080240A02DE9F8430746884614460026D4E90195C1
S315080240B0B9F1010905D52468002CF7D13046BDE8C7
S315080240C0F883AB89012B07D9B5F90E30013303D032
S315080240D029463846C04706436835E9E70FB407B5A7
S315080240E0064904AB086853F8042B8168019300F06B
S315080240F0E9F903B05DF804EB04B070473800002410
S3150802410010B50C46B1F90E1000F068F80028ABBFDE
S31508024110636DA3891B1823F48053ACBF6365A3811F
S3150802412010BD2DE9F0411F468B89DB0505460C4675
S31508024130164605D5B1F90E100223002200F03CF806
S31508024140A389B4F90E1023F48053A38132463B4661
S315080241502846BDE8F04100F053B810B50C46B1F94F
S315080241600E1000F029F8B4F90C30421C0BBF23F4E8
S31508024170805343F48053A381A38118BF606510BDA1
S31508024180B1F90E1000F008B802440346934200D172
S31508024190704703F8011BF9E738B5064D00230446B4
S315080241A008462B60FCF70BFC431C02D12B6803B1B3
S315080241B0236038BD9C02002438B5074D04460846DC
S315080241C0114600222A601A46FCF720FC431C02D13B
S315080241D02B6803B1236038BD9C02002438B5074D0D
S315080241E004460846114600222A601A46FCF7AEFB28
S315080241F0431C02D12B6803B1236038BD9C020024FC
S3150802420038B5074D04460846114600222A601A4662
S31508024210FCF7B9FB431C02D12B6803B1236038BDF6
S315080242209C020024014B1868704700BF380000241E
S3150802423070B50D4B0D4D5B1B9C100026A64209D18D
S3150802424000F0B4FD0A4D0B4B5B1B9C100026A642E0
S3150802425005D170BD55F8043B98470136EEE755F887
S31508024260043B98470136F2E7504E0208504E0208C0
S31508024270504E0208544E02087047704770470000B5
S3150802428038B50546002941D051F8043C0C1F002BCD
S31508024290B8BFE41800F0E0F81D4A136833B9636042
S315080242A014602846BDE8384000F0DCB8A34208D9B5
S315080242B0206821188B4201BF19685B6809182160BA
S315080242C0EDE71A465B680BB1A342FAD91168501892
S315080242D0A0420BD120680144501883421160E0D1F4
S315080242E018685B68536008441060DAE702D90C2341
S315080242F02B60D6E7206821188B4204BF19685B68D1
S31508024300636004BF091821605460CAE738BD00BF5C
S31508024310A802002470B50F4E0C463168054611B93D
S3150802432000F0B4FC30602146284600F0AFFC431C7E
S3150802433003D14FF0FF34204670BDC41C24F0030499
S31508024340A042F8D0211A284600F0A0FC0130F2D18A
S31508024350EFE700BFA40200242DE9F843CD1C25F09F
S31508024360030508350C2D38BF0C25002D064601DB42
S31508024370A94204D90C2333600020BDE8F883DFF88C
S31508024380D48000F069F8D8F800301C4644BB2946A8
S315080243903046FFF7BFFF431C044658D1D8F8004001
S315080243A02746002F43D1002C4BD023683946304686
S315080243B004EB030900F06AFC814542D121686D1AB3
S315080243C029463046FFF7A6FF01303AD023682B4428
S315080243D02360D8F800305A6862BBC8F800700FE04C
S315080243E02268521B20D40B2A17D96119A3422560C9
S315080243F018BF5960636808BFC8F8001062514B605D
S31508024400304600F02FF804F10B00231D20F00700B8
S31508024410C21A1CBF1B1AA350AFE76268A3420CBF9D
S31508024420C8F800205A60EBE723466468AEE73C46C4
S315080244307F68B6E71A465B68A342FBD1002353603E
S31508024440DEE70C233360304600F00CF894E705608B
S31508024450D6E700BFA80200240148FFF70EBF00BF37
S31508024460A00200240148FFF709BF00BFA0020024EA
S315080244709368013B002B10B4936008DA9469A3424F
S3150802448001DB0A2903D15DF8044B00F06DBB136802
S31508024490581C1060197008465DF8044B7047F8B549
S315080244A006460F461446D518AC4201D1002007E04D
S315080244B014F8011B3A463046FFF7DAFF431CF3D1DC
S315080244C0F8BD00002DE9F0470D469CB014461F467C
S315080244D0064618B1036A0BB9FFF7CAFD6B6ED90710
S315080244E005D4AB899A0502D4A86DFFF7C6FEAB8937
S315080244F01B0701D52B699BB92946304600F072FB8A
S3150802450070B16B6EDC0704D54FF0FF301CB0BDE806
S31508024510F087AB899805F7D4A86DFFF7AFFEF3E7E6
S315080245200023099320238DF82930039730236A4FF5
S315080245308DF82A304FF001082346994613F8012BC5
S315080245400AB1252AF9D1B9EB040A0BD053462246F9
S3150802455029463046FFF7A3FF013000F0A480099AE6
S315080245605244099299F80030002B00F09C800023EF
S315080245704FF0FF32CDE9052309F1010904930793A8
S315080245808DF853301A934C46534814F8011B0522EA
S31508024590FBF7A6FE049BD0B9D90644BF20228DF8A4
S315080245A053201A0744BF2B228DF8532099F800206E
S315080245B02A2A13D0079A4C4600204FF00A0C2146A5
S315080245C011F8013B303B092B49D968B913E0C01BE6
S315080245D008FA00F018430490A146D4E7039A111D7D
S315080245E012680391002A01DB079204E0524243F063
S315080245F002030792049323782E2B0AD163782A2B77
S3150802460032D1039B1A1D1B68039243EAE3730234F1
S315080246100593DFF8D490217803224846FBF760FE1B
S3150802462038B1049BA0EB09004022824013430134AF
S31508024630049314F8011B29488DF828100622FBF763
S315080246404FFE00283ED0264818BB039B073323F0AB
S31508024650070308330393099B034409936CE70CFB8E
S3150802466002320C460120AAE70023013405931946B3
S315080246704FF00A0C204610F8012B303A092A03D9C2
S31508024680002BC6D00591C4E70CFB01210446012381
S31508024690F0E703AB00932A46124B04A93046AFF360
S315080246A00080431CD7D16B6ED90705D4AB899A050E
S315080246B002D4A86DFFF7E2FDAB895B063FF524AF8E
S315080246C0099823E703AB00932A46064B04A930460A
S315080246D000F07AF8E5E700BF144E02081E4E0208FB
S315080246E0000000009F4402081A4E02082DE9F0470E
S315080246F0164698468A680B69DDF820909342B8BF39
S315080247001346336091F8432007460C460AB1013333
S3150802471033602368990642BF3368023333602568DB
S3150802472015F0060506D104F1190AE36832689B1AE0
S31508024730AB4226DC94F843302268003B18BF0123BB
S3150802474092062BD404F1430241463846C847013043
S315080247501ED02368226903F00603042B02BFE5680C
S315080247603368ED1AA3680CBF25EAE575002593425E
S31508024770C4BF9B1AED1800261A34B5421AD1002076
S3150802478008E00123524641463846C847013003D15C
S315080247904FF0FF30BDE8F0870135C6E7E1185A1C2D
S315080247A0302081F84300224494F8451082F84310D9
S315080247B00233C7E70123224641463846C847013035
S315080247C0E6D00136D9E700002DE9F0430D7E85B023
S315080247D0782D90460C9E07460C46994601F14302EF
S315080247E007D8622D0AD8002D00F0D780582D00F080
S315080247F0BC8004F1420684F842503BE0A5F163030B
S31508024800152BF6D801A151F823F000BF6548020816
S3150802481079480208F3470208F3470208F3470208F1
S31508024820F347020879480208F3470208F3470208E1
S31508024830F3470208F347020881490208A348020817
S3150802484033490208F3470208F3470208A349020854
S31508024850F3470208A3480208F3470208F347020887
S315080248603B49020833681A1D1B68326004F1420686
S3150802487084F842300123A1E033682068191D3160AB
S31508024880060601D51D6803E04506FBD5B3F90050B7
S31508024890002D03DA2D236D4284F843305B480A2340
S315080248A011E021683368080653F8045B02D4490606
S315080248B048BFADB23360237E54486F2B5CD10823C0
S315080248C0002184F843106668A660002E05DB21687D
S315080248D02E4321F00401216050D01646B5FBF3F1B0
S315080248E003FB115C10F80CC006F801CDAC46634513
S315080248F00D46F3D9082B0BD12368DB0708D52369A4
S3150802490061689942DEBF302306F8013C06F1FF369C
S31508024910921B2261CDF80090434603AA21463846E7
S31508024920FFF7E4FE01304ED14FF0FF3005B0BDE887
S31508024930F083236843F0200323603548782584F8FA
S3150802494045502368316813F0800F51F8045B03D190
S3150802495013F0400F18BFADB23160D90744BF43F018
S31508024960200323601DB11023AAE72848E7E7236836
S3150802497023F020032360F6E70A23A1E71646B9E7E0
S31508024980336825686169181D30602E061B6801D5D3
S31508024990196002E06806FBD51980002323611646D2
S315080249A0B8E733681A1D32601E686268002130460D
S315080249B0FBF796FC08B1801B6060636823610023DD
S315080249C084F84330A6E72369324641463846C84743
S315080249D00130A9D023689B0713D4E068039B984249
S315080249E0B8BF1846A2E70123324641463846C847A9
S315080249F0013099D00135E36803995B1AAB42F2DCC0
S31508024A00EBE7002504F11906F5E700BF254E020873
S31508024A10364E0208B1F90C202DE9F0411607054673
S31508024A200C4651D44B68002B02DC0B6C002B49DD7B
S31508024A30E66A002E46D0002312F480522F682B60B5
S31508024A4031D0626DA389590705D56368D21A636B9B
S31508024A500BB1236CD21A0023E66A216A2846B047AC
S31508024A60421CB4F90C3006D129681D2946D8294AB0
S31508024A70CA40D60742D500226260D904226922605A
S31508024A8004D5421C01D12B6803B96065616B2F609E
S31508024A90C1B104F14403994202D02846FFF7F0FB5C
S31508024AA0002363630EE0216A01232846B0470246C3
S31508024AB0501CC7D12B68002BC4D01D2B01D0162B36
S31508024AC01AD12F6000201EE00F69002FFAD0930733
S31508024AD00E6808BF4B690F6018BF0023A6EB0708CC
S31508024AE08B60B8F1000FEDDD216AA66A43463A46A5
S31508024AF02846B047002808DCB4F90C3043F04003D6
S31508024B00A3814FF0FF30BDE8F0810744A8EB000807
S31508024B10E7E700BF0100402038B50B6905460C4699
S31508024B2013B90025284638BD18B1036A0BB9FFF731
S31508024B309FFAB4F90C30002BF3D0626ED00704D476
S31508024B40990502D4A06DFFF798FB28462146FFF780
S31508024B5061FF636EDA070546E4D4A3899B05E1D4AF
S31508024B60A06DFFF78BFBDDE7F8B50E461446054642
S31508024B7018B1036A0BB9FFF77BFAA369A360A38985
S31508024B801A0701D5236943B92146284600F02AF8AF
S31508024B9018B14FF0FF373846F8BD23682269981ACC
S31508024BA06369F6B28342374605DC21462846FFF793
S31508024BB0B3FF0028EDD1A368013BA36023685A1C02
S31508024BC022601E706269431C9A4204D0A389DB07DD
S31508024BD0E1D50A2EDFD121462846FFF79DFF002898
S31508024BE0D9D0D6E738B5284B054618680C4618B109
S31508024BF0036A0BB9FFF73CFAB4F90C301A0721D449
S31508024C00D80607D409222A6043F04003A3814FF04D
S31508024C10FF3030E0590712D5616B41B104F1440304
S31508024C20994202D02846FFF72BFB00236363002232
S31508024C30B4F90C3062602269226023F0240343F03F
S31508024C400803A38122693AB99A0501D5180603D53C
S31508024C502146284600F04EF8B4F90C3013F001024A
S31508024C600AD00022A26062695242A261226942B94E
S31508024C7013F08000C8D138BD990758BF6269A2608F
S31508024C80F4E70020F7E700BF3800002438B5064DE0
S31508024C900023044608462B60FBF7C6FE431C02D1D6
S31508024CA02B6803B1236038BD9C02002470B50C46FC
S31508024CB0B1F90E10002996B015461E460ADAA189E0
S31508024CC011F0800113D14FF48062002031602A600E
S31508024CD016B070BD6A4600F047F80028EFDB019966
S31508024CE001F47041A1F5005359425941EBE70021FD
S31508024CF04022EAE78B8973B59E0705460C4607D517
S31508024D0004F14703236023610123636102B070BD86
S31508024D1001AB6A46FFF7CAFF009E28463146FFF7EF
S31508024D201BFBB4F90C3038B99A05EFD423F0030308
S31508024D3043F00203A381E3E743F08003A381019BC7
S31508024D402060C4E90406002BE0D0B4F90E10284608
S31508024D5000F01CF80028D9D0A38923F0030343F0F6
S31508024D600103A381D2E7000038B5074D00230446A4
S31508024D70084611462B60FBF72EFE431C02D12B6810
S31508024D8003B1236038BD00BF9C02002438B5064D26
S31508024D900023044608462B60FBF72DFE431C02D16E
S31508024DA02B6803B1236038BD9C020024F8B500BF06
S31508024DB0F8BC08BC9E467047F8B500BFF8BC08BCEC
S30908024DC09E46704744
S31508024DC457656C636F6D6520746F2053544D333287
S31508024DD420776F726C6420210A0D0000000000001F
S31508024DE4010203040102030406070809010002007A
S31508024DF4004000000D0030160100020004000600FF
S31508024E0408000A000C00100020004000800000017F
S31508024E14232D302B2000686C4C006566674546478F
S31508024E240030313233343536373839414243444512
S31508024E344600303132333435363738396162636481
S30908024E44656600008F
S30D08024E4898B4FF7F0100000087
S30908024E50C50202087D
S30908024E54A10202089D
S31508024E580090D0030090D00300480040000402588E
S31508024E68001002580004025800080258E50F020802
S31508024E780F000000100000000100000000000000FA
S31508024E8803000000600100243C0000240000000022
S31508024E9860010024C8010024300200240000000032
S31508024EA800000000000000000000000000000000EA
S31508024EB800000000000000000000000000000000DA
S31508024EC800000000000000000000000000000000CA
S30D08024ED80000000000000000C2
S70508020BF5F0
