S01900006F70656E626C745F73746D3332683734332E73726563F9
S3150800000000000824290C0008410B0008430B0008CF
S31508000010450B0008470B0008490B000800000000C4
S315080000200000000000000000000000004B0B000864
S315080000304D0B0008000000004F0B0008510B00088C
S31508000040790C0008790C0008790C0008790C00086E
S31508000050790C0008790C0008790C0008790C00085E
S31508000060790C0008790C0008790C0008790C00084E
S31508000070790C0008790C0008790C0008790C00083E
S31508000080790C0008790C0008790C0008790C00082E
S31508000090790C0008790C0008790C0008790C00081E
S315080000A0790C0008790C0008790C0008790C00080E
S315080000B0790C0008790C0008790C0008790C0008FE
S315080000C0790C0008790C0008790C0008790C0008EE
S315080000D0790C0008790C0008790C0008790C0008DE
S315080000E0790C0008790C000800000000790C00085B
S315080000F0790C0008790C0008790C0008790C0008BE
S31508000100790C0008790C0008790C0008790C0008AD
S31508000110790C0008790C0008790C0008790C00089D
S31508000120790C0008790C0008790C0008790C00088D
S31508000130790C0008790C0008790C0008790C00087D
S3150800014000000000000000000000000000000000A1
S31508000150790C0008790C0008790C0008790C00085D
S31508000160790C0008790C0008790C0008790C00084D
S31508000170790C0008790C0008790C000800000000CA
S31508000180790C0008790C0008790C0008790C00082D
S31508000190790C0008790C0008790C0008790C00081D
S315080001A0790C0008790C0008790C0008790C00080D
S315080001B0790C0008790C0008790C0008790C0008FD
S315080001C0790C0008790C0008790C0008790C0008ED
S315080001D0790C0008790C0008790C0008790C0008DD
S315080001E0790C0008790C0008790C0008790C0008CD
S315080001F0790C0008790C0008790C0008790C0008BD
S31508000200790C0008790C0008790C0008790C0008AC
S31508000210790C0008790C0008790C0008790C00089C
S31508000220790C0008790C0008790C00080000000019
S31508000230790C0008790C000800000000790C000809
S31508000240790C0008790C0008790C0008790C00086C
S31508000250790C0008790C0008790C0008790C00085C
S31508000260790C0008790C0008790C0008790C00084C
S31508000270790C0008790C0008790C000800000000C9
S31508000280790C0008790C0008790C000800000000B9
S30D0800029000000000790C0008CB
S3150800029810B5054C237833B9044B13B10448AFF3AA
S315080002A800800123237010BD5400002400000000BC
S315080002B8283B000808B5034B1BB103490348AFF3AD
S315080002C8008008BD0000000058000024283B0008EC
S315080002D810B582B000248DF8074000F0CFF803F077
S315080002E8E5F80DF10701204600F0E0F89DF807301B
S315080002F8012B01D002B010BD03F090F9FAE708B552
S3150800030803F0E2F808BD000008B5054B1B6913F4AD
S31508000318005F03D100F03EF8012008BD0020FCE785
S315080003280008025808B5642000F006F808BD08B5A4
S3150800033800F008F808BD0000014B1880704700BF98
S315080003487800002408B503F05FF80E4B1B6898423E
S315080003580FD30D4B1B786BB90B4B01221A700B4B3D
S3150800036880229A6103F050F8094B1B880344054A12
S31508000378136008BD044B00221A70044B4FF40002A0
S315080003889A61EFE7740000247000002400040258FC
S3150800039878000024024B4FF400029A61704700BFA8
S315080003A8000402580C4B1B68C3F3072252FA83F25F
S315080003B8C3F3074010441B0E13FA80F080B20023DB
S315080003C805E0054A1A441279104480B20133372BDE
S315080003D8F7D9404280B270470000002408B5FFF7F5
S315080003E8E1FF044B9B8F984201D0002008BD0120ED
S315080003F8FCE700BF0000002408B5054B1A68054B42
S315080004089A4201D0002008BDFFF7E8FFFBE700BFC6
S3150800041800000024A2E742CE84B0124A02F15C43E7
S31508000428B3F5002F10D222F00703403222F0070254
S31508000438D3E90001CDE90201DDE90201E3E8020199
S315080004489A42F5D104B0704722F00303403222F0ED
S31508000458030219680191019943F8041B9A42F8D1D5
S31508000468F0E700BF0000002408B5FFF79BFF024B22
S315080004789887FFF7D1FF08BD0000002408B5FFF7E5
S31508000488BBFF68B9074B084A1A60002304E0054A07
S315080004981A44002111710133372BF8D9FFF7E4FF05
S315080004A808BD00BF00000024A2E742CE38B50546BD
S315080004B80C46FFF7A1FF034658B1372D8CBF00231A
S315080004C80123002C08BF00231BB1034A2A441279CA
S315080004D82270184638BD00BF0000002400B55FFA30
S315080004E880FC09495CF80130020EC0F3042E02FAB2
S315080004F80EF223EA0203C0F3074000FA0EF003439C
S315080005084CF8013000BD00BF4C440258BFF35F8F5A
S315080005181E4B0022C3F89420C3F89820C3F89C20E1
S315080005281B49C3F8A010C3F89820D3F8A02042F0B6
S315080005380102C3F8A0200122C3F898201549C3F878
S315080005489C101549C3F8A010C3F89820D3F8A02022
S3150800055842F00102C3F8A0200222C3F898204FF0FF
S315080005681051C3F89C100D49C3F8A010C3F8982079
S31508000578D3F8A02042F00102C3F8A0200522C3F848
S315080005889420BFF34F8FBFF36F8F704700ED00E0DD
S315080005983F870410000004301D0005130B000C13D8
S315080005A870B58CB006AD002406940794089409948F
S315080005B80A940B94304BD3F8E02042F00402C3F8AF
S315080005C8E020D3F8E02002F004020592059AD3F851
S315080005D8E02042F08002C3F8E020D3F8E02002F0D9
S315080005E880020492049AD3F8E02042F00102C3F884
S315080005F8E020D3F8E02002F001020392039AD3F828
S31508000608E02042F00202C3F8E020D3F8E02002F026
S3150800061802020292029AD3F8E02042F00802C3F8CE
S31508000628E020D3F8E02002F008020192019AD3F8F4
S31508000638E02042F04002C3F8E020D3F8E03003F0A7
S3150800064840030093009B0D4E4FF40003B3614FF42B
S315080006580053069329460A4801F08CFD8023069321
S3150800066801230793089409940A942946304601F009
S3150800067881FD0CB070BD00BF004402580004025842
S315080006880008025870B590B008AE202200213046FE
S3150800069803F00CFA02AD002402940394049405941A
S315080006A8069407943848FFF719FF384BD3F8E8201B
S315080006B842F48022C3F8E820D3F8E82002F480221E
S315080006C80192019AD3F8E02042F00802C3F8E02024
S315080006D8D3F8E03003F008030093009B4FF4407307
S315080006E80293022303930494059406940723079315
S315080006F82946274801F03EFD08944FF4E13309934B
S315080007080A940B940C940C230D930E940F9431466B
S31508000718204802F021F94FF0402202F6080353E870
S31508000728003F23F0604302F6080242E80031002938
S31508000738F1D14FF0402202F6080353E8003F23F0B0
S31508000748606302F6080242E800310029F1D1114B2C
S315080007581A6822F000521A605A6822F490425A60BF
S315080007689A6822F02A029A601A6842F001021A6008
S31508000778084BDB6913F4001FFAD0064BDB6913F440
S31508000788800FF5D010B070BD080000070044025865
S31508000798000C02580048004008B55B4A136823F065
S315080007A80F0343F004031360574B1B6803F00F034A
S315080007B8042BF9D1554AD36823F0070343F00203FB
S315080007C8D360936943F44043936100E032B94F4BD1
S315080007D89A6912F40052F9D00122F7E74C4B1968C6
S315080007E841F480211960196841F48031196001E0E3
S315080007F8012B06D0464B1B6813F40033F8D0134672
S31508000808F6E7434A916A21F0030141F00201916231
S31508000818D16A41F48031D162D16A41F40031D1629A
S31508000828D16A21F00C0141F00401D162D16A21F0A4
S315080008380201D162916A21F47C7141F0400191620A
S31508000848106B6FF3080040F2DF1101431163116B57
S3150800085821F47E4141F400711163116B21F4FE0104
S3150800086841F498111163116B21F0FE4141F0807132
S315080008781163116841F08071116001E0012A06D000
S31508000888234A126812F00072F8D01A46F6E7204A88
S31508000898936923F00F0343F008039361136923F060
S315080008A8070343F003031361194B1B6903F0380365
S315080008B8182BF9D1164B9A6922F470629A619A69CB
S315080008C822F00F0242F008029A61DA6922F07002F1
S315080008D842F04002DA61DA6922F4E06242F48062A0
S315080008E8DA619A6922F0700242F040029A611A6A3D
S315080008F822F0700242F040021A62064802F0B4F882
S31508000908002000F0F9F908BD0020005200480258F6
S315080009180044025800389C1C1C4BDA6A42F48012C0
S31508000928DA62DA6A42F0C002DA62DA6A42F0200269
S31508000938DA629A6A22F47C3242F480529A629A6B94
S315080009486FF3080242F013029A639A6B22F47E4206
S3150800095842F400729A639A6B22F4FE0242F48032D9
S315080009689A639A6B22F0FE4242F080729A631A687A
S3150800097842F080621A6001E0012B06D0034B1B681F
S3150800098813F00063F8D00123F6E7704700440258CD
S3150800099808B5FFF7BBFD00F0D7F9FFF7FDFEFFF72F
S315080009A8BBFFFFF7FDFDFFF76DFEFFF791FCFFF7AD
S315080009B8A6FCFCE782B0074BD3F8F42042F0020203
S315080009C8C3F8F420D3F8F43003F002030193019B2B
S315080009D802B070470044025800B589B00023039353
S315080009E804930593069307930268174B9A4201D016
S315080009F809B000BD154B1A6D22F0405242F000525C
S31508000A081A65D3F8EC2042F48072C3F8EC20D3F8C0
S31508000A18EC2002F480720192019AD3F8E02042F0A1
S31508000A280802C3F8E020D3F8E03003F0080302937D
S31508000A38029B03230393022304930923079303A919
S31508000A48034801F099F8D3E700A00040004402588B
S31508000A58000C025810B501F03DFC314C4FF4000368
S31508000A68A361304801F09AFA2F4801F097FA204610
S31508000A7801F094FA2D4801F091FA2D4BD3F8D820B5
S31508000A8822F00062C3F8D820D3F8EC2022F480724A
S31508000A98C3F8EC20D3F8E82022F48022C3F8E8202B
S31508000AA8D3F8E02022F00802C3F8E020D3F8E020C3
S31508000AB822F00402C3F8E020D3F8E02022F002026C
S31508000AC8C3F8E020D3F8E02022F00102C3F8E020BA
S31508000AD8D3F8F42022F00202C3F8F420BFF35F8F9C
S31508000AE8144B0022C3F89420C3F89820D3F8A02002
S31508000AF822F00102C3F8A0200122C3F89820D3F8EF
S31508000B08A02022F00102C3F8A0200222C3F89820E8
S31508000B18D3F8A02022F00102C3F8A02010BD00BF18
S31508000B2800040258000C025800080258000002582F
S31508000B380044025800ED00E07047FEE7FEE7FEE7CE
S31508000B48FEE770477047704708B500F02BF908BDEF
S31508000B58294AD2F8883043F47003C2F88830274BFC
S31508000B681B6803F00F03062B06D8244A136823F0DC
S31508000B780F0343F007031360214B1A6842F001027A
S31508000B881A6000221A6119681E4A0A401A601B4B25
S31508000B981B6813F0080F06D0184A136823F00F03CA
S31508000BA843F007031360164B00229A61DA611A624A
S31508000BB8154999621549D962154919635A6399639A
S31508000BC8DA6319645A64196821F4802119601A6667
S31508000BD8104B1B686FF30F03B3F1005F03D20E4B7C
S31508000BE80122C3F808210D4B43F2D2021A60024BC0
S31508000BF84FF000629A60704700ED00E0002000524E
S31508000C08004402587FEDF6EA000202020000FF01DE
S31508000C18800201010010005C00800051004000526B
S31508000C28DFF834D0FFF794FF002103E00B4B5B583D
S31508000C38435004310A480B4B42189A42F6D30A4ADB
S31508000C4802E0002342F8043B084B9A42F9D302F023
S31508000C5835FFFFF79DFE7047000008248C3D000805
S31508000C68400000245400002454000024800900246D
S31508000C78FEE7000010B5194B194ADA670024DC6745
S31508000C88184AC3F88020C3F8804040F27122C3F896
S31508000C988420C3F88440144AC3F88820C3F88840D7
S31508000CA81822C3F88C20C3F88C40104AC3F8902041
S31508000CB8C3F890404FF49B72C3F89420C3F8944045
S31508000CC80B4AC3F89820C3F898400A4AC3F89C20E8
S31508000CD8C3F89C40FFF7BEFE204610BD00440258E4
S31508000CE83150010023C0000AFF072803FFC3FFE8A5
S31508000CF83330D731AADE2000104B1B780BB90120F8
S31508000D08704710B504460E4A10684FF47A72B2FB5B
S31508000D18F3F3B0FBF3F000F0A3F868B90F2C01D988
S31508000D2801200AE0002221464FF0FF3000F088F83B
S31508000D38044B1C60002000E0012010BD4800002478
S31508000D48440000244C00002410B5032000F066F87F
S31508000D5801F028F80F498B69C3F303230E4AD35CBD
S31508000D6803F01F03D8408B6903F00F03D35C03F025
S31508000D781F0320FA03F3094A1360094B1860002079
S31508000D88FFF7BAFF10B10124204610BD0446FFF745
S31508000D9811FEF9E7004402588C3B0008400000247D
S31508000DA844000024034B1B78034A11680B4413605C
S31508000DB8704700BF480000247C000024002804DB94
S31508000DC80901C9B2044B1954704700F00F0009010C
S31508000DD8C9B2024B1954704700E400E014ED00E06C
S31508000DE800B500F00700C0F1070CBCF1040F28BFD6
S31508000DF84FF0040C031D062B0ED9C31E4FF0FF3EF9
S31508000E080EFA0CF021EA000199400EFA03FE22EACE
S31508000E180E0241EA020000BD0023EFE70649CB6847
S31508000E2823F4E0631B041B0C000200F4E060034390
S31508000E38024A1A43CA60704700ED00E00000FA0546
S31508000E4810B50446054BD868C0F30220FFF7C8FF5B
S31508000E5801462046FFF7B2FF10BD00BF00ED00E0CF
S31508000E680138B0F1807F0BD24FF0E0235861054A6C
S31508000E78F02182F823100020986107221A6170472A
S31508000E880120704700ED00E030B4416B0468D4F8DF
S31508000E9884306F4A134043EA8103C4F884300468EF
S31508000EA8D4F8843023F47F03856B43EA0543C4F8F2
S31508000EB88430836B0B440468D4F88810114041EADF
S31508000EC88301C4F888100468D4F8881021F4FE0150
S31508000ED8C56B41EA0541C4F88810C16B03EB4103A9
S31508000EE80468D4F8A010114041EA8301C4F8A01098
S31508000EF80468D4F8A01021F4FE01056C41EA0541FE
S31508000F08C4F8A010016C446C04FB01330468D4F8D7
S31508000F18B010114041EA8301C4F8B0100468D4F847
S31508000F28B01021F4FE01856C41EA0541C4F8B010F9
S31508000F38816CC46C04FB01330468D4F8AC10114006
S31508000F4841EA8301C4F8AC10016D446D04FB013312
S31508000F580468D4F8F010114041EA8301C4F8F01087
S31508000F680468D4F8F01021F47C11856D41EA05412E
S31508000F78C4F8F010816D03EB41030468D4F8C01077
S31508000F880A4042EA8303C4F8C0300268D2F8C0307F
S31508000F9823F47C13C16D43EA0143C2F8C0300268E2
S31508000FA8D2F8C03023F07C53016E43EA0163C2F8D5
S31508000FB8C030436B274A1A449200C266836B02EB19
S31508000FC883030367C16B03EBC1034367016C446C76
S31508000FD804FB01F103EB81038367816CC46C04FB92
S31508000FE801F103EB8103C367016D446D04FB01F14D
S31508000FF803EB8103C0F88030816D03EBC103C0F8A9
S315080010088430816EC46D01FB04FC03EB8C03C0F8C5
S315080010188830046E04FB01F103EB8103C0F89030B5
S315080010280D498B420DD9D0F89C3043F02003C0F8FF
S315080010389C30032380F89830012007E0002342F803
S31508001048043BD0F890309342F8D8002030BC70475B
S315080010580300FFFF002B0010FCD3004070B54C6856
S31508001068FCB90D698C6825430C6845EA84450E6AFF
S31508001078CC6944EA06648E6934434E693443CE68BB
S3150800108844EA0644D0F88460806E00FB03F306EB56
S31508001098830E46F82350CEF804400EF1080E0020B9
S315080010A819E00C698D6825430C68254345F0804589
S315080010B8DDE702EB000C9CF803409CF802301B04A1
S315080010C843EA04639CF8014043EA0423145C234377
S315080010D84EF8043B0430CB68024CE35C8342E8D8FC
S315080010E870BD00BF9C3B000830B595B004464C223D
S315080010F8A04901A802F006FD002C00F038812368F3
S315080011089D4A934220D094F898300BB32268936985
S3150800111823F01003936102F07FF9054623689A695C
S3150800112812F0080F1AD002F077F9431B0A2BF5D9E3
S31508001138D4F89C3043F00103C4F89C30032384F8A0
S315080011489830012015B030BD03F580736360DAE77F
S3150800115884F899302046FFF73FFCD7E79A6942F0AA
S3150800116801029A6102F058F9054623689A6912F04D
S31508001178010F0FD102F050F9401B0A28F5D9D4F807
S315080011889C3043F00103C4F89C30032384F8983054
S315080011980120D7E79A6942F002029A61237C012B5B
S315080011A840D02268936943F040039361637C012B1E
S315080011B83ED02268936923F480439361A37C012B6C
S315080011C83CD02268936943F48053936122689369F3
S315080011D823F44073A1680B4393612268936923F04B
S315080011E8A40393612268136923F010031361E36863
S315080011F8012B29D0002B2CD0022B00F09B802268CB
S31508001208936943F0800393612268136943F01003D6
S315080012181361E368032B1CD12268936943F0200302
S31508001228936116E02268936923F040039361BDE74A
S315080012382268936943F480439361BFE722689369F8
S3150800124823F480539361C1E72268936943F0040342
S315080012589361A3695A1EE369013B1B0243EA426389
S31508001268226A013A13436269013A216843EA02434A
S31508001278CB61A368B3F5407F62D0236E33B1226889
S31508001288D2F8C030616E0B43C2F8C030E36D226EE7
S31508001298D3420DD02168D1F8C83023F00703A26ECF
S315080012A814A800EB820252F84C2C1343C1F8C83034
S315080012B8236C6BB12168D1F8BC3023F00703626C44
S315080012C814A800EB820252F84C2C1343C1F8BC3020
S315080012D8A36C73B12168D1F8BC3023F07003E26CB3
S315080012E814A800EB820252F84C2C43EA0213C1F800
S315080012F8BC30236D73B12168D1F8BC3023F4E063A0
S31508001308626D14A800EB820252F84C2C43EA0223B9
S31508001318C1F8BC302268184B9A4222D00023C4F878
S315080013289430C4F89C30012384F898302046FFF797
S31508001338ABFD07E72268936943F02003936188E7C2
S31508001348A36A013BE26A013A43EA0223226B013A9D
S3150800135843EA0213626A013A216843EA0243CB6008
S315080013688BE76268936823F003039360D6E7012046
S31508001378E8E600BF403B000800A0004090F8983017
S31508001388013BDBB2012B07D9D0F89C3043F00203A6
S31508001398C0F89C30012070470B68DBB9CB68072B6F
S315080013A80ED08A68DB0643EA82730A6943EA02436F
S315080013B84A691343C26E496842F8213000207047CB
S315080013C80A69CB691B0243EA02438A69134343F055
S315080013D86053EFE710B4CA680B6943EA4273072AF1
S315080013E80FD04A698C6842EA8472006F496800EB34
S315080013F8C10C40F83130CCF8042000205DF8044BC5
S3150800140870478A69F1E790F898C0BCF1010F07D0D0
S31508001418D0F89C3043F00403C0F89C30012070478C
S31508001428920042EA011242EA43030168009A1A4303
S31508001438C1F880200020704790F89830012B07D013
S31508001448D0F89C3043F00403C0F89C30012070475C
S31508001458022380F898300268936923F001039361A0
S315080014680023C0F89C301846704790F898C00CF1CD
S31508001478FF3C5FFA8CFCBCF1010F2DD870B593FAC6
S31508001488A3F4A4B1B4FA84F40668D6F8C050C5F330
S31508001498054C64450DD2D6F8CC401C4211D0D0F87C
S315080014A89C3043F04003C0F89C30012008E0202413
S315080014B8EAE7D0F89C3043F02003C0F89C300120B6
S315080014C870BD93FAA3F32BB1B3FA83F3FFF7C6FDFE
S315080014D80020F5E72023F9E7D0F89C3043F002030B
S315080014E8C0F89C300120704790F89830022B07D036
S315080014F8D0F89C3043F00803C0F89C3001207047A8
S315080015080368C3F8D01000207047000070B590F83B
S315080015189840022C40F0E68040290CD0412941D059
S31508001528046D8C4275D8D0F89C3043F02003C0F877
S315080015389C300120DDE00468D4F8A05015F4FE0FAD
S315080015480CD0D4F8A45015F07F0F0FD1D0F89C30E2
S3150800155843F48073C0F89C300120CAE0D0F89C3068
S3150800156843F02003C0F89C300120C2E0D4F8A45008
S31508001578C5F30525D4F8A46016F0807F03D0D4F8FF
S31508001588A060002E06DB446C05FB04F4466F06EBE8
S31508001598840E45E00135D4F8A04005EA144505F05F
S315080015A87F05F0E70468D4F8B05015F4FE0F0CD0A0
S315080015B8D4F8B45015F07F0F0FD1D0F89C3043F407
S315080015C88073C0F89C30012093E0D0F89C3043F033
S315080015D82003C0F89C3001208BE0D4F8B450C5F33A
S315080015E80525D4F8B46016F0807F03D0D4F8B06027
S315080015F8002E06DB866FC46C05FB04F406EB840E26
S315080016080EE00135D4F8B04005EA144505F07F0523
S31508001618F0E7C56F446D01FB04F405EB840E00255D
S31508001628DEF8004004F08044546064BBDEF80040ED
S31508001638C4F38A441460DEF8004004F00054946049
S31508001648DEF8004004F000441461BEF80440D46192
S31508001658BEF8064004F00F04D460DEF8044004F42B
S3150800166880145461DEF8044004F4001494619EF86A
S31508001678074004F07F041462DEF80440E40F54625D
S315080016884FF0000C0CE0DEF8004024F060441460CB
S31508001698D1E70EEB0C04247A03F80C400CF1010C84
S315080016A8144CD668A45D6445F3D8402909D0412965
S315080016B80CD01F290ED8026801238B40C2F898302F
S315080016C802E00368C3F8A850002012E00368C3F8CC
S315080016D8B850F9E701F01F01026801238B40C2F8E8
S315080016E89C30F1E7D0F89C3043F00803C0F89C30EA
S315080016F8012070BD9C3B00080368D3F8CC0008405D
S3150800170800D001207047402905D00368D3F8B400F3
S3150800171800F07F0070470368D3F8A40000F07F0044
S3150800172870470000144BDB6813F0010F09D0124B01
S31508001738124A5A6002F188325A60DB6813F0010FC0
S3150800174814D10D4BD3F80C3113F0010F10D00A4BF6
S315080017580A4AC3F8042102F18832C3F80421D3F8E7
S315080017680C3113F0010F05D100207047012070478E
S315080017780020704701207047002000522301674562
S315080017880D4BDA6842F00102DA60DB6813F0010FE4
S315080017980DD0094BD3F80C2142F00102C3F80C21ED
S315080017A8D3F80C3113F0010F03D00020704701203D
S315080017B870470120704700BF00200052F8B505465B
S315080017C80E4601F029FE0746022E09D0042417E022
S315080017D801F022FEC01BA8425DD88DB903204AE055
S315080017E8304C0DE0304BD3F8103124EA030323F0CC
S315080017F80043B3FA83F35B0963B1B5F1FF3FE7D159
S31508001808002CEFDB284B1B6934EA03030CBF0123C2
S315080018180023F1E7012E1CD0234BD3F8103123F00F
S31508001828684323F480135B0C5B0443F0004333F0EE
S31508001838004117D1012E23D01B4BD3F8103113F4CE
S31508001848803F2CD0184B4FF48032C3F8142100205F
S3150800185811E0154B1B6923F0684323F480135B0CCE
S315080018685B04E4E7114882691A438261002B03DBAB
S315080018780D4A53610120F8BD0B4BC3F81411F9E75B
S31508001888094B1B6913F4803F07D0074B4FF4803286
S315080018985A610020EFE70320EDE70020EBE7002078
S315080018A8E9E700BF040000800020005280000024F9
S315080018B82D4B1B7D012B53D070B50D4614462A4B6C
S315080018C801221A7501F17843B3F5801F3AD3A1F1BD
S315080018D80161B1F5801F45D20226234B00229A6181
S315080018E831464CF25030FFF769FF38BB012E2BD032
S315080018F81E4AD2F80C3143F00203C2F80C31BFF382
S315080019086F8FBFF34F8F082354F8042B45F8042B21
S31508001918013B13F0FF03F7D1BFF36F8FBFF34F8F68
S3150800192831464CF25030FFF749FF012E12D00F4AC4
S31508001938D2F80C3123F00203C2F80C310A4B002204
S315080019481A7570BD0126C8E7084AD36843F002032A
S31508001958D360D4E7054AD36823F00203D360EDE7DA
S31508001968022070470120ECE780000024002000527E
S3150800197801F00303032B24D011F0010F0BD01D4BE4
S31508001988DA6822F03002DA60DA680243DA60DA687E
S3150800199842F08802DA6011F0020F11D0154BD3F81D
S315080019A80C2122F03002C3F80C21D3F80C2102438B
S315080019B8C3F80C21D3F80C2142F08802C3F80C218D
S315080019C870470C4BDA6822F03002DA60D3F80C213B
S315080019D822F03002C3F80C21DA680243DA60D3F839
S315080019E80C210243C3F80C219A6942F010029A6145
S315080019F8704700BF0020005210B411F0010F0CD038
S31508001A08114CE36823F4E663E360E36842EA002CD2
S31508001A1843EA0C0343F08403E36011F0020F0FD086
S31508001A280949D1F80C3123F4E663C1F80C31D1F829
S31508001A380C3142EA0022134343F08403C1F80C31FF
S31508001A485DF8044B704700BF00200052F8B5474BB5
S31508001A581B7D012B00F0888004460F46434B012264
S31508001A681A7500229A61436813F0010F0DD10025F3
S31508001A78636813F0020F12D1CDB92368012B1BD066
S31508001A884FF0FF333B60A6684CE001214CF250301A
S31508001A98FFF794FE05460028EAD00125E8E7022163
S31508001AA84CF25030FFF78AFE0028E5D001252F4B67
S31508001AB800221A752846F8BD61682069FFF758FF9D
S31508001AC8636813F0010F12D1636813F0020FEED0A2
S31508001AD802214CF25030FFF771FE00B10125244A65
S31508001AE8D2F80C3123F00803C2F80C31DFE70121DC
S31508001AF84CF25030FFF762FE00B101251C4AD36844
S31508001B0823F00803D360DFE701214CF25030FFF7D2
S31508001B1855FE0546164AD168164B0B40D3600FE0AA
S31508001B2805BB0136E368A2681344B342BFD92269E4
S31508001B3861683046FFF760FF636813F0010FE3D169
S31508001B48636813F0020FEBD002214CF25030FFF70E
S31508001B5835FE0546064AD2F80C11064B0B40C2F864
S31508001B680C31DDE73E60A2E70225A3E780000024E2
S31508001B7800200052FBF8FFFFF0B583B000236FE0A2
S31508001B8885685E000324B44025EA0405CC68B44099
S31508001B982C438460456825EA0C054C68C4F3001490
S31508001BA89C402C4344606EE08C68012C70D17EE022
S31508001BB8DD08083550F8254003F0070C4FEA8C0C69
S31508001BC84FF00F0E0EFA0CFE24EA0E0E0C6904FAF4
S31508001BD80CF444EA0E0440F825406EE0092400E0B7
S31508001BE8002404FA0EF42C430CF1020C6A4D45F84D
S31508001BF82C404FF0B0442568D44325EA02064F68BE
S31508001C0817F4801F01D042EA05064FF0B0452E604A
S31508001C186D6804EA05064F6817F4001F01D042EA02
S31508001C2805064FF0B0456E60D5F8845004EA0506F7
S31508001C384F6817F4003F01D042EA05064FF0B04551
S31508001C48C5F88460D5F880502C404E6816F4803F55
S31508001C5801D042EA05044FF0B042C2F88040013389
S31508001C680A6832FA03F400F095804FF0010C0CFA72
S31508001C7803FC1CEA0202F2D04C6804F00304013C97
S31508001C88012C7FF67DAF4C6804F00304032C8BD037
S31508001C98C4684FEA430E4FF0030C0CFA0EFC24EA0C
S31508001CA80C0C8C6804FA0EF444EA0C04C4604C68FC
S31508001CB804F00304022C3FF47BAF04684FEA430E92
S31508001CC84FF0030C0CFA0EFC24EA0C0C4C6804F0D2
S31508001CD8030404FA0EF444EA0C0404604C6814F489
S31508001CE8403FBCD02D4CD4F8F45045F00205C4F852
S31508001CF8F450D4F8F44004F002040194019C4FEA25
S31508001D08930C0CF10205244C54F8255003F0030EE5
S31508001D184FEA8E0E0F2404FA0EF425EA0405204C21
S31508001D28A0423FF45DAF04F58064A04222D004F5D2
S31508001D388064A04220D004F58064A0421ED004F531
S31508001D488064A0421CD004F58064A0421AD004F529
S31508001D588064A04218D004F58064A04216D004F521
S31508001D688064A04214D004F58064A0423FF436AFDC
S31508001D780A2436E7012434E7022432E7032430E745
S31508001D8804242EE705242CE706242AE7072428E74F
S31508001D98082426E703B0F0BD00040058004402589A
S31508001DA800000258754B1B6903F03803102B00F026
S31508001DB8DE80182B0FD0002B40F0DB806F4B1B689A
S31508001DC813F0200F00F0D7806C4B1B68C3F3C103D0
S31508001DD86B48D840704710B4684B9A6A02F00302F9
S31508001DE89C6AC4F30510D96A01F001015B6BC3F359
S31508001DF8CC0301FB03F307EE903AF8EE677A14F47E
S31508001E087C7F77D0012A4AD0022A76D0002A40F069
S31508001E1891805A4B1B6813F0200F23D057490A683C
S31508001E28C2F3C102564BD34007EE103AF8EE476A9A
S31508001E3807EE100AB8EE476A86EE867A0B6BC3F386
S31508001E48080306EE903AF8EE666A9FED4E6A67EE64
S31508001E58867A76EEA77AF7EE006A77EEA67A27EEFE
S31508001E68277A38E007EE100AF8EE476A9FED466AC1
S31508001E7886EE267A414B1B6BC3F3080306EE903AA7
S31508001E88F8EE666A9FED3F6A67EE867A76EEA77A77
S31508001E98F7EE006A77EEA67A27EE277A1BE007EEB2
S31508001EA8100AF8EE476A9FED396A86EE267A334BAA
S31508001EB81B6BC3F3080306EE903AF8EE666A9FEDC5
S31508001EC8316A67EE867A76EEA77AF7EE006A77EED3
S31508001ED8A67A27EE277A294B1B6BC3F346230133C9
S31508001EE807EE903AF8EE677AC7EE276AFCEEE67AC6
S31508001EF817EE900A5DF8044B704707EE100AF8EEDD
S31508001F08476A9FED236A86EE267A1C4B1B6BC3F33A
S31508001F18080306EE903AF8EE666A9FED1A6A67EEC7
S31508001F28867A76EEA77AF7EE006A77EEA67A27EE2D
S31508001F38277AD0E707EE100AF8EE476A9FED136A84
S31508001F4886EE267A0D4B1B6BC3F3080306EE903A0A
S31508001F58F8EE666A9FED0B6A67EE867A76EEA77ADA
S31508001F68F7EE006A77EEA67A27EE277AB3E70948E6
S31508001F787047094870470248704700BF004402582E
S31508001F880090D003000000390024744C0024744AD9
S31508001F980024F44A00127A0000093D006A4B984268
S31508001FA822D06A4B98422FD0694B98423CD0694B4D
S31508001FB8984249D0684B984256D0684B984263D0A5
S31508001FC8674B984270D0674B98427DD0664B9842CB
S31508001FD800F08A80654B984200F09680644B9842D8
S31508001FE800F0A2800120704703F58843D3F88820BB
S31508001FF842F00102C3F88820D3F8882022F00102AB
S31508002008C3F888200020704703F58043D3F8882052
S3150800201842F00202C3F88820D3F8882022F0020288
S31508002028C3F888200020704703F57053D3F8882032
S3150800203842F00402C3F88820D3F8882022F0040264
S31508002048C3F888200020704703F56053D3F8882022
S3150800205842F00802C3F88820D3F8882022F008023C
S31508002068C3F888200020704703F55053D3F8882012
S3150800207842F01002C3F88820D3F8882022F010020C
S31508002088C3F888200020704703F54053D3F8882002
S3150800209842F02002C3F88820D3F8882022F02002CC
S315080020A8C3F888200020704703F53053D3F88820F2
S315080020B842F04002C3F88820D3F8882022F040026C
S315080020C8C3F888200020704703F52053D3F88820E2
S315080020D842F08002C3F88820D3F8882022F08002CC
S315080020E8C3F888200020704703F51053D3F88820D2
S315080020F842F48072C3F88820D3F8882022F48072C4
S31508002108C3F888200020704703F50053D3F88820C1
S3150800211842F40072C3F88820D3F8882022F40072A3
S31508002128C3F888200020704703F5E053D3F88820C1
S3150800213842F48062C3F88820D3F8882022F48062A3
S31508002148C3F8882000207047000002580004025887
S3150800215800080258000C02580010025800140258C9
S3150800216800180258001C0258002002580024025879
S315080021780028025870B50A6892FAA2F212B1B2FAA1
S3150800218882F21BE0202219E0C46803FB03FE0EEB6B
S315080021984E056FEA050C24EA05040D690EFB05F5DC
S315080021A82C43C4604C68022C2DD04C6803680CEA92
S315080021B803030EFB04F42343036001320B6833FA66
S315080021C802F443D04FF0010C0CFA02FC1CEA030394
S315080021D8F3D04C68013C012CD6D88D68846803FB7B
S315080021E803FC0CEB4C0624EA06040CFB05F52C4309
S315080021F884600D68CE68446824EA050406FB05F57C
S315080022082C434460C0E7FF2B0ED84C69056A0EFBC1
S3150800221803F603FB06F6C6EB061325EA030306FBD5
S3150800222804F423430362C0E74C69456A1B0A03FBA7
S3150800223803F603FB06F606FB03F3C3EB031625EAC8
S31508002248060503FB04F42C434462AEE7002070BD80
S31508002258C2B2054BD358020EC0F304218A40134074
S31508002268CB4040EA034070474C440258084A9369F1
S3150800227803F00F030749CB5C03F01F03D8409369A3
S31508002288C3F30323044AD35C03F01F03D8407047FB
S3150800229800440258AC3B00088C3B0008044BDB6939
S315080022A8C3F30213034AD35C03F01F03D8407047ED
S315080022B800440258AC3B0008044BDB69C3F302230D
S315080022C8034AD35C03F01F03D840704700440258FA
S315080022D8AC3B0008334B1B6803F00F03062B06D8E4
S315080022E8304A136823F00F0343F0070313602E4A96
S315080022F8136843F00103136000E033B92A4B1B68DF
S3150800230813F00403F9D00123F7E7274A00211161DE
S31508002318106826490140116000E03AB1224A12685D
S3150800232812F00072F9D01A46F7E73AB11E4A12684F
S3150800233812F00062F9D01A46F7E732B11A4A12685B
S3150800234812F00052F9D01A46F7E7174B9A61DA6184
S315080023581A62174999621749D962174919635A635C
S315080023689963DA6319645A64196821F48021196033
S315080023781A66996E40F2FF720A439A66D3F8D02015
S3150800238842F48032C3F8D020064B1B6813F0080FB6
S3150800239806D0044A136823F00F0343F007031360B3
S315080023A8704700BF002000520044025845EDF6EA7F
S315080023B8000202020000FF018002010105EE900AF0
S315080023C806EE101A07EE902A07EE103AF8EE655A46
S315080023D8B8EE466AC5EE866AF8EE677AB8EE477AC0
S315080023E89FED096A27EE067A77EE877A26EEA77AA8
S315080023F8DDED007AF8EE677AC7EE276AFCEEE67A2C
S3150800240817EE900A704700BF000000392DE9F04121
S3150800241882B00446384B9B6A03F00303012B0DD0A0
S31508002428022B12D0C3B9344B1E6816F0040614D012
S315080024381B68C3F3C103314EDE400EE02E4B1E68FF
S3150800244816F4807609D02E4E07E02B4B1E6816F434
S31508002458003602D02B4E00E0002600232360636076
S31508002468A360254B9F6AC7F305171A6BC2F30802C0
S3150800247802F10108DD6A15F0010502D05D6BC5F3A6
S31508002488CC05002F35D01C4BDB6A13F4803F0CD0E3
S31508002498194B1B6BC3F34623013300932B4642465D
S315080024A839463046FFF78AFF2060134BDB6A13F478
S315080024B8003F0CD0104B1B6BC3F306430133009344
S315080024C82B46424639463046FFF778FF60600A4B86
S315080024D8DB6A13F4802F0CD0074B1B6BC3F3066318
S315080024E8013300932B46424639463046FFF766FFC6
S315080024F8A06002B0BDE8F081004402580090D003FD
S3150800250800093D0000127A00144B1B6903F03803D2
S31508002518182B0ED8DFE803F00F0D0D0D0D0D0D0D58
S31508002528200D0D0D0D0D0D0D160D0D0D0D0D0D0DA9
S31508002538180000207047094B1B68C3F3C1030848F5
S31508002548D84070470748704700B585B001A8FFF717
S315080025585DFF019805B000BD03487047004402585E
S315080025680090D00300127A0000093D002DE9F041D9
S3150800257882B00446384B9B6A03F00303012B0DD03F
S31508002588022B12D0C3B9344B1E6816F0040614D0B1
S315080025981B68C3F3C103314EDE400EE02E4B1E689E
S315080025A816F4807609D02E4E07E02B4B1E6816F4D3
S315080025B8003602D02B4E00E0002600232360636015
S315080025C8A360254B9F6AC7F305379A6BC2F30802BF
S315080025D802F10108DD6A15F0100502D0DD6BC5F3B6
S315080025E8CC05002F35D01C4BDB6A13F4002F0CD012
S315080025F8194B9B6BC3F34623013300932B4642467C
S3150800260839463046FFF7DAFE2060134BDB6A13F4C7
S31508002618801F0CD0104B9B6BC3F306430133009302
S315080026282B46424639463046FFF7C8FE60600A4BD5
S31508002638DB6A13F4001F0CD0074B9B6BC3F30663C6
S31508002648013300932B46424639463046FFF7B6FE15
S31508002658A06002B0BDE8F081004402580090D0039B
S3150800266800093D0000127A002DE9F04182B00446BF
S31508002678394B9B6A03F00303012B0DD0022B12D0AA
S31508002688C3B9354B1E6816F0040614D01B68C3F385
S31508002698C103324EDE400EE02F4B1E6816F48076D4
S315080026A809D02F4E07E02C4B1E6816F4003602D0C8
S315080026B82C4E00E00026002323606360A360264BA7
S315080026C89F6AC7F305571A6CC2F3080202F1010894
S315080026D8DD6A15F4807502D05D6CC5F3CC05002F4C
S315080026E818BF002E35D01C4BDB6A13F4800F0CD0AC
S315080026F8194B1B6CC3F34623013300932B464246FA
S3150800270839463046FFF75AFE2060134BDB6A13F446
S31508002718000F0CD0104B1B6CC3F306430133009310
S315080027282B46424639463046FFF748FE60600A4B54
S31508002738DB6A13F0807F0CD0074B1B6CC3F3066368
S31508002748013300932B46424639463046FFF736FE94
S31508002758A06002B0BDE8F081004402580090D0039A
S3150800276800093D0000127A0000B585B0FFF770FD34
S31508002778424B984271D031D8A3F5003398425BD0C2
S3150800278814D93F4B984207D003F57D43984264D045
S31508002798A3F5803398421FD13A4B186810F00060A9
S315080027A859D001A8FFF7E2FE029854E0A3F5407352
S315080027B898420FD1FFF7A8FE324B9B69C3F3032350
S315080027C8314AD35C03F01F03D840FFF74FFDFFF7E4
S315080027D865FD40E000203EE000203CE02B4B984297
S315080027E845D018D8A3F58033984207D003F57D431A
S315080027F898423CD0A3F5803398420AD1214B1868F1
S3150800280810F0040027D01B68C3F3C1032048D8403A
S3150800281821E000201FE01F4B984203D003F54073C0
S31508002828984207D1174B186F10F0020013D04FF4CF
S31508002838004010E000200EE0FFF766FE114B9B698A
S31508002848C3F30323104AD35C03F01F03D840FFF7EA
S315080028580DFDFFF731FD05B000BD0A4B186810F0ED
S315080028680050F8D001A8FFF7FFFE0298F3E7054BDA
S31508002878186810F48070EED00748ECE708030207DA
S315080028880803010700440258AC3B0008080304077C
S315080028980090D0030800050700093D0000B585B07B
S315080028A8144B1B6D03F04053B3F1805F0AD0B3F1A4
S315080028B8005F11D0D3B90F4B186810F4003016D042
S315080028C80D4814E00B4B186810F000700FD001A8DB
S315080028D8FFF79CFD02980AE0064B186810F000609E
S315080028E805D001A8FFF742FE029800E0002005B0CF
S315080028F800BD00BF0044025800127A000B2A28D8E7
S3150800290810B4019C7CB1B3F5004F0FD0D2B2114B6D
S3150800291853F82230B1FBF3F1019B01EB5301B1FBEC
S31508002928F3F189B2C1605DF8044B7047D2B2094B1E
S3150800293853F82220B1FBF2F2630803EB4203B3FB18
S31508002948F4F34FF6F0721A40C3F342031343C36015
S31508002958E9E77047BC3B0008036813F0010F6BD121
S3150800296830B583B004460D460368344A1A408B6866
S3150800297809690B4369690B43E9690B431A43026002
S31508002988EB68426822F4405213434360AB69826895
S3150800299822F4407213438360294B984216D0294B78
S315080029A898421BD0284B98421CD0284B98421DD0D9
S315080029B8274B98421ED0274B98421FD0264B984241
S315080029C820D0264B984221D001202DE02448FFF735
S315080029D8CBFE40B36B68EBB9012025E02148FFF729
S315080029E8C3FEF6E71F48FFF7BFFEF2E71D48FFF7E5
S315080029F8BBFEEEE71B48FFF7B7FEEAE71848FFF7FE
S31508002A08B3FEE6E71748FFF7AFFEE2E71548FFF714
S31508002A18ABFEDEE70093EB692A6801462046FFF716
S31508002A286DFF002000E00120E26A22F00F022B88E1
S31508002A381343E36203B030BD01207047F369FFEF23
S31508002A48001001400044004000480040004C004087
S31508002A58005000400014014000780040007C004007
S31508002A680803000708000007014B1860704700BFF5
S31508002A784400002472B6704762B670472DE9F04FD5
S31508002A88464B0344464CA34200F28180131E18BFE6
S31508002A98012300297ED0002B7CD00D898F8905EB70
S31508002AA8070C1FFA8CFC0CF1010C1FFA8CFC4E89DA
S31508002AB8B1F80E8006EB080E1FFA8EFE0EF1010E0F
S31508002AC81FFA8EFE8B8804E00120D08060E001336F
S31508002AD89BB2CC889C4258D30C6800FB0CF94C4531
S31508002AE85AD3B4FBF3F903FB1949B9F1000FEED130
S31508002AF8B4FBF3F4B4FBF0F900FB1949B9F1000F7C
S31508002B08E5D1B4FBF0F41FFA84F9CC458CBF4FF035
S31508002B18000A4FF0010ACE4538BF4FF0000ABAF14D
S31508002B28000FD4D04C464FEA490A0AF1090ADFF8D9
S31508002B3874B0ABFB0AAB4FEADB0AA9EBDB091FFA51
S31508002B4889F909F1FF391FFA89F94D45BFD84E4564
S31508002B58BDD35745BBD8D045B9D34FF0640B09FB4D
S31508002B680BBBBBFBF4F4E4B2413CE4B20F2CAED881
S31508002B781380A2F80290A2F804A04FEA5A03D38059
S31508002B88BAF1010FA0D9012002E0002000E00020D8
S31508002B98BDE8F08F0020FBE70020F9E7F0D8FFFF33
S31508002BA8F0EA7900CDCCCCCC70B590B002AC002355
S31508002BB8029303933548364B0360FDF70DFF4FF034
S31508002BC84050FFF76BFE04900123ADF814304FF41C
S31508002BD80072ADF81620ADF818304FF48072ADF8CB
S31508002BE81A20ADF81C308023ADF81E30224604A9F9
S31508002BF82848FFF743FF002842D0244C002666637E
S31508002C08A660E660012525746574A674BDF80830C3
S31508002C186361BDF80A30E361BDF80C302362BDF87C
S31508002C280E30A3616562A562E5622563A563E6635E
S31508002C38256404236364A664E36426656365A66558
S31508002C48E56526666666A3662046FEF74DFA089683
S31508002C5809960A950B9540F267630C930D930E96A1
S31508002C6808A92046FEF78AFB00952B46022211463C
S31508002C782046FEF7C8FB2046FEF7DEFB10B070BDFF
S31508002C884FF49D71044800F0CBFBB6E79C0000247E
S31508002C9800A0004020A10700FC3B000830B58BB017
S31508002CA805460C46082915D840F2E1730193002316
S31508002CB8029303930793059308935222099206935E
S31508002CC8049401232A4601A91148FEF7CEFB38B118
S31508002CD80BB030BD40F2C1110E4800F0A1FBE3E786
S31508002CE801210B48FEF700FC0028F1D100F08CFB07
S31508002CF800F1320401210648FEF7FEFC0028E7D059
S31508002D0800F094FC00F080FBA042F3D9E0E700BF8E
S31508002D189C000024FC3B000830B58BB004460D46E1
S31508002D2840211348FEF7EFFC10B900200BB030BD60
S31508002D3823466A4640210E48FEF7E8FBA8B9009ADA
S31508002D4840F267639A42F1D1019B002BEED19DF8B8
S31508002D580C302B70082B01D80120E7E74FF41171C6
S31508002D68044800F05DFB0120E0E70020DEE700BF2D
S31508002D789C000024FC3B000810B584B0FFF77AFED7
S31508002D88234B5B6913F4003F0FD0BFF34F8FBFF394
S31508002D986F8F1F4B5A6922F400325A610022C3F812
S31508002DA85022BFF34F8FBFF36F8F194B5B6913F42C
S31508002DB8803F2BD0164B0022C3F88420BFF34F8FD1
S31508002DC85A6922F480325A61BFF34F8FD3F880408C
S31508002DD80194C4F34E330293C4F3C90303930299C7
S31508002DE843F6E07303EA4113039A43EA82730848F1
S31508002DF8C0F87432531E0393002AF0D14B1E02936F
S31508002E080029E9D1BFF34F8FBFF36F8F04B010BD08
S31508002E1800ED00E010B500F04DFAB8B1FDF774FA08
S31508002E28B8B100F079FBFDF725FF00F0A3FA00F02A
S31508002E3845FA094B0340094A936000F03FFA44688B
S31508002E48FFF71AFEA04700F0E9FB10BD00F0E6FB05
S31508002E58FBE700F0E3FBF8E780FFFF1F00ED00E063
S31508002E6870B50D46044606E015F8013B04F8013B23
S31508002E7800F0DCFB3246531E9EB2002AF4D170BD20
S31508002E8838B50546002401E00134E4B20E2C11D801
S31508002E9800F0CCFB04EB4403084A52F82330AB4253
S31508002EA8F2D804EB440102EB810252681344AB42A0
S31508002EB8EAD900E0FF24204638BD00BFC83C000810
S31508002EC808B5C1F3090363B903688B4201D1012028
S31508002ED808E040F8041B4FF48062FFF7C1FF0120A1
S31508002EE800E0002008BD2DE9F04107460068FFF715
S31508002EF8C7FFFF2804D14FF000084046BDE8F08117
S31508002F08FEF710FC00264FF0010804E0E046B8F189
S31508002F18000F1DD001361F2E1AD83C6804EB46143C
S31508002F2807EB4615043500F081FB2A4621460120A1
S31508002F38FEF7BEFC844648B903461F2BE7D81A5D38
S31508002F48E95C9142E2D10133DBB2F6E74FF00008BB
S31508002F58FEF716FCD1E7000038B50D460D4B98422A
S31508002F6811D004460C4B994207D10A4C29462046EB
S31508002F78FFF7A6FF58B1204638BDFFF7B4FF20B1C2
S31508002F88002CF3D1F7E7054CF0E70024F3E7002413
S31508002F98F1E700BF3C0100240000020840050024B0
S31508002FA82DE9F04106460C4617461D46DFF870809F
S31508002FB801EA08080368B3F1FF3F07D033684345B9
S31508002FC809D13368E41A3444043413E04146FFF758
S31508002FD877FF08B3F2E741463046FFF7BDFF0646D6
S31508002FE80028EED1002017E017F8013B04F8013B4A
S31508002FF8013D10D000F01AFB311D611AB1F5806F3A
S31508003008F2D3316801F580613046FFF7A5FF064619
S3150800301820B1041DE8E70120BDE8F0810020FBE7A0
S3150800302800FCFFFF70B5144B00EB400253F8225022
S3150800303803EB82035E6815F0030F02D116F0030F3F
S3150800304804D040F21E310D4800F0EAF9002407E0E2
S3150800305800F0ECFA2B68B3F1FF3F0AD104350134C6
S31508003068B4EB960F03D214F0FF0FF3D1F0E7012063
S3150800307870BD0020FCE700BFC83C0008603C00089B
S3150800308870B586B000230093884236D804460D46A4
S315080030980E2901D9002631E0FEF744FB01E0013488
S315080030A8E4B2AC4225D82046FFF7BCFF06460028FE
S315080030B8F5D100F0BBFA134B04EB440203EB82018B
S315080030C853F822204B68002B18BFB2F1FF3F11D0E6
S315080030D800230193202305934A7A02920B7A0393D5
S315080030E801230493694601A8FEF7B0FC0028D6D048
S315080030F800E00126FEF744FB00E00026304606B04D
S3150800310870BD00BFC83C00084FF0FF33024A136081
S31508003118024A1360704700BF400500243C0100249A
S3150800312870B50D460139144B1B1A994201D900206E
S3150800313870BD04461646FFF7A3FEFF2801D10020F6
S31508003148F6E728190138FFF79BFEFF2812D00B4A25
S3150800315822400B4B9A4206D02B463246214609484E
S31508003168FFF71EFFE4E72B46324621460648FFF7D7
S3150800317817FFDDE70020DBE7FFFF1F0800FCFFFF5E
S3150800318800000208400500243C0100244A1E0D4B95
S315080031981B1A9A4201D90020704770B505460C4695
S315080031A8FFF76EFE06462C44601EFFF769FEFF28E9
S315080031B818BFFF2E01D1002070BD01463046FFF723
S315080031C85FFFF9E7FFFF1F0800B583B000230193E7
S315080031D8134B1B68B3F1FF3F02D1012003B000BDB2
S315080031E80F4A5368019391680B440193D1680B44BD
S315080031F8019311690B44019351690B440193916931
S315080032080B440193D26913440193DA4301925B4252
S31508003218019301AA04210348FFF782FFDEE700BFEE
S315080032283C010024980202080A4B1A685968114496
S315080032389A681144DA6811441A6911445A6911449A
S315080032489A690A44D3F89832D34201D101207047C3
S31508003258002070470000020808B50C4B1B68B3F13C
S31508003268FF3F06D10A4B1B68B3F1FF3F07D1012080
S3150800327808BD0648FFF737FE0028F9D0F2E70448E4
S31508003288FFF731FE0028F3D00120F1E73C010024BE
S3150800329840050024004870470000020808B5FFF7F3
S315080032A833FF08BD08B5FFF73BFF08BD08B5FFF7AC
S315080032B86DFF08BD08B5FFF7B7FF08BD08B5FFF7E6
S315080032C8E9FF08BD08B5FFF77FFF00B908BDFFF796
S315080032D8C3FFFBE782B0204BD3F8F02042F0010287
S315080032E8C3F8F020D3F8F02002F001020192019AFF
S315080032F81A4A1268996901F00F011948415C01F0E8
S315080033081F01CA40D969C1F30221415C01F01F01B6
S31508003318CA40DB6913F4E06F1BD1012302FB03F3F0
S31508003328104A012111604FF6FF71D1625B090E49F7
S31508003338A1FB0313DB09013B9362536943F00103BD
S3150800334853610A4B00211960526A094B1A8002B068
S3150800335870470223E2E700BF0044025844000024ED
S31508003368AC3B000800000140C55A7C0A48090024FD
S31508003378440900240F4BD3F8982042F00102C3F8F9
S315080033889820D3F8982022F00102C3F89820D3F899
S31508003398F02022F00102C3F8F0204FF0E0230022C3
S315080033A81A615A619A6103F550634FF000725A60C0
S315080033B8704700BF004402580F4B5B6A9BB20F4A1E
S315080033C811885B1A9BB2632B15D910B40C4AA2FB59
S315080033D803235A090B4C206800EB5310206002EBB4
S315080033E8820303EB83039A0092B21144034B1980B4
S315080033F85DF8044B704770470000014044090024F3
S315080034081F85EB514809002408B5FFF7D5FF014B7E
S31508003418186808BD4809002408B5FFF7F5FF08BD70
S3150800342808B500F003F9FCE708B500F0B3F8012879
S3150800343804D00D4B1B78012B04D008BD0A4B00227B
S315080034481A70FAE7FFF7E0FF084B1B68084A126884
S31508003458134403F5FA739842EFD3034B00221A7004
S31508003468FFF7D8FCE9E700BF540900244C090024F3
S315080034785009002408B5054B1B78012B00D008BD58
S31508003488FFF7C2FF024B1860F9E700BF540900248A
S315080034985009002408B5044B01221A70FFF7EAFF01
S315080034A8FFF7C2FF08BD00BF5409002408B5FFF797
S315080034B863FC00F0B7F8FFF70DFFFFF7EFFE00F023
S315080034C81DF8FFF7E7FF08BD08B500F0AFF8FFF7E6
S315080034D873FF00F087F8FFF7A7FF08BD08B5FFF7E1
S315080034E893FF014B186008BD6009002408B5024B14
S315080034F81870FFF7F3FF08BD6409002408B5002013
S31508003508FFF7F4FF00F0A2F9FFF74EFB014B022282
S315080035181A7008BD5000002408B50020FFF7E6FF1A
S3150800352808BD000008B5064B1B78022B04D000F02E
S31508003538A1F9FFF7D3FF08BDC9B2FFF7AFFBF6E756
S3150800354850000024084B1B78052B0AD8DFE803F03F
S31508003558030309050703812070473F2070473F206A
S3150800356870470820704700BF50000024084B1B7896
S31508003578052B0AD8DFE803F00303090507038120AA
S3150800358870473F2070473F2070470820704700BFA4
S315080035985000002408B500F065F900B1012008BDFF
S315080035A810B5FFF7F7FF012802D00024204610BD02
S315080035B80A4B1C78012C01D00024F7E7FFF724FFF3
S315080035C8074B1B68C01A41F28733984201D8002472
S315080035D8ECE70020FFF78AFFE8E700BF6409002444
S315080035E86009002400B583B00DF107010948FFF703
S315080035F893FB012803D0FFF7D3FF03B000BD064BA2
S3150800360802221A70FFF772FF9DF80710014800F0AA
S31508003618C9F9F0E7580900245000002408B5FFF74F
S3150800362829FF08BD08B5FCF77DFE08BD08B5FCF7F7
S315080036387EFE08BD014B00225A72704768090024AD
S31508003648034BFE221A70597002229A81704700BFEE
S315080036586809002410B5054C00232372FFF7EAFF12
S31508003668FF2323700123A38110BD00BF6809002426
S31508003678064BFF221A7000225A70597A9970DA7026
S315080036881A715A7106229A81704700BF6809002480
S3150800369808B500210078FFF7D3FF08BD08B5312122
S315080036A80078FFF7CDFF08BD08B520210078FFF799
S315080036B8C7FF08BD38B5074CFF232370002565707A
S315080036C8A570FFF73FFFE07025716571A57107239F
S315080036D8A38138BD6809002470B50646FFF7AAFF16
S315080036E80E4C0125257273782375FF232370002352
S315080036F8637010226270A370FFF724FFE070FFF76B
S3150800370835FF2071FFF732FFC0F307206071A571F6
S31508003718E5710823A381FFF7C1FD70BD6809002478
S3150800372838B50446FFF70EFF627890420ED90A4D5F
S315080037382969681CFFF794FBFF232B702B696278AD
S3150800374813442B6163780133AB8138BD2221207875
S31508003758FFF776FFF9E700BF68090024F8B50546BC
S315080037681746002406E015F8013B1C44E4B2FFF7A7
S315080037785DFF31464E1E0029F5D13C600120F8BD93
S3150800378838B504460D4B1D69FFF7DCFE621C411E61
S315080037982846FFF787FD58B1084CFF232370FFF723
S315080037A8D1FE23690138034423610123A38138BD67
S315080037B831212078FFF744FFF9E700BF680900249C
S315080037C810B50446FFF7BEFE01386378984212DD45
S315080037D8124BFF221A7001229A81617881B1A21CC4
S315080037E80E4B1869FFF75EFD98B10C4A13696178A4
S315080037F80B44136110BD22212078FFF721FFF9E752
S31508003808FFF760FD0028F5D131212078FFF718FF6A
S31508003818F0E731212078FFF713FFEBE76809002462
S3150800382810B5FFF7F7FA054C00232372FFF702FFD6
S31508003838FF2323700123A38110BD00BF6809002454
S3150800384808B589B2FFF76EFE08BD0000044B0022D2
S315080038581A721A61DA729A819A725A72704700BF96
S3150800386868090024024B187A00B10120704700BF86
S3150800387868090024014B0022DA7270476809002497
S315080038880378427843EA0223827843EA0243C078F7
S3150800389843EA00607047000038B50446FFF752FE51
S315080038A86378984213D9201DFFF7EAFF01460A4DA7
S315080038B828616278681CFFF7D3FAFF232B702B69F7
S315080038C8627813442B6163780133AB8138BD2221B2
S315080038D82078FFF7B5FEF9E76809002410B5054C06
S315080038E8FF2323700430FFF7CBFF20610123A38150
S315080038F810BD00BF6809002438B504460A4B1D697F
S315080039080430FFF7BDFF01462846FFF7CFFC28B16C
S31508003918054BFF221A7001229A8138BD3121207879
S31508003928FFF78EFEF9E700BF680900240870C0F3A0
S3150800393807234B70C0F307438B70000EC870704797
S3150800394830B583B0002501950A4CFF23237004304F
S31508003958FFF796FF014601AA2069FFF7FFFE607088
S31508003968211D0198FFF7E2FFA570E5700823A381DA
S3150800397803B030BD6809002410B5084CFF2323702E
S31508003988074B236100236370A370E370211D07208A
S31508003998FFF7CCFF0823A38110BD00BF68090024E0
S315080039A87C3D000810B504460078FF2824D03E4B15
S315080039B81B7A012B6CD1A0F1C903352B5CD8DFE83B
S315080039C803F03F5B5B535B5B4F434B475B5B5B5B60
S315080039D85B5B5B5B5B5B5B5B5B5B5B5B5B5B5B5B21
S315080039E85B5B5B5B5B5B5B5B5B5B575B2B231F27ED
S315080039F85B5B5B2F5B33373B2046FFF76DFE3EE08C
S31508003A082046FFF78DFE3AE02046FFF745FF36E0E9
S31508003A182046FFF763FF32E02046FFF791FF2EE0C6
S31508003A282046FFF7A9FF2AE02046FFF731FE26E0E1
S31508003A382046FFF71DFE22E02046FFF70BFE1EE094
S31508003A482046FFF79DFE1AE02046FFF7B9FE16E066
S31508003A582046FFF72FFE12E02046FFF74DFF0EE03F
S31508003A682046FFF7DDFE0AE02046FFF717FE06E0C8
S31508003A782046FFF719FE02E02021FFF7E1FD0A4B71
S31508003A88DB7A012B05D0084BB3F90C10002905DCA5
S31508003A9810BD10212078FFF7D3FDF4E71846012357
S31508003AA8C372FFF7CDFEF3E768090024024403460C
S31508003AB8934200D1704703F8011BF9E770B50D4B1F
S31508003AC80D4D5B1B9C100026A64209D100F028F86C
S31508003AD80A4D0B4B5B1B9C100026A64205D170BDF0
S31508003AE855F8043B98470136EEE755F8043B9847DE
S31508003AF80136F2E7843D0008843D0008843D000845
S31508003B08883D00080A44914200F1FF3300D1704706
S31508003B1810B511F8014B03F8014F9142F9D110BDC0
S31508003B28F8B500BFF8BC08BC9E467047F8B500BF94
S30D08003B38F8BC08BC9E46704764
S31508003B400000000000000000000000000000000067
S31508003B500000000001000000020000000300000051
S31508003B60040000000000000005000000000000003E
S31508003B700000000000000000060000000000000031
S31508003B800000000000000000070000000000000020
S31508003B9001020304010203040607080900010203DF
S31508003BA004050607080C1014182030400000000011
S31508003BB001020304010203040607080901000000C4
S31508003BC002000000040000000600000008000000D3
S31508003BD00A0000000C000000100000002000000091
S31508003BE04000000080000000000100000001000005
S31508003BF0000100000001000000010000433A2F55B3
S31508003C00736572732F61726167792F446F63756D7F
S31508003C10656E74732F6769745F7265706F732F4270
S31508003C20454546426F6172642F315F456D62656432
S31508003C306465642F6F70656E626C742F5461726769
S31508003C4065742F536F757263652F41524D434D3717
S31508003C505F53544D333248372F63616E2E6300002D
S31508003C60433A2F55736572732F61726167792F44D2
S31508003C706F63756D656E74732F6769745F726570AF
S31508003C806F732F42454546426F6172642F315F4517
S31508003C906D6265646465642F6F70656E626C742FFF
S31508003CA05461726765742F536F757263652F41523D
S31508003CB04D434D375F53544D333248372F666C6149
S31508003CC073682E630000000000000208000002006E
S31508003CD001010000000004080000020002010000C3
S31508003CE000000608000002000301000000000808A2
S31508003CF0000002000401000000000A08000002009B
S31508003D000501000000000C08000002000601000082
S31508003D1000000E080000020007010000000010085D
S31508003D200000020000020000000012080000020065
S31508003D300102000000001408000002000202000050
S31508003D400000160800000200030200000000180820
S31508003D50000002000402000000001A080000020029
S31508003D600502000000001C08000002000602000010
S31508003D7000001E0800000200070200004F70656E72
S30908003D80424C54004F
S30908003D84BD02000866
S30908003D889902000886
S31508003D8C0090D0030090D003010000001000000042
S30908003D9C060000000F
S70508000C29BD
